:1000000080F13EB882F104BD82F110BD82F11CBDC9
:1000100082F12BBD82F13ABD82F149BD82F158BD1A
:1000200080F13EB882F104BD82F110BD82F11CBDA9
:1000300082F12BBD82F13ABD82F149BD82F158BDFA
:10004000FAFAFAFAFAFAFAFAFAFAFAFAFAFAFAFA10
:10005000FAFAFAFAFAFAFAFAFAFAFAFAFAFAFAFA00
:10006000FAFAFAFAFAFAFAFAFAFAFAFAFAFAFAFAF0
:10007000FAFAFAFA444250502CF21D00000018001F
:10008000DFF844804FF00009B8E8FF00A9E8FF005E
:10009000EFF300804FF01F0120EA01004FF0D10183
:1000A00040EA010080F30089DFF820D0EFF3008000
:1000B0004FF01F0120EA01004FF0DF0140EA01008C
:1000C00080F30089024800472000180080E41D00EA
:1000D000CD2B180000000000000000000000000010
:1000E0000000000000000000000000000000000010
:1000F0000000000000000000000000000000000000
:1001000000000000000000000000000000000000EF
:1001100000000000000000000000000000000000DF
:100980003D3718005FE01A00BBE01A0055DA1A0084
:10099000CDD71A0019D71A0061D81A00D7D51A0076
:1009A000B3D61A0035E11A003D37180099D51A0060
:1009B000B3D51A0001DB1A00C1D51A0001E01A00F4
:1009C000ADD51A0099DE1A00692B1800652B1800A6
:1009D000612B1800592B18003D3718008D2B18007B
:1009E0003D371800D9A81800B7A71800D9A71800D4
:1009F000BDA71800D5A71800DDA718003D371800BF
:100A000075A8180039A8180089A81800F5A71800BB
:100A1000B1A81800F1871800E98918003D371800BF
:100A2000ABA21800E79D180003A31800699F1800E7
:100A300015A318003BA61800C56D1E003DA41800A4
:100A4000BF9E18002B9F1800A7A61800A9A6180083
:100A5000D7A21800C36D1E003D3718003D3718009F
:100A60003D3718003D3718003D371800D1311C00C4
:100A70003D3718003D3718003D3718000F791A0030
:100A80003D37180013791A003D3718003D3718001C
:100A90003D3718003D3718003D3718003D37180026
:100AA0003D3718003D3718003D3718003D37180016
:100AB0003D3718003D3718003D371800571F1B0001
:100AC0003D3718003D3718003D3718003D371800F6
:100AD0003D3718003D3718003D371800E5041B006E
:100AE000E7061B0013F11A0019EF1A0001EF1A00B4
:100AF000C5F01A0069F11A00FBEE1A0025F91A0078
:100B0000C5F71A00AF091B0077091B003D37180015
:100B10003D091B0017791A003D3718000F1F1B00F5
:100B2000CD1F1B003D3718003D3718003D3718001A
:100B30003D3718003D3718003D3718003D37180085
:100B40003D3718003D3718003D3718003D37180075
:100B50003D3718003D3718003D3718003D37180065
:100B60003D3718003D3718003D3718003D37180055
:100B70003D3718003D3718003D3718003D37180045
:100B80003D3718007FA11C00A9971C009D8B1C00FD
:100B9000B7B21C00A3961C0083951C0005901C0096
:100BA000099C1C004F9C1C00439C1C00DB8B1C0000
:100BB00085A91C00A99A1C003D3718003D37180074
:100BC00081911C0035911C008B901C0045901C00ED
:100BD00017901C0059AD1C003D3718003D37180018
:100BE000C78F1C0003A11C00CF9F1C00BF8C1C00E2
:100BF000659F1C003D3718004DC01C003D37180094
:100C00003D371800678F1C00C78B1C00D18B1C0060
:100C10000BA81C00C58B1C0033971C0031971C00CF
:100C2000E5A21C00119A1C003D3718006D9F1C00A6
:100C3000B7B91C0099B91C00A5B91C00918F1C0004
:100C4000BBA21C00D9A71C00C3A71C007D951C00DB
:100C50003D371800BF8B1C003D371800C9991C0098
:100C60003D3718003DC01C004B901C004B9F1C00E2
:100C7000139F1C00C98F1C00719F1C003D3718007A
:100C80003D3718003D3718003D37180053AE1C00A3
:100C9000C9911C00FD951C001F951C00F5941C00BB
:100CA0003D3718003D37180053951C007D941C00FB
:100CB000F1911C0047951C000FAB1C003D3718003C
:100CC0003D3718003D3718007B061B00C9061B0086
:100CD00011061B005D061B00AD0B1D00A70C1D00BF
:100CE000750C1D00B50D1D0007111D00CD101D0058
:100CF000F50B1D004B0B1D00950C1D00170C1D0066
:100D00006B0B1D00710B1D003D3718003D3718009F
:100D10003D3718003D371800214E1D003D371800A3
:100D20003D3718003D3718003D371800454E1D006F
:100D30003D3718003D3718003D3718003D37180083
:100D40003D3718003D371800D5781A00DF541D00D4
:100D5000F3581D00CB571D0097581D004D581D001E
:100D6000FF581D0091581D0063551D00BB571D0005
:100D70003D3718003D3718003D371800C9051B00E6
:100D80003D371800D1401800C18C1800CD8C1800D8
:100D9000FF8F180021D018003573190011F81800C2
:100DA000512F180099301800AD311800713C18000F
:100DB000C93C18003D3718003D3718003D37180072
:100DC0003D3718003D3718003D3718003D371800F3
:100DD0003D3718003D37180003851800D1861800EC
:100DE00093221E004B241E00F98C18003D3718007A
:100DF0000F8F180019901800999018005991180039
:100E00003D37180015A9180055AD1800A5AE1800FB
:100E10001DC41800F9C418009DCB180015CC18008B
:100E20003D37180053CC18005FCC180071CC180067
:100E30005BCC180061CF18003D37180027D0180090
:100E4000FFD81800F9D9180053DA180069DA180029
:100E500083DA180099DA180081DB18000DDC18001D
:100E600079DC1800A3DA180001E01800F9DC18009A
:100E70004FDA180011F118001DF11800E5F1180003
:100E8000F5F518002DF818008DF9180099F91800DB
:100E9000A1F91800B5F91800CBF91800F3F91800FA
:100EA000CFFA1800250C1900890C1900F5FB180061
:100EB000DD1719003D37180031291900B52919002F
:100EC00025351900E1361900FB3819007142190067
:100ED00089421900054519002345190031451900BB
:100EE0002D46190087461900A34619008F50190096
:100EF0008954190019711900E3761900398F190006
:100F000079931900399B1900799E190049B019008D
:100F100041B6190039BF1900CDC61900F9CF190023
:100F20003D3718003D37180021ED19003D371800F6
:100F30003D371800550A1A0049351A0021351A00A4
:100F400059381A003D37180085441A00B7481A006E
:100F5000E1501A0015671A00D5611A0037621A00AD
:100F600081791A0039821A003D371800A5821A00CB
:100F70003D3718003D371800AD8F1A00E7BD1A0045
:100F8000E5E21A008BEC1A00A3EC1A00A9EC1A0097
:100F9000B5EC1A00BDEC1A0079ED1A008DED1A00BF
:100FA00097ED1A00BFED1A00F9ED1A00CD0B1B00EA
:100FB00039C91C003DC91C004DC91C003D37180033
:100FC0003D3718008DC91C003D3718003D3718000B
:100FD000FD011D00CB391D000101010000000008CA
:100FE000200000000002000004000000FF030000D9
:100FF0005000000001000000010000000A07080185
:1010000000000000080000000004000001040000CF
:1010100004000400080001000000000000000000BF
:1010200000000000000000000000000000000000C0
:1010300000000000000000000000000000000000B0
:1010400000000000000000000000000000000000A0
:101050000000000000000000000000000000000090
:1018000088F184B90000000088F11DB900000000D3
:1018100088F160B80000000087F1A9BF0000000057
:101820006FF124BF000000006CF1CCBD000000008F
:1018300085F1B6BC0000000060F10CBC00000000A7
:1018400060F126BB0000000082F19CB9000000009E
:1018500082F1F0B90000000081F1E0BE000000005C
:101860007BF126B9000000007BF194BC0000000071
:101870007BF106BB0000000085F1B4B80000000059
:1018800084F19CBE0000000084F138BE000000001E
:101890007CF19CBE000000007CF1F9BB0000000060
:1018A0007AF166BC000000007AF157BE000000002B
:1018B00079F1CDBF0000000079F10EBF00000000FB
:1018C00079F13ABD000000007BF179B90000000019
:1018D0007CF1B1BF000000007CF18BBF0000000074
:1018E00075F19EBC0000000075F194BD0000000081
:1018F00080F129BA0000000077F100BA0000000072
:101900007CF159BC000000007EF123B8000000000B
:1019100071F142BC000000007BF19CBD00000000A2
:1019200070F120BB0000000070F1F2B80000000070
:101930006FF180BE000000006FF180BD000000006C
:101940006FF157BD000000006FF16ABD000000009C
:1019500076F1DDBE000000007AF1A0BD00000000BD
:101960006EF130BD000000006EF136BA00000000DC
:101970006EF136B8000000006FF126BC00000000D8
:101980006EF18CBC000000006DF1E5BC00000000B1
:101990006DF1C4BA000000006DF1DEBA0000000075
:1019A0006CF1EABC000000006DF10FBF0000000008
:1019B0006EF19EB8000000006DF1CEB8000000008E
:1019C0006DF1C8BB000000006CF140BC00000000DD
:1019D0006CF1CDB9000000006BF17ABD0000000091
:1019E0006CF148BE000000006CF1FABC0000000081
:1019F0006BF14CB9000000006AF123BE000000004A
:101A00006AF18CBC000000005AF1C5B9000000006A
:101A100070F1EFBB000000006AF13EBB0000000067
:101A200069F10DBF0000000069F122BD0000000057
:101A300069F1C9BD0000000069F13EBB0000000073
:101A40006AF126B80000000069F116BE000000002F
:101A500069F180BB0000000069F17AB80000000065
:101A600069F1D2B9000000006BF1FCB90000000080
:101A70006BF184BC000000006AF195BB000000001F
:101A80006AF13CBB0000000069F196BA000000005A
:101A900069F110BA0000000069F16FB800000000A1
:101AA00067F1C2BE0000000066F1B6BC0000000095
:101AB00075F13EBA0000000064F1F4B800000000C7
:101AC00064F16ABB0000000064F138BC0000000053
:101AD00064F179BB0000000064F149BC0000000023
:101AE00063F1AEBD0000000062F1F2BE0000000034
:101AF00062F15ABA0000000062F193B800000000E1
:101B000061F1ECBE0000000062F14CB80000000082
:101B100062F112B90000000061F186BD0000000012
:101B200061F154BB0000000072F196BD000000009E
:101B300063F151B80000000062F1CCB90000000070
:101B400062F1DEBE0000000062F184BD0000000012
:101B500062F122BD0000000062F14EB900000000F9
:101B600061F11ABF0000000062F1C6B80000000079
:101B700061F194BD0000000061F196B90000000021
:101B800065F1E6B80000000061F1C4BB0000000090
:101B90005DF1ECBF000000005DF108BB000000003B
:101BA0005DF17EBE000000005DF196BA000000000D
:101BB00062F1DEB8000000005CF1F2BD0000000040
:101BC0005DF1A0BC000000005DF1B4B900000000B0
:101BD0005DF1FAB8000000005DF100B900000000FE
:101BE00072F175BB0000000073F10EBF0000000031
:101BF00071F112BC000000005BF102BF00000000A8
:101C00005DF1A2BC0000000062F132BA00000000E9
:101C10005CF177BB000000005CF11DBB0000000020
:101C20006DF165BE000000005CF1DEBC000000004C
:101C30006BF1F4BA000000006BF1F8BA000000008C
:101C40005CF10EBF000000006DF107BB000000005A
:101C50006CF131B80000000072F16ABE00000000B3
:101C60006BF1E6BF000000006BF14AB80000000015
:101C700065F116BE0000000068F164B800000000C5
:101C800067F1A6B8000000005BF17EBA000000001A
:101C90005BF182B9000000006BF19AB9000000000E
:101CA00059F18EBD0000000054F124BD0000000079
:101CB00054F1D0BC0000000067F1C4BC000000007B
:101CC0006CF13ABF000000006CF1F3BE00000000B0
:101CD0006BF1DCBC0000000066F1EDBA0000000012
:101CE0006AF184BF0000000069F132B90000000011
:101CF00066F135B9000000006AF124BA0000000066
:101D000069F1EABF000000006EF168BE000000004B
:101D100069F148BF000000006BF1E3B9000000006A
:101D20006CF13ABB0000000069F186BB00000000C6
:101D30005CF1B6BF0000000069F178B80000000057
:101D40005CF17CBC0000000066F127BD00000000D3
:101D500063F188BF0000000063F185BF0000000050
:101D600066F184B80000000066F1A9B80000000028
:101D700066F144B80000000065F1E6BA000000001A
:101D800065F154B90000000065F1ADBA0000000033
:101D900068F178BD0000000064F164BD000000003F
:101DA00064F1D4BC0000000064F1DEBF000000005C
:101DB00064F146BB000000005CF144BD000000007F
:101DC0006BF1B2BC000000006BF169BA00000000CA
:101DD0006BF1CEB8000000006FF16BBD0000000099
:101DE0006AF12BBA0000000068F194BF0000000007
:101DF00067F15DBD000000006CF1E0B9000000007B
:101E000063F129BD000000006BF181BF00000000FC
:101E100068F19CBA0000000067F1B8B9000000004A
:101E200063F135BA0000000063F168BB00000000F8
:101E300062F10ABE0000000064F114B80000000066
:101E400063F12ABE0000000063F137B90000000012
:101E500062F195BE0000000062F1BBBD0000000011
:101E600062F149B90000000067F12BBF00000000DB
:101E70006BF1FEBA0000000069F182BA00000000B8
:101E800059F1F0BE0000000059F1E6BC000000006E
:101E900059F110BF000000006AF1A2B80000000074
:101EA00064F1A0BC0000000064F166BB000000000B
:101EB0000000000000000000000000000000000022
:101EC0000000000000000000000000000000000012
:101ED0000000000000000000000000000000000002
:101EE00000000000000000000000000000000000F2
:101EF00000000000000000000000000000000000E2
:101F000000000000000000000000000000000000D1
:101F100000000000000000000000000000000000C1
:101F200000000000000000000000000000000000B1
:101F300000000000000000000000000000000000A1
:101F40000000000000000000000000000000000091
:101F50000000000000000000000000000000000081
:101F60000000000000000000000000000000000071
:101F70000000000000000000000000000000000061
:101F80000000000000000000000000000000000051
:101F90000000000000000000000000000000000041
:101FA0000000000000000000000000000000000031
:101FB0000000000000000000000000000000000021
:101FC0000000000000000000000000000000000011
:101FD0000000000000000000000000000000000001
:101FE00000000000000000000000000000000000F1
:101FF00000000000000000000000000000000000E1
:10200000F408000004000000001818005409000043
:102010000400000008181800040B00000400000071
:1020200010181800DC0B000004000000181818003D
:10203000D4FD02000400000020181800643F0300D3
:1020400004000000281818001838000004000000E0
:1020500030181800F0B1040004000000381818000F
:10206000B4B204000400000040181800D86F00004B
:102070000400000048181800D87200000400000096
:1020800050181800C8770000040000005818180005
:10209000508100000400000060181800A0810000BA
:1020A00004000000681818009C870000040000006D
:1020B00070181800D03E00000400000078181800C6
:1020C0000C43000004000000801818004045000088
:1020D00004000000881818008CDD000004000000D7
:1020E0009018180028E50000040000009818180057
:1020F000A407010004000000A0181800EC0801006B
:1021000004000000A8181800D82B010004000000EB
:10211000B01818004C2C010004000000B81818007A
:10212000303F010004000000C0181800946A01004C
:1021300004000000C8181800A87101000400000085
:10214000D0181800707A010004000000D818180098
:10215000A889010004000000E0181800DC890100D3
:1021600004000000E8181800288E01000400000098
:10217000F0181800809D010004000000F8181800F5
:10218000DCA901000400000000191800D4CD0100F2
:102190000400000008191800FCD101000400000030
:1021A00010191800E0D701000400000018191800E9
:1021B000D8DC0100040000002019180088D40200B7
:1021C000040000002819180060D802000400000074
:1021D0003019180038DE0200040000003819180019
:1021E0006CDF02000400000040191800C0DF02008C
:1021F0000400000048191800D0DE010004000000AF
:1022000050191800D0E3010004000000581918000C
:10221000E8F60200040000006019180038F9020016
:10222000040000006819180080FB02000400000090
:102230007019180064FF02000400000078191800EB
:10224000900303000400000080191800CC10030064
:102250000400000088191800641103000400000045
:1022600090191800B8150300040000009819180010
:102270008C1A030004000000A0191800602103005C
:1022800004000000A8191800D42303000400000073
:10229000B01918003841030004000000B8191800F4
:1022A0004425030004000000C0191800FC4203008C
:1022B00004000000C8191800B0500300040000001A
:1022C000D01918001C51030004000000D819180090
:1022D0002834030004000000E01918007C340300D7
:1022E00004000000E8191800A035030004000000F5
:1022F000F01918005873030004000000F8191800C2
:102300003877030004000000001A1800204B050075
:1023100004000000081A180040E401000400000056
:10232000101A1800789A030004000000181A180008
:10233000149C030004000000201A1800B49C030041
:1023400004000000281A1800E49D030004000000A7
:10235000301A1800449F030004000000381A1800C7
:1023600024A6030004000000401A1800A4A70300DC
:1023700004000000481A180084A8030004000000AC
:10238000501A1800F8A9030004000000581A180099
:10239000C4AE030004000000601A1800E8B803008F
:1023A00004000000681A180038BB03000400000095
:1023B000701A180038BC030004000000781A1800D6
:1023C00020BD030004000000801A1800A4BD030013
:1023D00004000000881A180040C103000400000037
:1023E000901A180028D4030004000000981A18005E
:1023F000F8E3030004000000A01A1800E4F503004D
:1024000004000000A81A18005CEA010004000000A3
:10241000B01A1800D037040004000000B81A1800E1
:10242000EC37040004000000C01A1800E43904006E
:1024300004000000C81A18008C42040004000000C8
:10244000D01A1800B044040004000000D81A180084
:10245000844B040004000000E01A1800AC4D040096
:1024600004000000E81A18002457040004000000CB
:10247000F01A1800A05C040004000000F81A18000C
:10248000945D040004000000001B1800D05D0400EF
:1024900004000000081B1800685E0400040000002F
:1024A000101B18007062040004000000181B1800C4
:1024B0002464040004000000201B1800B0EF010099
:1024C00004000000281B1800B86C04000400000081
:1024D000301B1800B470040004000000381B180002
:1024E0000072040004000000401B1800F072040099
:1024F00004000000481B1800687604000400000077
:10250000501B1800D877040004000000581B180066
:10251000447A040004000000601B1800E47D0400FD
:1025200004000000681B1800B87F040004000000CD
:10253000701B18008C83040004000000781B180036
:10254000A8FB030004000000801B1800249F040067
:1025500004000000881B180050DC04000400000088
:10256000901B180044E6040004000000981B1800AB
:10257000F4E9040004000000A01B180050EF040060
:1025800004000000A81B1800B86404000400000048
:10259000B01B1800B8F0040004000000B81B1800BD
:1025A0001C0F050004000000C01B1800D811050016
:1025B00004000000C81B1800BC190500040000003E
:1025C000D01B18000C1A050004000000D81B1800CE
:1025D000D4FA010004000000E01B1800A0FD010077
:1025E00004000000E81B180004480200040000007A
:1025F000F01B1800E84B050004000000F81B180051
:102600007CF1040004000000001C1800908C040001
:1026100004000000081C18004C26050004000000FF
:10262000101C18008426050004000000181C180067
:10263000BC59020004000000201C1800E4F2040051
:1026400004000000281C18008C5F02000400000039
:10265000301C18001060020004000000381C180034
:1026600004FA040004000000401C180090640200FA
:1026700004000000481C1800C464020004000000AC
:10268000501C18002865020004000000581C1800A7
:102690009465020004000000601C180078690200C4
:1026A00004000000681C1800ACAA0600040000002A
:1026B000701C1800D46C020004000000781C180084
:1026C0009403040004000000801C1800D05605008C
:1026D00004000000881C1800905B05000400000046
:1026E000901C18007470020004000000981C180070
:1026F000907D050004000000A01C180008D605000D
:1027000004000000A81C180050D6050004000000BA
:10271000B01C1800EC77020004000000B81C180080
:10272000B4F8050004000000C01C1800E0F9050022
:1027300004000000C81C1800081006000400000077
:10274000D01C18002C86020004000000D81C1800C1
:10275000A086020004000000E01C18008087020030
:1027600004000000E81C180040890200040000007A
:10277000F01C18000828060004000000F81C1800CF
:102780009C2B060004000000001D1800808A020037
:1027900004000000081D1800C431060004000000F9
:1027A000101D1800DC8C020004000000181D180029
:1027B000D88D020004000000201D1800CC3906004E
:1027C00004000000281D1800181B0500040000006C
:1027D000301D18001496030004000000381D180076
:1027E000A000050004000000401D18000C0E0400AD
:1027F00004000000481D1800D0110400040000006F
:10280000501D18000413040004000000581D180097
:102810005015040004000000601D1800349C0600E0
:1028200004000000681D1800A095060004000000C8
:10283000701D1800B8A6060004000000781D1800DE
:10284000C0AE060004000000801D1800CCB00600D9
:1028500004000000881D18002898020004000000F1
:10286000901D180080BE060004000000981D18008E
:1028700018BF060004000000A01D1800CCB406001C
:1028800004000000A81D18006CBC06000400000035
:10289000B01D1800B01C050004000000B81D180091
:1028A000049B020004000000C01D1800709F02007D
:1028B00004000000C81D1800C0A1020004000000B0
:1028C000D01D1800DCE0020004000000D81D180034
:1028D000BCA7020004000000E01D180048A8020088
:1028E00004000000E81D180034AD020004000000E0
:1028F000F01D180064AE020004000000F81D18006E
:10290000A8FD060004000000001E180094AF02009D
:1029100004000000081E1800B4B00200040000000B
:10292000101E180078B1020004000000181E1800E4
:10293000EC17040004000000201E180010B902006B
:1029400004000000281E1800B0BE020004000000B1
:10295000301E1800A4E0060004000000381E180015
:10296000A4E4060004000000401E1800D4F3060092
:1029700004000000481E1800BCFA06000400000015
:10298000501E180010FC060004000000581E18001D
:10299000680C070004000000601E180094C10200CB
:1029A00004000000681E18007CC202000400000041
:1029B000701E180028CA020004000000781E1800CB
:1029C000A4B0070004000000801E180028B507000E
:1029D00004000000881E180020BB0700040000004F
:1029E000901E18007CCE020004000000981E180003
:1029F0004CD2060004000000A01E180090D406006F
:102A000004000000A81E18000000000000000000E4
:102A10002DE81FC0AFF31F8101B400B586B0FFB42D
:102A200080EA000000F1010000F063B82DE81FC04B
:102A3000AFF31F8101B400B586B0FFB480EA000097
:102A400000F1020000F055B8F54681B0EE462DE8E1
:102A50001FC0AFF31F8101B400B586B0FFB480EA98
:102A6000000000F1030000F044B8F54682B0EE46E5
:102A70002DE81FC0AFF31F8101B400B586B0FFB4CD
:102A800080EA000000F1040000F033B8F54681B0A0
:102A9000EE462DE81FC0AFF31F8101B400B586B02C
:102AA000FFB480EA000000F1050000F022B8F5460E
:102AB00081B0EE462DE81FC0AFF37F8701B400B5AB
:102AC00086B0FFB480EA000000F1060000F011B803
:102AD000F54681B0EE462DE81FC0AFF37F8701B405
:102AE00000B586B0FFB480EA000000F1070000F0F6
:102AF00000B86C4604F140040ACCEFF300820FB436
:102B0000A4F10C04216003F040016F4607F158075F
:102B100066465D4654464B46424612B0FCB48CB005
:102B2000062802D1402900D061B60A4C2468002C46
:102B3000FED06846A04773B60CB07FBC804689467D
:102B400092469B46A446B6468FB0FFBC08B0BDE98E
:102B500000C00000DCE31D0062B6704764B6704739
:102B600061B6704772B6704772B6704719EE1C1F97
:102B7000044A41EA020109EE1C1F034909EE3C1F09
:102B800070470000010000000000008019EE1D0FDA
:102B9000704715EE100F704716EE100F704715EEC8
:102BA000300F704716EE500F70470000024A116850
:102BB0001060084670470000DCE31D00024A1168FF
:102BC000106008467047000084E41D003A48016820
:102BD0003A4A02EA01023A4941580A68394B03EA83
:102BE00002030F2B00F00580012B03D001F104013B
:102BF000F3E7FEE701F10801334B03EA0203334C2C
:102C0000A342EAD100F046F9804600F053F981462C
:102C100049462F4BCB5800F0EBF87946B14240F1D2
:102C2000028000F093F940462A49086048462A4944
:102C3000086000F0DDF829490D6029490E60294936
:102C40000F603D46284829494FF0000204C08142E8
:102C5000FCD8A5F10405AD46009D6FEA05044FF0D0
:102C6000100365FA03F5AC4240F017804FEA1444B4
:102C70004FEA84041E4D2C606B46A3EB04031D4EEB
:102C80001D4D2E60002C00F008801A4D05EB040647
:102C900080CB80C5AE423FF7FBAF81B068464FEABC
:102CA00010104FEA0010854600F062F8134886467F
:102CB000134C2047FEE7000000000018F8FF00005A
:102CC000FC0000000F00000000FF0F00003E0800A5
:102CD00008040000E4E31D00E8E31D00F4E31D0028
:102CE000F8E31D00FCE31D007CF11D00ACF91D00A4
:102CF00010E41D00D8301F0004E41D00B42C18009F
:102D0000078B180011EE100F20F00100BFF34F8F5A
:102D1000BFF36F8F01EE100FBFF34F8FBFF36F8FB5
:102D2000704700BF11EE100F40F00100BFF34F8F4E
:102D3000BFF36F8F01EE100FBFF34F8FBFF36F8F95
:102D400000BF704700BF2DE90140FFF7DBFF01BC6A
:102D500006EE120F06EE111F42F0010206EE512F91
:102D600006EE913FFFF7DEFF5DF804FB00BF0000B9
:102D70004DF804ED10EE900FC0F30721002900F08C
:102D80001980FFF7BFFF174C80EA00000ECC002926
:102D900000F00B8006EE120F06EE511F06EE112F0B
:102DA00006EE913F00F10100F0E7002800F00280FC
:102DB000FFF7B8FF5DF804FB00BF00BFAFF3008072
:102DC0003F00000000000000050300003700000085
:102DD000000000000F0300000000000000000000E1
:102DE00000000000C02D1800AFF30080AFF300809A
:102DF00041464A681346204C03EA04034FEA131382
:102E00001E4C02EA040216461A441D484FF0000503
:102E100008644B6C1B4C03EA040303F101031A4CD6
:102E20001B4603FB04F31D4400F101009042EFDB5D
:102E3000002D3FF4DEAE154D414632464FF0000600
:102E40000F4808644B6C0F4C03EA040303F10103C1
:102E50000D4C1B4603FB04F31E4400F1010090429D
:102E6000EFDB19EE112F0A4902EA0102A2EB06027A
:102E700005EB020716467047F00000000F00000047
:102E8000000000003F0000000020000000000C00D7
:102E900000F0FFFF0868054A01F1040102EA0002A0
:102EA000052AF7D1024A00EA020070470F0000002D
:102EB00000F0FFFF0868074A01F1040102EA00027E
:102EC000052AF7D1044A1042F4D0044A00EA02006D
:102ED000704700000F0000008000000000F0FFFFBE
:102EE0000C490D4A0D4B0E4C0E4D0F4E0F4F104816
:102EF0008046104881461048824610488346104854
:102F000084461048104886464FF00000B0FBF0F0B1
:102F1000056070470101010102020202030303037D
:102F20000404040405050505060606060707070749
:102F300008080808090909090A0A0A0A0B0B0B0BF9
:102F40000C0C0C0C0D0D0D0D0E0E0E0EFEE7000000
:102F5000004870477CF11D0000487047ECF11D00EF
:102F60000048704714F21D000048704704F21D002D
:102F70000048704774F21D0000487047B8F11D000A
:102F8000074B002282611B681A680AB9586005E085
:102F900019B95A689061586070478261186070472B
:102FA000F4F11D0008B5827A084B42F001028272EA
:102FB0001A6822B153682BB19168984708BD4FF049
:102FC000FF3008BD4FF0FF3008BD00BF8CF21D0080
:102FD000074B1B68186850B15A6890424FF00002C6
:102FE00002D11A605A607047816919608261704726
:102FF000F4F11D00054B1B68186830B182691A6036
:103000001A89013A1A81002383617047C8F11D00B3
:10301000094B1B681A680AB9586005E019B95A6863
:103020001061586001E0026118605A8901325A81CA
:1030300000225B681A617047CCF11D00094B1B68C8
:10304000186868B15A6890425A8903D10021196002
:10305000596001E001691960013A5A810023036156
:10306000704700BFCCF11D0038B5094B1C22002170
:1030700005461C687FF676FF2389226812B96560D1
:10308000256002E06268956165600133238138BD87
:10309000C8F11D0007F0B3BD01232DE9F74F8B40A8
:1030A000B3F5001F28BF4FF40013042B38BF0423CF
:1030B0000330019320F00304FFF74EFF364B00224C
:1030C0001546D3F800B09446134622E0D1F800A08C
:1030D000A2451DD301F10807019E07EB0A08C6F1BE
:1030E0000009C4EB080609EA0606BE4210D3C7EB86
:1030F0000609B9F1070F01D8BE4209D1C4EB0A078E
:103100005F4505D2424635466FB1BB4684460B4605
:10311000084641680029D9D13BB9204A18461168B0
:103120000131116036E084460B46521B111B1029F9
:1031300009D918682A19401A08391860295159689C
:1031400051605A6022461968891A03D15A68CCF82E
:1031500004200CE0072905D8104B00201A68013222
:103160001A6017E05A50A1F108021A605B180C4867
:10317000002219685A6002688A18026009480168CA
:10318000083101608918084A1068814203F108007B
:1031900088BF1160BDE8FE8F2C10180028101800A1
:1031A0004C1018007410180000F21D0038B5194BAF
:1031B000054650F8082CA0F1080419688A1A1A600C
:1031C000154B1A68083A1A60FFF7C6FE02E0A342E0
:1031D00003D218464368002BF9D155F8082CA918DA
:1031E0008B4205D119685B685218083245F8082CE3
:1031F0006360036803F108028218A24207D155F800
:10320000082C9B18083303606368436000E0446047
:10321000002038BD4C1018007410180010B50021A3
:10322000044640227FF69EFE104B2360104B6360E5
:10323000104BA360104BE360104B2361104B636194
:10324000104BA361104BE361104B2362104B636280
:10325000104BA362104BE362104B2363104B63636C
:10326000104BA363104BE36310BD00BF00001800B8
:1032700082631D0088631D00CCE31D00D0E31D00A8
:103280007CF11D007CF11D00ACF91D00ACF91D00A6
:10329000480220004802200070E62000D4001800F8
:1032A00000091800000018000000180070B590B068
:1032B0006846FFF7B3FF2A4D2978002935D10898D1
:1032C000099C241A06D022467FF64CFE0898214617
:1032D00084F6FAFE23492246234801247FF668FE3D
:1032E0000022224B1A702C7084F628FE204B19689D
:1032F00031B10B7823B11F4B2246186805F04DFE03
:103300001D4B196831B10B7823B11A4B0122186893
:1033100005F043FE194B1968F1B10B78E3B1154B79
:103320000122186805F039FE16E0154E317899B97A
:103330000A980B9C241A06D022467FF613FE0A98A0
:10334000214684F6C1FE084822460E497FF630FE2B
:1033500000232B700123337084F6F0FD10B070BD94
:1033600084F21D00584608001F6E1D0010F21D005B
:10337000701018001CF21D0088F21D0080F21D0064
:1033800028F21D000E920800014B1868704700BF1C
:10339000F4E31D00014B1868704700BFF8E31D00FF
:1033A00008B5836A33B10023836280F8203010307F
:1033B00084F6B6FE012008BD38B5034C256800F040
:1033C0005FFD4019206038BD90F21D0070B50124EA
:1033D000FFF7F2FF064612E01B4B1C6809E0E368AA
:1033E0001D4205D025EA030563680BB1A068984724
:1033F00024680DB1002CF2D184F60CFE0446134B68
:1034000018688AF681FD124B1D680540E4D1002C36
:10341000E2D1104D2B6823B11B6813B1586885F6B3
:10342000ABF9FFF7C9FF0C4B5A68921B12185A6090
:103430005A6901325A612B6823B11B6813B15B686A
:10344000002BC5D070BD00BF6C10180034101800E0
:103450004810180060101800D0F11D00024B1A68C7
:1034600001321A60704700BF20F21D00014B18683E
:10347000704700BF20F21D002DE9F04F9DB00AA853
:10348000FFF7CCFEFFF780FF924EDFF8A882DFF84F
:10349000A8A2914F0446FFF77DFF0A9B0B9A0F9954
:1034A000D21A0E9B0D9DC3EB01091199109BCB1AEB
:1034B0000C99C1EB050B93443268D8F8001002F563
:1034C0000052521A4A44D2185A441419DAF80050D9
:1034D000241882480994824C2268AD183A680893EF
:1034E000C5EB020CCDF81CC07FF662FD089B09F508
:1034F0007E710193073103F57E7307330BF57E72FE
:103500009B0A890A073202930823920A00915946BE
:1035100003934B4673487FF64BFD33682068DDF814
:103520001CC03968019000F57E70039303F57E732B
:103530000CF57E760730073301F57E720736800A78
:103540009B0A0732B60A920A0290049363466648C1
:1035500000967FF62DFD099905F57E72073201F57B
:103560007E730733920A9B0A294600934646099BBD
:103570005E487FF61DFD5E4B5E4F5F4819687FF623
:1035800017FD39685D4B0A689A4203D05C487FF6A4
:103590000FFD25E01A910B4604E01568131D5748EE
:1035A000854203D11A461BAB9A42F6D31AAD336853
:1035B00000932B4653481A927FF6FAFC3B681A9AFE
:1035C000E91AD31A50480A4600937FF6F1FC336893
:1035D0001A9A591B9B1A4D480A4600937FF6E8FC3D
:1035E0004B4B1B68C3B11D78CDB15989DD8901FBF7
:1035F00005F61A8938354D4306F57E73073345487D
:103600009B128DE8280005F57E7307339B12029309
:1036100033467FF6CDFC03E01D461E4600E02E46F5
:103620003D4B1A68C2B11378B3B15189D08901FBFF
:1036300000F31289583048432D18019000F57E7030
:1036400003F57E77073007378012BF120290F61815
:10365000324800977FF6ACFC314B1A6852B31378AE
:1036600043B35189D08901FB00F312895830484394
:103670002D18019000F57E7003F57E77073007372F
:103680008012BF120290F618264800977FF690FC31
:103690002368DAF80020991B9B185B1B03F57E70EA
:1036A000073001F57E72800A07320090920A1E48A8
:1036B0007FF67EFC1D4B1D6884F63CFE0446FFF73A
:1036C000D5FE29462246034619487FF671FC1DB0F7
:1036D000BDE8F08F00F21D002C101800526E1D0086
:1036E0004C101800616E1D00A06E1D00E56E1D00DF
:1036F00028101800C4F11D00206F1D004B415453C9
:103700003B6F1D005F6F1D00966F1D00BB6F1D009E
:1037100070101800E16F1D0088F21D000E701D0072
:1037200080F21D0040701D0075701D0038101800DB
:103730009F701D000CF21D007410180008B5714632
:1037400003487FF635FC0120BDE8084000F0AEBB21
:10375000C7701D00084B00211A6802605A68426059
:103760009A688260DA68C2601A6902615A694261C5
:1037700018461C227FF6F6BBD0F11D00014B0360FA
:10378000704700BF98F21D0038B50D460446FFF79C
:10379000E7FB0168034631B105485A687FF608FC2B
:1037A0004FF0FF3038BD80E83000084638BD00BF1C
:1037B000D6701D0010B50C46FFF7D2FB036813B19D
:1037C000406821469847002010BD38B504460D4694
:1037D000FFF7CAFB03681BB980E83000184638BD04
:1037E0004FF0FF3038BD10B50446FFF7BDFB03684E
:1037F00013B1406821469847002010BD38B50446F3
:103800000D46FFF7B5FB03681BB980E8300018468A
:1038100038BD4FF0FF3038BD10B50446FFF7A8FBA8
:10382000036813B1406821469847002010BD38B5A1
:1038300004460D46FFF7A0FB03681BB980E8300083
:10384000184638BD4FF0FF3038BD38B505460C4638
:10385000FFF792FB03681BB1406829462246984750
:10386000002038BD024B1B680BB15860996070474F
:103870008CF21D00034B1B681868D0F1010038BFA3
:1038800000207047F4F11D0010B50446FFF7F2FF69
:1038900018B12046FFF786FB28B120460021BDE87D
:1038A0001040FFF76DBB10BDF8B506460768FFF77F
:1038B000A1FB0546002853D02B4B1B68186805F068
:1038C00026FB044688B984F60FFDB0F5804F08D971
:1038D000264B22464FF4F061186806F07FFF04463D
:1038E00018B92846FFF7C0FB13E07B6C08200021C5
:1038F00023F000436B601E4B2B61FFF7CDFB58B9E3
:103900002846FFF7B1FB194B21460122186806F043
:1039100093FF6FF01A00F8BDB368B7F85020A168A4
:103920000360F3684360B6F90630D21AB388CB1847
:10393000686100212A81A281FA7CA360E274B6F951
:103940000620EB603B6CD31822462B60094B1868AD
:1039500080F64AFC2846A761FFF796FF0020F8BDD5
:103960006FF01500F8BD00BF8CF21D001CF21D00A9
:10397000F139180024F21D0010B50BE0FFF728FB09
:103980000446FFF70FFB28B120460121BDE8104097
:10399000FFF7F6BAFFF76EFF0028EFD010BD00006A
:1039A000034B1B681B680BB1FFF7E6BF704700BFF6
:1039B000F4F11D000D4B70B51C6811E0FFF73EFBE4
:1039C0000646FFF771FF051E0ADA15F1160F14BF40
:1039D0000125022530460121FFF71AFB257270BD33
:1039E0002368002BEAD1237270BD00BFCCF11D000B
:1039F0002DE9F843064640690D4690E89000FFF730
:103A0000D5FB0F4B0021186880F678FB8046A0B1EB
:103A10000023D0F8189083613046FFF725FB24B1CE
:103A2000404649463A462B46A047064B1B681B7A40
:103A30001BB1BDE8F843FFF7BDBFBDE8F88300BF89
:103A400024F21D00CCF11D0070B5164D04462E4623
:103A50002B685B897F2B05D9FFF7ACFF2B685B894F
:103A60007F2B1CD833680F4D1B6893B92046FFF796
:103A70001BFF10F1160F05D098B11B3006D12B6833
:103A8000012201E02B6802221A7202E006487FF64A
:103A90008FFA20460021FFF7BBFA002070BD4FF0DF
:103AA000FF3070BDCCF11D0017711D00034B1B686A
:103AB0001B7A0BB1FFF77EBF704700BFCCF11D0032
:103AC000014B83E803007047F8F11D00034A08B575
:103AD00013680BB15068984708BD00BFF8F11D008E
:103AE00000487047ECF21D0038B504460D46FFF75C
:103AF000F7FF80E8300038BD2DE9F34107460C465A
:103B000084F618FC10B9FFF7A9FC3AE0002620461D
:103B10000DF106016A46ADF8066007F1030800964C
:103B200084F6B8FF009D28F0030840F638034544AA
:103B30009D4226D82DB328463146FFF7ADFA0446FC
:103B4000F8B13146009A7FF60DFA009BA781204616
:103B5000ED1AE218C8EB050802EB0803013DA3606B
:103B6000636862F3140363601B0C65F34F13E38017
:103B700084F6CAFB0123A3702080BDF80630E381E0
:103B800004E0044B00241A6801321A602046BDE8A4
:103B9000FC8100BFE8F21D0038B500210546808990
:103BA000FFF7AAFF044620B18068AA89A9687FF6BA
:103BB00055F9204638BD000038B5058A4268012312
:103BC0000446C2F314028370C38802EB5312836865
:103BD0000132C81CA18100215B0D5B05D218074B87
:103BE0000340D31A04F11000A360E38903F40C53DB
:103BF0002822E3817FF6B6F9258238BDFCFF01005B
:103C000038B50446E389590621D4A278013AD2B2E4
:103C1000A270002A27D1E27862B1134B204653F8F4
:103C20002250E989FFF7C8FF21462846BDE8384001
:103C300005F0A0B9DA0516D40C4B2046A360218804
:103C400084F67EFB2046BDE83840FFF7AFBA074B4D
:103C50002046A3602188A56B84F672FB2046FFF7FF
:103C6000A5FA2C46CEE738BDCCF31D00EFBEADDE85
:103C700038B504461DE0104BA28A1B6853F8225049
:103C80000E4A13682BB100215068A1822146984743
:103C900070B90B4B1B6843B10A4AE1781B6852F8B4
:103CA00021209A4201D1FFF701FF2046FFF7A8FF2C
:103CB0002C46002CDFD138BD20101800ECF21D007E
:103CC0008CF21D00CCF31D00374B70B51C682668C4
:103CD00076B1A3190025A6611D776319187F0135F8
:103CE00084F6ACFEB542F8D10A2084F6A7FE47E080
:103CF000D4F89C00002856D0022184F6FDFD00F087
:103D00000F0001284FD0022802D1204684F600FE81
:103D10000521D4F89C0084F6EFFDC20743D5D4F802
:103D20009C00002184F6E8FDD4F8AC3005461BB1B8
:103D3000D4F8A800E9B298470D2D10D0082D01D075
:103D40007F2D0DD1A369002B2DD0013B0820A3614D
:103D500084F674FE202084F671FE08201FE00A25F8
:103D6000284684F66BFEA6690A2D04EB060305D0EF
:103D700001367F2E1D77A66102D870BD00221A770A
:103D80007F2EA66104D804F11C00314684F62AFE79
:103D900000233E20A361236084F650FE2020BDE86E
:103DA000704084F64BBE70BD781018002C4B70B577
:103DB0001B68002B51D02B4A106800284ED05C693C
:103DC000222C07DDDA69510604D5274A126802F56C
:103DD000C26201E000F5C2620432222C116807DDE4
:103DE000DA69520604D5204A126802F5C26201E07F
:103DF00000F5C2620432126891420AD0222C04DD1E
:103E0000DB69590644BF184B186800F5C2600430DE
:103E10000168164B1868081A20D019601449D1E9B6
:103E20000023121843F100030126C1E90023114BBE
:103E300011491C68D1E90023E4FB00230F48046802
:103E4000203C33FA04F016FA04F4661E002403EA58
:103E500006051443C1E9004570BD184670BD00BF9A
:103E6000341018004010180064101800AC1018002E
:103E7000A0101800DC0F1800B0101800E00F180098
:103E800008B5FEF783FE074B07491A680968801AD0
:103E9000884205D3B0FBF1F001FB00221A6008BD97
:103EA000002008BD08F31D00F00F180010B50446EF
:103EB00084F66AFD0CB100231B60064B00211868D4
:103EC00082F656FE044B1B6803B1984784F65CFDEE
:103ED000FEE700BF34101800901018002DE9FF47CE
:103EE0004B4B0446D8620368042B03D1494B186836
:103EF00089F6A8FD2368062B04D104B0BDE8F0477D
:103F0000FFF764BA444B454E656C1B68F169326833
:103F1000C5EB030A42487FF64BF8A36C0093224698
:103F2000636C4FEA9A0A0193A3680293E3680393D0
:103F30003C48E36C21687FF63BF82368042B07D1EB
:103F4000FEF727FE0746FEF727FE0246364808E042
:103F5000032B09D1FEF723FE0746FEF723FE024698
:103F6000324839467FF624F8E36904F110010093E2
:103F70000027236AB9460193B846636A0293A36A8D
:103F800003932B480EC97FF613F8A36B04F12C01A1
:103F90000093E36B0193236C029326480EC97FF6CE
:103FA00007F8EB680093244895E80E007FF600F8C8
:103FB00005F11001EB69009320480EC97EF6F8FF69
:103FC00018E07A59D3070FD5FF2A0DD91C4B9A4216
:103FD00004D902F16243B3F5801F05D81948394668
:103FE0007EF6E6FF09F101090437B9F10F0F08F178
:103FF000010801D8D045E4D13368002043F4806340
:1040000086E8180004B0BDE8F047FFF74FBF00BFD7
:104010002CF21D0034101800FCE31D0098F21D0066
:1040200050711D0066711D009B711D00AF711D0058
:10403000C3711D00F6711D0025721D0043721D0025
:1040400082631D0061721D002DE9F34198461B4BF0
:104050000D46064614461F681948BF1A7EF6A8FF8B
:1040600031462A46174800252346CDF80080BF0870
:104070007EF69EFFA8462E4617E02A59D1070FD597
:10408000FF2A0DD9104B9A4204D902F16243B3F5CD
:10409000801F05D80D4829467EF68AFF08F10108E1
:1040A00001360435B8F10F0F01D8BE42E5D100202A
:1040B00002B0BDE8F041FFF7F9BE00BFFCE31D0010
:1040C0006D721D0085721D0082631D0061721D00EE
:1040D000014B1868704700BF00E41D008842F0B52E
:1040E0001DD8E2B1F3B10D1A002400E001346D08CF
:1040F000FCD10127013817FA04F6C6F1000C351877
:104100000CEA0505AE198E4205D9013C17FA04F1F7
:104110004D4208180540156000201C60F0BD4FF0AE
:10412000FF30F0BD4FF0FF30F0BD072870B50FD85D
:10413000151F1B2D0CD80126551C16FA05F5013D3F
:1041400015EA010407D1B240FEF7FDFD204670BD1F
:104150004FF0FF3070BD4FF0FF3070BD40F64402AD
:104160004369C3F82021094AC3F8242140F64802D4
:10417000C3F82021064AC3F8242140F64C02C3F8B4
:104180002021044AC3F82421704700BF3C883C88A2
:10419000648864880390039070B504689CB1468974
:1041A0000589AE4211D2256805600D684968A56091
:1041B000E160A38243682360438901332261446044
:1041C0004381002070BD072070BD072070BD08B579
:1041D0000B46104610315A681B89FFF7DDFFC0B24D
:1041E00008BD00F58053DB6ADA0105D5436900F5A7
:1041F0008C50C26AC3F8A82170474FF0FF32436960
:104200001A62C3F89021C3F89821C3F8A42170471B
:104210004FF4807243699A6270470000024B1A683B
:1042200001321A60704700BF98E41D0003685A69A4
:1042300003F58C531B7FC2F8A031704700207047F4
:1042400043691A6842F010021A604FF40062C3F822
:104250002021D3F8242122F08072C3F82421704752
:104260007FB52B4B04460D4604AE0FCB06E90F007D
:1042700004F58C5393F83130002B47D1E5B96369CD
:104280004FF41372C3F82021D3F8242102F0030362
:1042900006EB830353F8103C591C37D0D208534324
:1042A000192205335A43B2F5005F2FD2B2F5806F61
:1042B00004D3D208012501E01D469622636941F628
:1042C000140102F03F00C3F820119209D3F8241121
:1042D000520121F07C5121F4F07142EA0062C3F8EE
:1042E0002411D3F824110A43C3F8242141F61802FB
:1042F000C3F82021D3F8242122F48002C3F824211A
:10430000D3F8242142EA8555C3F824517FBD00BF6C
:1043100088631D00436941F61402C3F82021D3F8D5
:10432000242142F01F02C3F82421704700F5C45332
:10433000F0B55D6A1C24544300F5C6562B19CB60BA
:1043400096F831600EB9184E00E0184EB65C1A6946
:104350004A6017680F6011600A6851605A7D1961E0
:1043600002BB00F5C452926A0CE000F5C65191F808
:104370003170117D0FB90C4F00E00C4F795CB142E8
:1043800005D3126800F5C45128318A42EDD10121CC
:10439000597530215268D9825A60116829511360C9
:1043A0002A595360F0BD00BFA4751D009C751D0007
:1043B00070470020704700F5C4539B6A07E09A6875
:1043C00000E0126803F108018A42FAD11B6800F587
:1043D000C45228329342F2D1002070474369B4227C
:1043E000C3F82021D3F8243103F4E0431B0B032B43
:1043F0009ABF024AD05C0620704700BFD7721D00EA
:1044000000F5C7531A68012A05D198214369C3F8FA
:104410002011C3F82421704770B500F59455044667
:104420000E46A86A02F0EFFA014630B904F5C65408
:10443000A3691A8801321A8070BD04F58A531B6B78
:104440009A680023837043700A20087050684B817B
:104450009368CB60AB6A486020460E819A68D28828
:10446000BDE8704003F0A9B82DE9F04700F5945875
:1044700004469946D8F828000D46164602F0C3FABD
:104480000021182207467EF66DFD01233E8120465D
:104490003B703946D8F828307D81C7F804909A6877
:1044A000D288BDE8F04703F088B82DE9F041069DB9
:1044B00004460E4628461746984602F0A4FA0146DE
:1044C000B0B10E2380F801800370002346600381A1
:1044D0000223878143812046AB68DA882B4603F0AC
:1044E0006CF800280CBF4FF0FF300020BDE8F081D1
:1044F0004FF0FF30BDE8F0812DE9F04700F594580A
:1045000004469946D8F828000E46154602F07BFA74
:104510000021182207467EF625FD0223BE81204693
:104520003B703946D8F828303D81A7F80A909A6840
:10453000D288BDE8F04703F040B8CB6830B51A69BF
:104540000C688A424A6808BF1A6114600C6862608D
:104550001A4652F8084F944207D15A681D681560F0
:104560001D686A6000221C615A7500F5C550002361
:1045700000688B60CB60BDE8304004F0A9BE38B560
:104580000C4649B938BD0C2303FB05430135EDB298
:10459000586A06F01FF900E000252378AB42F2D8F4
:1045A0002046BDE8384006F015B970B50446486CA1
:1045B0000D4608B106F00EF9286C08B106F00AF9AC
:1045C000686D08B106F006F9A86D78B106F002F939
:1045D00004F5C65494F82D60013EF6B284F82D60BF
:1045E00026B9A06AFEF7DCFE84F82C6000236B6518
:1045F0006B642B64AB6570BD70B50C4651B1002582
:104600000D704D830D83FFF7D0FF2369E57784F8A4
:1046100052501D6070BD00000F4B70B599420C46A2
:10462000164612D8022A13D800F58C556B7F13B1A9
:10463000A869FEF7B5FE01232E7721466B7700228D
:10464000A86983F62FFD002070BD6FF01C0070BDBF
:104650006FF01C0070BD00BF8096980000F58C5371
:1046600070B55B6A04460E46CBB11B6843B90CE0DB
:104670000A2084F64DF804F58C535B6A1B6800E051
:104680006525013D01D0002BF2D104F58C521E436B
:104690002046526A1660BDE87040FFF7B9BD70BD94
:1046A00070B500F58C5393F828308B4205460C46C4
:1046B00026D009B9FFF7D4FD022C6B69C3F8A041DD
:1046C0001AD103E00A2084F623F800E00B266B6978
:1046D000D3F8A02102F44072B2F5007F01D0013E70
:1046E000F0D1D3F8A03103F44073B3F5007F03D1C8
:1046F00028460121FFF7B4FD05F58C5585F82840C3
:1047000070BD436970B5D4260446C3F82061D3F860
:1047100024516B0518D5FFF721FD6369C3F82061AB
:104720000221C3F824512046FFF7BAFF4FF47A70F4
:1047300083F6EEFF20460021FFF7B2FF4FF47A70B8
:10474000BDE8704083F6E4BF70BD000010B50446BC
:1047500004F5C6540C487EF62BFC0C48A369198856
:104760007EF626FCA3690A4859887EF621FCA369D7
:10477000084899887EF61CFCA3690748D988BDE8DB
:1047800010407EF615BC00BFDB721D0003731D00D8
:104790001A731D002D731D003E731D0038B544684B
:1047A000054674B1236818224360084621467EF608
:1047B00055FB2B6823606B89013B2C6001206B81CA
:1047C00038BD204638BD2DE9F04100F5C056A2B0F5
:1047D00004460D46D6F8228083F652FE04F5C457EF
:1047E0007B69C3EB08088044C6F8228083F648FE44
:1047F00004F5C25240F684217861C2F8160002A87E
:1048000063698424C3F82011D3F82411C6F82E104C
:1048100040F68821C3F82011D3F82411C6F83210CD
:1048200040F68C21C3F82011D3F82411C6F83610B5
:104830004FF42961C3F82011D3F82411C6F83A10B7
:1048400040F69421C3F82011D3F82411C6F83E1085
:1048500040F69821C3F82011D3F82411C2F80210B1
:1048600040F69C21C3F82011D3F82411C2F8061099
:104870004FF42A61C3F82011D3F82411C2F80A10AA
:1048800040F6A421C3F82011D3F82411C2F80E1069
:1048900040F6A821C3F8201106F11201D3F8243103
:1048A000C2F8123006238022ADF80430ADF806407D
:1048B0007EF6D4FA284601A922467EF6CFFA204693
:1048C00022B0BDE8F0817FB52A3001A97EF636FE20
:1048D000002007B000BD00F5C45370B5064686B091
:1048E0009C6A0CE0A56805E0A86801A92A307EF65C
:1048F00025FE2D6804F108039D42F5D1246806F5D4
:10490000C45328339C42EDD1002006B070BDF0B5F1
:104910001D4687B00023064604931446059300F510
:10492000C6531F6907B98F686B1E9DF8302030464B
:104930009BB2062B98BF082500232946009302F05E
:1049400047FD636823F00043636006F59453DA691A
:1049500042B106F58A521433506993E806000823E1
:1049600004F0FAFE636806F58A560593236806ACE0
:10497000706944F8083D2B4694E8060004F0ECFE0C
:1049800000950023012505932B4601950295049778
:10499000706994E8060004F025FF284607B0F0BDD2
:1049A00000F594532DE9F0439E6A8BB004463046DF
:1049B0000F4602F028F80546002843D004F5A85811
:1049C000D8F800305B68002B3CD0B96818227EF61E
:1049D00045FABB6802A9B5F80C901833BB60BB89D7
:1049E000183BBB810C232B70D8F80000FFF7D6FED4
:1049F000069B6B60B9F1000F19D0049B2046089309
:104A00003946059B0993BDF81C304B4538BF994684
:104A1000AB894B4504F58A5388BFA5F80C90422218
:104A20009B6A009208AA4B449BB2FFF770FFB368E1
:104A30002046DA882946334602F0BFFD04F5B45417
:104A4000002363720BB0BDE8F08308780128F8B545
:104A50000C46174618D08B689868A8B18D6B002655
:104A60000BE06B78A268D088584305F0A4FE0C23B5
:104A700003FB06530136F6B258622B789E42F0D300
:104A80000120AB70E7632070F8BD2DE9F04F0D46B3
:104A9000C98AA1F1020B8FB01FFA8BFBBBF1270F64
:104AA0000646059100F28E8005F10808404609A9E6
:104AB0007EF644FD06F5A853602202FB0BFBD3F8FB
:104AC00014A01AF80B700AEB0B04002F40F0A3801F
:104AD000EB8B302B079340F0A08005F10E0130697D
:104AE0003A4606916978069B8DE808012B7D029372
:104AF000012303F0D1FD8146023000F09080A88BA5
:104B0000C00805F05BFE606428B1A88BC00805F002
:104B100055FE206430B906F5C6539B691A880132E8
:104B20001A807EE0A88BC00805F048FE606500286A
:104B300077D006F5C553A4F85C70186804F0B9FB8B
:104B4000014600286DD08460E06430462A7DFFF77E
:104B5000EDFB0123A26804F12400059963842184FC
:104B6000E98A1180A98B9180E98BD180296A9160B3
:104B7000696AD1600622069904937EF66FF90622CF
:104B800004F12A0041467EF669F92A7D84F8302036
:104B90006A7884F8312019F4007F049B0AF80B30FE
:104BA000079B6786A38684F81E9009D0022319F418
:104BB000807F84F8363003D0638C43F00403638431
:104BC000002700E0052706F59458D8F8280001F0E2
:104BD0001AFF0446D0B1002118227EF6C3F904233F
:104BE000304623706B78637021466B68ED8A636092
:104BF000D8F82830658127819A68D28802F0DDFCD8
:104C000000280CBF4FF0FF30002001E06FF01A00C9
:104C10000FB0BDE8F08F042704E0032702E001276E
:104C200000E0022730462146FFF7BFFCCBE700F546
:104C3000A853F0B58C1E5B696022A4B285B002FB5C
:104C40000434638C5A0605462AD443F0400304F129
:104C5000240704F12A066384214601F0E3FE94F858
:104C60003110228C0097019694F830300293032380
:104C7000286903F011FD638E93B1286994F831100F
:104C800005F5C655228C95F8315094F830300DB1A9
:104C900043F08003029309230097019603F0FCFC84
:104CA000002005B0F0BD002110B50A460446C068DA
:104CB00004F5805488F622FF0023636310BD00686A
:104CC00002F01FBAF8B5436900F5C055044604F573
:104CD000C456DA6C00F5B4531A61D5F812300133BA
:104CE000C5F8123083F6CCFBB061D5F8227083F69C
:104CF000C7FB73694FF480220621FF1A00233F1877
:104D0000C5F82270E06804F58C547361134605F011
:104D10006AF8E36A23F0080343F00103E362012326
:104D200084F83830F8BD000010B50446C068A168AA
:104D300005F0BBFA074A4FF47A7341F64C01B0FB19
:104D4000F3F3B2FBF3F36269C2F82011C2F8243125
:104D500010BD00BF80841E0010B50421044600234E
:104D60004FF0FF32C06889F61BFC0021E0684FF06D
:104D7000FF320B46BDE8104089F612BC38B5044638
:104D8000A9B1A2B1084604F05FF8094B04F59455A7
:104D90001A6801321A6001236A6A0146204602F04D
:104DA00046FD2046696ABDE8384002F064BC38BD63
:104DB0004CF31D002DE9F84300F5A8534FF06009AE
:104DC000154609FB02F95F690646884607EB0904A8
:104DD0002B46144A601C07217EF62AF9666106F507
:104DE000B45600236A1DE371023507F809302284A6
:104DF000AD00F268A26380222377627784F83630B0
:104E000084F83730E377D8F80420AA18E260D8F89D
:104E1000082084F85130AD1884F850302561BDE881
:104E2000F88300BF57731D0083692DE9F041D3F863
:104E3000308004464FF47060D8F8007005F0BEFC76
:104E400004F5A8535861B8B100265037354604F52B
:104E5000A8532A4620465B69414601359B196036B6
:104E60009F601037FFF7A6FF282DF0D104F5C65438
:104E70000023012084F83130BDE8F08100697047DB
:104E800000F58051436910B5CA6A1C6A22404A6322
:104E900002B11A62110618D5D3F8901100F58A52A2
:104EA000D3F8984101F4EE3104F4EE349161D46109
:104EB00009B1C3F89011D2690AB1C3F8982100F57D
:104EC00080535A6B22F080025A6300F58A5300F532
:104ED00080509969426BDB690A4313430CBF002081
:104EE000012010BD436900F58050D3F89C2122F4C5
:104EF000EE32C3F89C21D3F8942122F4EE32C3F8A9
:104F000094215A6A816A22EA01025A62002383626A
:104F1000704700F58052D36A93624369D3F89411C5
:104F200041F4EE31C3F89411D3F89C1141F4EE3101
:104F3000C3F89C11596A926A0A435A62704700008A
:104F4000436910B51A68044642F441721A6000F5CC
:104F5000C7531A6800F5C6530AB9134A08E0022A73
:104F600002D14FF4003203E0012A02D14FF4407223
:104F7000DA61DA6920460D4B134304F58052D3629F
:104F8000936204F58C538022DA62FFF72AF9084B0A
:104F9000204604F588541A6842F400321A60FFF77C
:104FA000B8FF0123237110BD00030200C0000101FE
:104FB00098F21D002DE9F8430446FFF71EF920463C
:104FC000FFF771FEE06888F6D9FF002852D06369C8
:104FD00004F58A55284E20461A6842F004021A60E9
:104FE000FFF7AEFFD6F85C902869C847D6F808806E
:104FF0002869C047B76D2869B84776682869B047FF
:105000006869C8476869C0476869B8476869B04750
:105010006369204604F5C055D3F8A42104F5C456AD
:1050200042F01002C3F8A42104F58C531122DA6275
:10503000FFF7D7F804F5B45301221A7563691A68AB
:1050400042F004021A60D5F81A300133C5F81A305C
:10505000736953B1D5F8227083F612FA7369FF1A97
:1050600000233F18C5F82270736183F609FA04F52E
:10507000C454E061BDE8F883B8FC0700FFF700BF47
:1050800000F5C25310B5D3F81E400134032AC3F80B
:105090001E4003D14369C3F8481110BD042A04BF60
:1050A0004369C3F84C1110BD70B500F59454254AFE
:1050B0000546616BFFF7C9FC216B234A064628466B
:1050C000FFF7C3FCD6F1010638BF0026A16A002213
:1050D000002808BF46F001062846FFF7B6FC05F594
:1050E000955300221968002808BF46F0010628469B
:1050F000FFF7ABFC616A0022002808BF46F00106FA
:105100002846FFF7A2FC94F83930002814BF304637
:1051100046F00100ABB9AB695A6BE261082A01D9CC
:105120000822E261E2693AB1DA6B9B6BA26100226C
:10513000636105F58A539A6205F59455012385F854
:10514000393070BD6D5F1800457F1800FFF728BC2F
:105150002DE9F04F9A468DB09DF858700023044613
:105160000D4616460A9302E0EA5C12B10133B342DF
:10517000FAD1EA5C002A40F03C8203F101084FB109
:105180000533B34200F232820AA805EB080104227B
:105190007DF664FE05F1040B58468D497DF66EFFE1
:1051A000814650B94FB10A9B662B00D1FEE7632BB5
:1051B00040F02282FDF794FEB8E0584685497DF61E
:1051C0005DFF002800F0F281584683497DF656FFC6
:1051D000002800F0EE81584680497DF64FFF0028F8
:1051E00000F0EA8158467E497DF648FF40B904F553
:1051F0008C5117B10A9B0B6134E02846103120E036
:10520000584678497DF63AFF814618B92046FFF79F
:105210009DFAD3E1584674497DF630FFA8B94FB1E5
:105220000A9B022B01D902230A9363690A9AC3F8E5
:10523000A021D6E16369D3F8A0310CA9284641F832
:10524000083D04227DF60AFEDBE1584667497DF6FB
:1052500015FF48B9002F00F0CF810A99204602229D
:10526000FFF7DAF90746CCE1584661497DF606FFBB
:1052700030B9002F00F0C08120460A990122EFE7E3
:1052800058465C497DF6FAFE30B9002F00F0B48133
:1052900020460A990022E3E7584657497DF6EEFE7C
:1052A00068B90026602000FB0640013600F59450E6
:1052B0003C30FFF77EF8052E0A90F3D152E05846B5
:1052C0004E497DF6DBFE814618B92046FEF7B6FF53
:1052D0005EE058464A497DF6D1FE50B904F5B45413
:1052E0002FB10A9B003318BF01232376BAE7237E30
:1052F000A3E7584643497DF6C1FE50B904F5B454BE
:105300002FB10A9B003318BF0123E375AAE7E37DA1
:1053100093E758463C497DF6B1FE814640B90A986C
:10532000D0F1010038BF0020FEF75DFA4F4668E17A
:10533000584636497DF6A2FE002893D05846344997
:105340007DF69CFE88B906460A9004F5A8535B6971
:1053500098199B5D13B1FFF7B6FA0A906036B6F55F
:10536000706FF2D128460AA938E1584629497DF6DE
:1053700085FE814618B92046FFF7ADFA08E0584689
:1053800025497DF67BFE814650B92046FFF713F88C
:105390000CA9042241F8080D28467DF65FFDC5E7FB
:1053A00058461E497DF66AFE002839D1002F00F0CC
:1053B000238104F5B5531F78002F40F0128104F5C6
:1053C000B45401220A991A70E06982F66BFE18E162
:1053D0005E731D0069731D0077731D0083731D00CC
:1053E0008E731D009D731D00A7731D00B1731D00FA
:1053F000C0731D00CD731D00DB731D00E4731D0021
:10540000F3731D0008741D001D741D002F741D0012
:1054100040741D004C741D005A741D0065741D00FD
:1054200058467A497DF62AFE78B904F5B5531A78BC
:10543000012A4FF000097FF479AF04F5B45483F8E2
:105440000090E069FDF7ACFF70E7584670497DF6C3
:1054500015FE8146002859D1002F3DD004F5C055D6
:1054600005F112064946304680227DF67BFD04F5A3
:10547000C450494614300C227DF674FDD5F8220044
:10548000D5F81280D5F81670D5F81A60D5F81E90A8
:1054900008B982F6F5FF04F5C25401904146CDF8F3
:1054A00000903A46D5F826300293D5F82A30039377
:1054B000D4F81A300493D4F81E300593D4F822306F
:1054C0000693D4F826300793D4F816300893334661
:1054D00050487DF66DFD84E008F102039E42C0F065
:1054E0008280832E40F2828002220DF12E0005EB95
:1054F00008017DF6B3FCBDF82E30062B79D120468D
:105500002946FFF760F9CAF800007AE05846424998
:105510007DF6B4FD78B904F58C5327B10A9A81461B
:1055200083F832204BE093F832302B700123B946D8
:10553000CAF800304BE0584638497DF69FFD70B9F7
:1055400004F5C65117B10A9B4B728BE62846093108
:1055500001227DF683FC0123CAF8003051E0584651
:105560002F497DF68BFD40B904F5C6541FB1BDF837
:105570002830E38576E6E38D5FE6584629497DF6D7
:105580007DFD002838D167B104F5C45303F128022A
:105590009B6A934233D104F5C6540A9B84F8313098
:1055A00060E604F5C65494F8313046E64FF005093C
:1055B00004E04FF0060901E04FF007093FB109F59B
:1055C000886909F102090A9B44F8293009E009F5C4
:1055D000886909F10209284604EB890104227DF655
:1055E0003DFC00270DE04FF0FF370AE06FF00D079C
:1055F00007E06FF0010704E06FF0160701E06FF0BD
:105600000F0738460DB0BDE8F08F00BF71741D0064
:10561000765F09007C741D0034751D003F751D0008
:1056200046751D0050751D0000F594532DE9F0439B
:105630008E8991F813909F6A083E8B688DB0B6B240
:1056400008338E8104468B6000F5A6530D4604A9ED
:10565000D86BFFF7A3F8014680B1069BBDF8242064
:1056600096420A93079B0B93DDF8208014D93146AC
:1056700016487DF69DFCBDF824600DE0204607220B
:105680004FF0FF33FEF7F0FEA0682946012205F037
:10569000D3F84FF0FF3015E004F58A530022294675
:1056A0009B6A204600920192F31841229BB202921B
:1056B0000AAA01F09DFE2046414632464B4600971D
:1056C000FEF7F3FE0DB0BDE8F08300BF5C751D0072
:1056D000F8B500F58C5393F831300446002B35D0E3
:1056E00000F58E531B7A002B30D0194E00F58A55E9
:1056F000376D2869B84748BBD6F8A4602869B04719
:1057000020BB6869B84708BB6869B047F0B904F5C1
:105710009453596A8B6B5B6913B1204601F0ABFF60
:1057200004F5955319688B6B5B6913B1204602F041
:10573000CBF920460121FEF791FF04F58E5300229C
:1057400004F58C541A72012384F83930F8BD00BF77
:10575000B8FC070070B504460020FEF744F8204668
:105760000021FEF77DFD04F58C55012304F58E52D2
:1057700085F8313004F5B456137296F83C302BB1ED
:10578000B06BFDF70DFE002386F83C30EB6A204637
:1057900043F0080323F00103EB62FEF722FD2046ED
:1057A000BDE87040FFF794BF38B500F58D5304464F
:1057B0001B685BB31D684DB300221A60EB0701D56F
:1057C000FFF7C8FF002D01DA83F6DAF804F5C752B7
:1057D0001368DBB904F58053596B04F5C65311F413
:1057E000003F04D0022111604FF4003206E011F4B2
:1057F000407F04D0012111604FF44072DA61DA6910
:1058000004F58054024B1343E362A36238BD00BF2A
:10581000C00001010A4600F58C5393F83010FF29AF
:1058200002D0C06805F09BB9C368DB68082B07D9B4
:10583000436919680AB141F4C031196043691B68B2
:105840001046FDF7E9BF4369042270B5C3F8202173
:105850000446D3F82421510735D594220025C3F8F6
:10586000202104F58C56C3F82451FEF7C9FD2046CB
:10587000FEF7E6FC86F839500120FDF7B4FF86F804
:105880003150756320462946FFF7C4FF04F5B45331
:105890001A7D6AB120461D75FEF733FF96F8281071
:1058A000A1F102025142204641EB0201FEF7D8FC71
:1058B000204601F04EFD204602F04FFA204601F04E
:1058C00020FC002070BD4FF0FF3070BD43692DE912
:1058D000F0411A680446910759D55A68D20556D541
:1058E0004FF42862C3F820210322C3F8242100F5D5
:1058F0008C53002283F8382000F5B4531D7D7DB110
:10590000FEF708FD2046FEF729FC2046FEF798FC2E
:105910002046FFF709FA4FF47A7082F6F9FE1DE08F
:1059200004F5C05606214FF480222B46C06804F5CA
:10593000C45704F058FAD6F81630D6F8268001334A
:10594000C6F8163082F69CFDBB69C3EB080880449C
:10595000C6F82680BD6182F693FD786104F58C5609
:105960002046F36A23F00103F362FFF76CFF70B186
:1059700004F58E552A782AB9F06B696882F692FB95
:1059800001232B7004F58C54012384F83930BDE8D1
:10599000F0814269F8B5136804469B073FD500F5CE
:1059A000B453197D00293AD0196911B1D16400228C
:1059B0001A6104F5C05506214FF480220023E068E7
:1059C00004F011FA2046FFF781FF2046FEF709FC9C
:1059D000D5F81E30D5F82A6004F5C4540133C5F853
:1059E0001E3082F64DFDE369F61A3618C5F82A60B6
:1059F0000026E66182F644FD6061D5F81630D5F8E0
:105A000026700133C5F8163082F63AFDA369FF1AF5
:105A10003F18C5F82670A66182F632FD6061F8BDB8
:105A2000426938B5D2F8A4310446D2F8A41119431A
:105A3000C2F8A41100F58C52D56A1D4028D02B075E
:105A400001D5FFF73FF9E80706D504F5B4531B7DF0
:105A500013B92046FFF73AFF290607D504F58C5302
:105A6000DA6A22F0800242F01002DA62EA060AD50F
:105A700004F58C532046DA6A42F0800222F01002CC
:105A8000DA62FFF786FF2046BDE83840FEF7A9BB83
:105A900038BDF8B500F5805500F58C5393F83160AA
:105AA00004466B6B002B50D000F5C652D2691342EE
:105AB00001D0FFF779FE6B6BDB0328D504F5C253E9
:105AC00004F58C55D3F81A200132C3F81A2046B9D0
:105AD00095F831302BB104F5C8535A6801325A6039
:105AE00012E095F839307BB12046FFF7ACFE07464F
:105AF00038B904F58E5633781BB1E86BFDF750FCCE
:105B000037702046FEF76DFB204601F0FAFA04F5E7
:105B100080535B6B5D060ED504F58C5393F83820EB
:105B200032B993F83130012B02D12046FFF7CAF881
:105B30002046FFF73FFA04F580556B6BD80102D57C
:105B40002046FFF76DFF00236B6304F58A55AB69B0
:105B500033B1D90302D5204602F02AFB0023AB6102
:105B600004F58A55EB6943B1DA0305D5204602F006
:105B7000F1FA0023EB6100E0FEE704F58C5393F8A3
:105B8000313033B104F58E531B7A13B12046FFF741
:105B90009FFD04F58A5304F580549969626BDB69B3
:105BA0000A4313430CBF00200120F8BD10B5046860
:105BB0002046FFF748FE04F58E5340B104F58C549F
:105BC00059680022E06BBDE8104082F66BBA18708D
:105BD00010BD0000074B186858B100F58C5393F8BE
:105BE000313013B10121FFF715BE4FF08051FEF7A0
:105BF00035BD704748F31D0000F5A85238B512684E
:105C000000F59453044652689B6A002A2DD09A6B83
:105C10009278012A29D900F58C521268156800F58E
:105C20008A52D26B10689A6891881A691B8B126825
:105C30009A4288BF5B189A1A013992B28A1A92B2B4
:105C4000012A12D9052D10D908280ED92046002185
:105C5000FEF7E2FB04F58A5204F5C6532069116B86
:105C60001A69BDE8384002F02FBD38BD00F5A853D1
:105C70002DE9F047CF89B1F810901B680D46044616
:105C8000596809B9092209E000F5C058D8F80C3064
:105C9000DA89273ABA4206DC002103226B68BDE8A4
:105CA000F047FEF7E1BB184603F031F9064618B994
:105CB000204631460222F1E704F5C652D8F80C30EE
:105CC000DB89283B11699BB219B9994584BF994674
:105CD0002B8204F5A85212685268928A29B104F501
:105CE000C65149698A4228BF0A46914588BF2A821F
:105CF00004F58A52116B09B12046CDE728331663AB
:105D00002946B3812822B0687DF6A8F804F58C52A4
:105D1000012393773FB904F5B45220465372BDE88E
:105D2000F047FFF769BFB36804F5A852283310693C
:105D3000EA694260AA69C360044B0260078103619B
:105D40004461BDE8F047FDF79FBD00BF8B5D1800C3
:105D500038B500F58C539A7F04460AB100229A7731
:105D600004F58A55296B19B1A068002204F064FD7E
:105D700004F5B45304F5A85400210A462963597266
:105D8000E068BDE8384082F68DB938B544690D4603
:105D90001C2204F5A853002118697DF6E3F855B1DB
:105DA00004F5C65320469B69DA880132DA80BDE8E3
:105DB0003840FFF7CDBF04F58A531B6B43B104F5A0
:105DC000B453012220465A72BDE83840FFF714BF91
:105DD00038BD2DE9F84300F5A85391468A1E5B694A
:105DE0000746602192B24A439C18002507F5945853
:105DF0009D54E16CFEF7A1FBD8F8280000F003FEEB
:105E0000064610B3182229467DF6ACF8062338461C
:105E1000337094F8313073702146A36C7360238C17
:105E2000A6F808907381FEF7E7FBD8F828303846CB
:105E300031469A68D28801F0C0FB50B1638C23F0E0
:105E4000100328466384BDE8F8836FF01A00BDE8AC
:105E5000F8834FF0FF30BDE8F88370B50A46098932
:105E60008D1E0346ADB2272D01D9052208E000F5AD
:105E7000A8546026754366697419755D25B90122B9
:105E8000BDE87040FFF7A5BF5268A2642069E268D0
:105E900000681268824202D0608B824205D1628E15
:105EA0001AB9E27F0AB91846EAE7628C42F010029A
:105EB00018466284BDE87040FEF7B9BE2DE9F8438C
:105EC00000F5945700F5A8530646B86A89469046EF
:105ED0005C6900F098FD054608B3A9F1020960234A
:105EE0001FFA89F9002103FB094418227DF63AF8CC
:105EF000082330462B7094F831306B702946A36C20
:105F00006B60238C6B81BB6AA5F808809A68D28885
:105F100001F053FB18B1638C23F020036384BDE8C8
:105F2000F88330B50A4609898C1EA4B2272C01D902
:105F300005220EE000F5A853602552685B6905FB59
:105F400004339A64DC681A6924681268944204D1A4
:105F50000022BDE83040FFF7B1BF5A8C42F020026A
:105F60005A84BDE83040FEF762BE0000F8B500F587
:105F70009453164604465B6B0D469B689F7992FBD3
:105F8000F7F207FB1263002B6CD100F58C539B7F5B
:105F9000012B02D10B78092B64D004F5C253D3F83E
:105FA00022105218C3F8222059E02B78092B0ED06A
:105FB00006D8052B36D0072B39D0032B41D12CE046
:105FC0000D2B1BD0202B37D00B2B3AD109E004F539
:105FD0008C539B7F012B3FD020462946FFF746FE7E
:105FE0003AE004F5A853204629461A68FEF7EFF870
:105FF000002831D0204600210A220AE004F5A653E9
:1060000020462946DA6BFEF7E2F828B32046002145
:106010000B220B46FEF770FA1EE020462946FEF7DB
:1060200034FD19E020462946FFF717FF14E020460B
:106030002946FFF776FF0FE020462946FEF7B8F91C
:106040000AE00021204603220B46FEF755FA0748D6
:10605000294608227DF6F4FBF61BED19B6B2002E98
:10606000A3D101E04FF6FF763046F8BD7F751D00E5
:10607000704710B504468068FFF70BFD38B100216A
:1060800004F11C000A46BDE8104082F60BB8A06877
:10609000BDE81040FEF73DBF10B58469A068FEF76B
:1060A000EFFE38B1A068FEF71DFF2046BDE81040A6
:1060B000FFF7DFBF10BD0000F0B5023985B01E4606
:1060C0000023012915460A9C8769039312D80D48BD
:1060D0007CF6FCFF0B49024628467CF6FFFF48B9D8
:1060E0009DF830300093B8682946324603ABFFF77D
:1060F0002FF801E04FF0FF300CB1039B236005B097
:10610000F0BD00BF8F751D00896903468869194677
:1061100002F02ABA10B54468A068FEF7AFFF204627
:10612000BDE81040FFF7A5BF1346826910B590681F
:106130004A1E0C46142A38D8DFE802F00B0B37371A
:10614000371414371F1F3737323737373737372968
:1061500029009978A4F101035A4242EB030202F0AC
:1061600089F822E0A4F1060C9978DCF1000242EBF8
:106170000C02073302F0E3F817E0A4F1090E1979D5
:10618000DEF1000242EB0E0202F099F80DE0D97840
:10619000A4F114035A4242EB030202F0B0F804E007
:1061A0009978DA789B7902F0F5F8002010BD0A465C
:1061B00081690346886919467FF688BD0A46816968
:1061C00003468869194602F083BA10B54B8C13F068
:1061D00040040DD08B6B5878CB681A684B8B9A4271
:1061E0003CBF8A689288D31A834238BF184610BDD4
:1061F00000F588535B6B1B89C3B100F5C050028A60
:10620000934215D9981A8C8ECB68A04228BF20469D
:106210004A8B1C6894422FBFC2EB04028B689B8898
:10622000C2EB0302904228BF104610BD184610BDB5
:10623000204610BD0022134610B5841804F5A95459
:106240002478194644B9242202FB0303012203F5F2
:10625000A95308461A7004E0013324320A2BECD10A
:10626000FF2040B210BD2423002203FB010303F5ED
:10627000A9531A7070470369428B1B689A4205D371
:10628000994208D3914206D241837047914201D38B
:10629000994200D341837047836BDA685868824221
:1062A00008D00AB99A6800E052689160DA609A787A
:1062B00001329A70704700F5945030B5036B9B6BB8
:1062C0009B699D78587885421C788ABFC5EB040588
:1062D000C5EB00052D18651B012D08DD03EBC0057E
:1062E0000130A042A8BF002069602A72587030BDFA
:1062F00000F5C65393F82420436922B1D3F8E02176
:1063000042F0020203E0D3F8E02122F00202C3F8D7
:10631000E021704730B54589158042680A60C2693E
:106320005A6042F0004281695A60049A19600389F8
:10633000039C13801BB1436963600369236030BD14
:1063400000F58050838CC08C834296BFC0F580706E
:10635000C0EB0300C018704700F5A85043681A68E6
:1063600012B95960196002E05A68916159609A68DF
:1063700001329A6000238B61704700F5A850436892
:10638000186870B15A6890429A6802F1FF329A60B8
:1063900003D100225A601A60704782691A60002394
:1063A000836170470346F0B5C0680688588B864203
:1063B0009C6828BFC0EB0600A58838BFC0EB05006D
:1063C00080B20880E0B19E6B3AB1E788B2FBF7F289
:1063D0007678B24228BF324600E07278904228BFF9
:1063E000104608805E8BE288A0680C883419AC42A5
:1063F000A8BF002402FB06005C830B885A430A8076
:10640000F0BD70B18268D388B1FBF3F149B1036983
:10641000188841189288914202DB00221A60704766
:1064200019607047F0B50B8B0D698C68A688E08801
:10643000B2FBF0F22D68AB4234BFC3EB0507C3EBF0
:1064400006079D4286BF06EB030CC5EB0C05C5EBAA
:10645000030506F1FF3CC5EB0C05BD4238BF2F46D6
:10646000BFB2974208D3A46800FB03409B18B34215
:10647000A8BF00230B83F0BD0020F0BD00F59553AD
:1064800030B5196804468B6B9878002825D00A69C6
:106490000B8B8D68A888126893422ABFA988C3EB2A
:1064A0000201C3EB01019A4288BFC3189A1A01384E
:1064B000801A884228BF084678B104F58C531B68BF
:1064C0001B68042B08D904F58A54E36B1868062866
:1064D00094BF0020012030BD002030BD30B500F554
:1064E0008054A38C5D1C03F58273EDB200EBC300F6
:1064F000A58483680B6083791370808830BDF0B504
:106500009589B2F85470DDF818C0059E079CACF868
:1065100000701FB1D76C7760976C3760D68916F41E
:10652000005F0DD0B2F8506056B1C5F1880601F594
:1065300094512680166C546C751BCE69A91B06E01D
:1065400001F59451898B2180116C546C8839956BBD
:106550001D60D38923F4005380E81200D381F0BD7D
:1065600010B50346A8B18268D088B1FBF0F181B1C3
:1065700058699288DB681C886118914202DB00220E
:106580001A6000E0196003490322BDE81040FEF7DD
:1065900077BD10BD78563412F8B517469A68127850
:1065A000432A04460E46069D21D0462A19D00E2ABB
:1065B0003FD100F594539B6A9B6B9878002849D093
:1065C00004F5A65304F5C654DB6B586810B90123D3
:1065D0002372F8BD0023052023721F4B2B60042378
:1065E00030E0FFF74BFF002834D01C4B1DE000F5D6
:1065F0009454616A0B8B0A698868126893422CBFB5
:106600008488C3EB0204808828BFC3EB04049A4249
:1066100088BFC3189A1A0138801AA04228BF2046A2
:10662000C0B18B6B9878A8B10D4B2B600720052368
:1066300008E080681946012204F0FEF800230120DA
:106640002B60F8BD9E4204D3874234BF0020012056
:10665000F8BD0020F8BD00BF29561800137C1800B3
:10666000B378180000F58C5380685A6901325A617A
:10667000012204F0E1B870B500F58C5393F8313085
:10668000002B4CD100F5A8531C7F002C47D100F5FE
:10669000C4539B6A33E000221A769A6819E0916825
:1066A000CD682E684D8BAE4203D314BF0025012563
:1066B00007E08E68B688C5EB060CDCF1000545EBFB
:1066C0000C052DB94D8C45F002054D84012119763C
:1066D000126803F108018A42E1D15CB9DA8A2F2AF3
:1066E0000AD8197E41B1023292B2312ADA8203D13C
:1066F000302200E00422DA821A7E1B68144300F57F
:10670000C45228329342C6D14CB100F5A854217F1F
:1067100029B9A0690A4681F6C5FC0123237770BD1B
:106720002DE9F843B1F81A80571E8B689E8808EB54
:10673000070393FBF6F90C4606FB1939486D15461D
:106740001FFA89F949467DF603FBA8B1A26D32F81C
:106750001930590410D5012D0DD0A91E884498FB7D
:10676000F6F106FB11881FFA88F832F818209A42D1
:1067700002D0BDB200E000252846BDE8F8832DE92F
:10678000F0410446618B406C7DF6E2FA002850D05F
:10679000E368678B1B68BB4202D3C7EB030805E0C5
:1067A000A268B2F80480C7EB080898441FFA88F87A
:1067B00000263BE0F519A3689B8895FBF3F1206C5C
:1067C00003FB11517DF6C4FA90B1A3689B8895FB39
:1067D000F3F1606C03FB11517DF6BAFA40B9A3687E
:1067E0009B8895FBF3F203FB12556583BDE8F081AE
:1067F000A3689B8895FBF3F1206C03FB11517DF698
:10680000A7FA90B1A3689B8895FBF3F1606C03FB3A
:1068100011517DF69DFA40B1628B0132A3689B88CD
:1068200092FBF3F103FB112363830136B3B24345BB
:10683000C0D3BDE8F08173B51E4600238C681546B1
:10684000ADF806304A6824F07F4323F46003C2F3B6
:1068500014029B1A072B3FDDA4F108038B608B8980
:1068600008338B8102238B74052304F8083C06232C
:1068700004F8073C95F83620500718D5069B1BB145
:10688000D90E01F00F0100E0194641F0020123F09A
:10689000F04343EAC163069395F83730013BDBB21E
:1068A00085F837301BB922F0040285F83620686D70
:1068B00031467DF64DFA20B1AB6D33F81630ADF8A8
:1068C000063006A90422A01F7CF6C8FAA01E0DF10E
:1068D000060102227CF6C2FA7CBD2DE9F04389B0A4
:1068E000984604AC002305460693B8F1070F8CBF09
:1068F00047460827079300F58C5384E8060093F871
:106900003130DDF84090002B3CD100F5C65393F8B0
:10691000242022B9012283F82420FFF7E9FC05F5A1
:106920008A5608ACF36A44F8089D4BB1119B069354
:106930000823306994E8060002F00EFFCDF81890A5
:1069400094E806003B46306902F006FF05F58A52DE
:106950000123009701930293106904AA06CA02F06A
:1069600041FF05F58052D38C591C03F58273C9B2DF
:1069700005EBC3059DF84C30D184AB71129BA5F893
:106980000480AB6009B0BDE8F0832DE9F0410668F2
:1069900006F5C4539D6A25E0AC681EE0A768B86D93
:1069A000D0B1B7F85C80B8F1000F12D103F012FF3C
:1069B00006F5C653C7F8588093F82D20013A414692
:1069C00083F82D20BB689A88786DD2087CF6CAFAC5
:1069D00002E00023A7F85C30246805F108039C421C
:1069E000DCD12D6806F5C45328339D42D4D106F579
:1069F000C65696F82D4024B9B06AFCF7D1FC86F84B
:106A00002C40BDE8F081826BD36843B100219868C7
:106A100099601B68D3609378013B93707047184668
:106A2000704700002DE9F34705460C46FFF702FCCE
:106A3000071EC0F29980A36B9B78002B00F08D801D
:106A40002423628B284603FB0753214603F5A953F1
:106A500000265A80FFF7B9FB1FFA80F80FE0628B1F
:106A60009219A3689B8892FBF3F1606C03FB1121E0
:106A70007DF66EF910B11FFA86F802E00136464540
:106A8000EDDBB8F1000F68D0284621464246FFF7FB
:106A900047FE002861D0A3680DF10601DA88424361
:106AA000204692B2FFF77EFC8246002855D0204651
:106AB000BDF80660A368DB88B6FBF3F6FFF7A3FF1B
:106AC0004FF0240808FB07F805EB080707F5A95362
:106AD00059888A19013AA3689B8892FBF3FE03FB4D
:106AE0001E22013B8146206C02F0A6FBB9F1000F8B
:106AF0002DD007F5A853BDF8062007F5AA571A862A
:106B000008F5A850A2682830C3F834902818D26835
:106B1000DA62174A9A6308F5A952AA18C3F828A09E
:106B2000DA6300225C6283F832203A60FCF7ACFE44
:106B300005F5B45394F82020023A05F5C0551A72B1
:106B4000E37FF318E3772B8AF3182B8201E0ADF88B
:106B500006902046FFF713FE07E02046FFF70FFEE2
:106B60002846F9B2FFF77FFB00263046BDE8FC87D8
:106B70005B801800CB680A6910B51B6812689342E5
:106B800002D04A8B93421BD14B8E002B18D1CB7F66
:106B9000002B15D14C8C24F040042404240C14F058
:106BA00020024C8405D0098C1A46BDE81040FFF73E
:106BB00085B9E30608D5098CBDE81040FFF709B98F
:106BC000BDE81040FFF72EBF10BD2DE9F843BDF81A
:106BD0002060144600F5A8529F1E60235269BFB280
:106BE000054603FB07277B8E00F5B452013B506A34
:106BF0009BB201387B8650623A69B2F8008019BBBB
:106C000097F85290B9F1000F1ED1A0451CD1386CF5
:106C100041467DF647F8786C41467DF643F8786D3D
:106C200041467DF63FF8BB6D0BB123F8189008F193
:106C30000108BB689B8898FBF3F2002403FB1283D6
:106C40003A699BB2136091E07A8C50063AD40139CC
:106C5000012937D80BB9FB7F13B142F080027A8447
:106C600038462146FFF707FBF2047DD5BB6DCBB953
:106C7000BB689888400003F0A1FD05F5C658B865CB
:106C800098F82D30013388F82D3098F82C304BB916
:106C9000D8F82800B8F82E10012281F603FA012353
:106CA00088F82C30BB6D002B5ED0786D21467DF6C8
:106CB00089FCB7F85C300133A7F85C30BB6D23F872
:106CC000146051E0786C21467DF642F800284BD1E3
:106CD000386C21467DF632F80646002844D1786C9F
:106CE00021467DF66FFC786D21467CF6DBFFBB6D9F
:106CF0000BB123F814604FF000091DE009EB080602
:106D000096FBF3F1786C03FB11617DF621F8B8B1C5
:106D1000BB689B8896FBF3F1786C09F1010903FBD2
:106D200011617CF6BFFFBB689B8896FBF3F1386C62
:106D300003FB11617CF6B6FFBB689B889945DDDBE0
:106D4000C844BB689A8898FBF2F302FB13833A6944
:106D5000A34213604FF0000403D0012387F85230A0
:106D600004E087F8524001E06FF018047B8E2BB9E5
:106D7000FB7F1BB97B8C23F080037B847B8C03F42B
:106D8000A073402B03D128463946FFF7F3FE28466F
:106D9000FFF771FC2046BDE8F88300002DE9F04FB5
:106DA0008E8A91F816B098464FF0600900F5A85306
:106DB00009FB08F900F588525B6985B0A9F1C009A3
:106DC000BDF8387005469944506B4B6803930291A7
:106DD00002F09DF80299039B0446B0B9B9F832302D
:106DE00001330221A9F8323005F5B4535A6A013251
:106DF0005A6243460090284605F58C553A46FFF7FF
:106E0000E4FE2B6901332B6198E0826802F1E00017
:106E1000A060A089E038A0818868C2F8E000C86856
:106E2000C2F8E4000869C2F8E800888AA2F8EC0019
:106E3000CA6AA36312F0010A18BF4FF0005A4FEA62
:106E40008B32012302F4403284F83C30E38923F092
:106E50000703A26143EA5B1B0E22A4F80EB0A281D5
:106E60004B78E3744B6A43F0004363640B6A23641A
:106E70004B8DA4F83E80A4F85230A4F85030B9F8F5
:106E800032300133A9F8323005F5B453A4F8567006
:106E90005A6A01325A620B8D3BB1CB69E3648B694C
:106EA000A364098DA4F8541001E0A4F85430E389D8
:106EB00043F48043E38105F5C6535A7A52B1DA6848
:106EC0002146A8680132DA60012205B0BDE8F04F22
:106ED00003F0B2BC99F836305B0708D4D9F85400F7
:106EE00039467CF635FF10B9BAF1000F07D02846B5
:106EF00021464A463B46CDF800A0FFF79CFC330AEA
:106F000043EA06260F4B36B29E4208D100232146A3
:106F1000E382286905B0BDE8F04F01F015BC05F526
:106F20008C55AB681BB12088D882AC6001E0AC60A6
:106F30006C600022E2822B7B01332B7305B0BDE82D
:106F4000F08F00BF8E88FFFF2DE9FF410668002209
:106F500006F5A8531A7706F58C5393F83130002BB9
:106F600079D106F5C4534FF001089D6A65E02B7E88
:106F7000002B61D02B691F6805F108039F4254D094
:106F8000BC68638E2BB9E37F1BB9638C23F080034D
:106F90006384638C1A0648D45807EA8AA28636D5D9
:106FA000990742D594F8363003F00303022B3CD105
:106FB00006F5C65292F83120012A94F8303004F1D7
:106FC000240094F8311004BF244AD35CA27F0090BF
:106FD00004F12A00029307230190306901F05CFB61
:106FE00010F0FF0F06D094F8363043F0010384F818
:106FF00036301AE00123A38694F83730013384F841
:10700000373094F8363043F0040384F83630638C1C
:107010009A070AD530462146FFF704FD804600B1A5
:107020002F61638C23F0020363842B699F4203D09A
:107030003F68B8F1000F9FD12D6806F5C45328337F
:107040009D4202D0B8F1000F91D1304604B0BDE8A6
:10705000F041FFF710BB04B0BDE8F08194751D004E
:107060002DE9F04100F58C5393F8313088B0054696
:107070000C46002B3DD1E3681A68638B9A4203D318
:1070800014BF0026012605E0A2689688F11A4E4238
:1070900046EB0106002E2CD105F58A577B6B1B6849
:1070A000032B2AD9A36B9B783BB320460DF11E011D
:1070B0003246FFF777F98046E8B12046FFF7A3FC98
:1070C000D8B105F5A8531A890132CDF814801A8178
:1070D000A368DB6800902846FA6801923F22069375
:1070E000BDF81E30039205AA029406CAFFF7F5FB0D
:1070F000C1E7002002E0304600E0012008B0BDE812
:10710000F08138B500F5945595F8383004464BB900
:10711000FDF7CAFFD8B92046FDF786FEB8B10123B6
:1071200085F8383004F58C55AB7F2BB904F59453B2
:107130002046596BFFF794FFAB7F43B904F5945396
:107140002046196BFFF78CFF2046FFF794FA0020CA
:1071500038BD2DE9F347824600F59450076BB86BB4
:107160008469002058601860A6786578AE4294F86B
:10717000009004D8A81B454245EB000506E0C6EB8D
:1071800009004519D5F1010538BF00256DBB04EB99
:10719000C606307AD6F8048038B3B8F1000F24D090
:1071A0000138DDF828C0D7F808E0BEF806E0CDF8D1
:1071B00000C000FB0E80DDF82CC0CDF804C0FFF746
:1071C000A9F8337A013BDBB233728BB938464146BA
:1071D000FFF762F85046FFF794FFA37801334B4561
:1071E000B8BF1D460020A57003E04FF0FF3000E05F
:1071F0002846BDE8FC8770B5158A0C4616468DB941
:1072000001F0B8FD40B904F5C6544FF0FF30A36952
:107210005A8801325A8070BD0388C3F30B03284695
:10722000338270BD002070BDF0B51D46138A89B051
:107230000F4614462BB92DB101F09CFD064610B93E
:107240003FE000252E46E3899B0406D5002D36D06D
:107250003388C3F30B0323822FE004AB384600933B
:107260000DF11E0306A9019307AA02ABFFF771FFF8
:1072700028B135B32EB3304601F0B6FD21E01DB183
:107280003388C3F30B032382039B6364029B88331D
:107290002364BDF81C30883BA4F85230069BA363DE
:1072A000BDF81E30A4F854301BB1059BE364049B69
:1072B000A364E38943F40053E381002003E02846FC
:1072C00001E04FF0FF3009B0F0BD2DE9F04301F5CA
:1072D0008C5393F8313087B004460E46002B33D1DF
:1072E00001F58A570589436815F0030F059325F0CA
:1072F000030503680846049318BF0435BB6BADB2A1
:10730000D3F800907B6BD3F80080FFF719F8B9F140
:10731000020F19D9B8F1030F16D9012814DD21463F
:107320003046FFF719F8E36800930024FB68304605
:10733000019344230294039306AB13E906002B4602
:10734000FFF7CBFA204601E04FF0FF3007B0BDE871
:10735000F08310B50446FFF710F8C0B104F58C5364
:1073600093F8313023B104F5C85423680133236006
:10737000837A13F0020103D023F002030121837208
:10738000837A23F001038372036903B1984710BD28
:10739000442908B501D1FFF7DCFF002008BD30B556
:1073A00000F58E535D8A1C8AA5420A4609D3CB8913
:1073B00023F4804380680022CB81BDE8304003F095
:1073C0003BBA03F10C000021BDE830407CF60CBF55
:1073D00030B5B0F82058EC1C013500EBC404EDB218
:1073E000E371039BA180A271A360C0F8205830BD57
:1073F0002DE9F04F174685B0BDF83C60721E9DF830
:1074000040B01D4692B2062A98BF08266A1E002385
:1074100092B2062A98BF082505EB060804461FFA13
:1074200088F85A4689464146029303930093DDF853
:1074300038A0FFF7CDFF04F59453DA695AB1BBF1D8
:10744000430F08D004F58A521433506993E80600BC
:10745000082302F081F99EB1DAF80430DAF800204E
:1074600023F000430393CAF8043004AB43F8082D1B
:1074700004F58A52506993E80600334602F06CF92D
:1074800085B17B683A6823F0004303937B6004ABCB
:1074900043F8082D04F58A52506993E806002B46FC
:1074A00002F05AF9B9F80C30434508D2B8F1080F88
:1074B00005D1A06849467DF627F8A9F80C8004F5A7
:1074C0008A54054B4946012260699B6A984701200E
:1074D00005B0BDE8F08F00BFB8FC07002DE9F0470C
:1074E00086B0994600238846049306460E991746AF
:1074F00005930B7F0BB91D4601E00123082598F881
:107500000020009130464946FFF762FF7B6823F078
:1075100000437B6006F59453DA6942B106F58A525E
:107520001433506993E80600082302F015F97B68CC
:1075300006AC059306F58A563B68C5EB090AEB18BD
:10754000706944F8083D534694E8060002F004F9D7
:10755000C5B13B68012704932B4694E80600706987
:1075600002F0FAF8002305EB0802CDF800A001971D
:10757000029305930492706994E8060002F032F9D0
:10758000B8B90BE00123CDF8009001930293059563
:10759000CDF81080706994E8060008E000953B463D
:1075A00001900297CDF81080706994E8060002F00F
:1075B00019F9012006B0BDE8F0872DE9F0431C461B
:1075C00094F81D80002385B0054602930E46039370
:1075D000174600F58C5393F831305BB100F58E53AC
:1075E00093F80890B9F1000F04D10120FCF75EFC7C
:1075F00048463DE0284621463A46FEF713FF0290F2
:10760000002835D0A36828F07F02DB680393B378A5
:1076100003F07F031343B3703378102B0CD0122B7D
:107620000AD005F5C652FD21D36BB3FBF1F001FB87
:10763000103101337161D3633B462846314602AABB
:107640000094FFF74BFF3378102B08D0122B06D095
:1076500005F5C255D5F826300133C5F82630238B01
:107660002BB96FEA080828F07F0884F81D800120F4
:1076700005B0BDE8F08370B58D6B06460B466A69B0
:10768000002A33D000F5B454617A012901D1A175E3
:1076900070BD00F58A51C96B096803290DD900F541
:1076A0008C5109680968022907D99968C9884A4331
:1076B000296992B2FFF781FF10B90123A37570BD4C
:1076C00006F5C256D6F82E30D6F82A200133C6F871
:1076D0002E306B699A18C6F82A20D6F82620D318BF
:1076E000C6F8263000236B612B61A37570BD2DE9B0
:1076F000F34700F5B45306460D468C6B8DE02769C1
:107700003FB92846FFF77FF92061002800F08D80FF
:107710006761626906F5B458AB68DB88D4F810A0DD
:1077200002FB03F9D8F82C30D8F830200AEB09070F
:10773000934205D10022C8F83020C8F82C2008E078
:1077400018680193C0F30B3001F07EFB019BC8F871
:107750002C0006F5B4521846916A013991626269AB
:107760000132626112220AF8092000227A61BA61AC
:107770003A817A81DA7802F00802D2B2002A14BF84
:10778000022201227A82BA78697F02F07F0221F018
:107790007F010A43BA70DA78C2F302027A705A683B
:1077A0007A601A89C2F389123A825A89FA811A7A5E
:1077B00002F03F029200BA8101F016FB2A692B8B7E
:1077C000A9684FF0FD0C126893422CBF8888C3EB68
:1077D0000200898828BFC3EB00009A4288BFCB18FB
:1077E0009A1A63780139984228BF18468A1A90423B
:1077F00038BF024606F5C650416BB1FBFCF30CFBEB
:1078000013130131FB6163694163934207D330462F
:107810002946FFF730FF06F5B4539B7D2BB906F5DB
:10782000B453DB6A002B7FF46AAFBDE8FC87F8B580
:1078300004461646084600252EE0C2781309D907EB
:107840000ED543F0020363F3071204F5B45330334B
:10785000C2701B6813B31A686FF317321A601DE009
:1078600007685A07C7F30B3711D504F5B45202F174
:107870003003D16A09B9D06206E01A68B0F800E0B6
:1078800011686EF3173111601860013501E001F0E5
:10789000ABFA384601F0D8FA0028CED104F5B4533B
:1078A000204631469A6AAD189D62BDE8F840FFF760
:1078B0001EBF2DE9F04791F813A08F7C00238EB0F6
:1078C0008A6806460B930C46ADF832300832ADF8A4
:1078D00034300793089309930A93ADF836308B89B7
:1078E000083B8A609BB28B8127B1BF00D219DB1B9A
:1078F0008A608B81E3899804B4F80C8016D5B4F8BB
:107900005030984409AB04AD00930DAB2846019369
:107910000DF132033146029322460BABFEF7EFFD29
:1079200007AB95E8030083E803001AE006F59453DB
:107930009B8BADF8323009AB0DF1360200930DABE5
:10794000304601930BA907ABFFF703FC079A238A84
:107950003AB133B901F00EFA60B10388C3F30B03F7
:107960002382079B33B10023208A238201F06CFA23
:10797000054628B9B0682146012202F05DFF62E0A9
:1079800006F5B453B4F80E901B7E2BB9072F07D918
:10799000BDF83430BB4203D20023ADF8343007E0E9
:1079A000A368ADF83470DB1BA360A389FB18A38127
:1079B00006F5945330462146DA69A389D31809AAFB
:1079C0009BB20092BDF8342001924322029207AA92
:1079D000FFF70EFD20B9B0682146012202F02CFF0E
:1079E000EA78C2F3031303F00E0343F0040363F3D6
:1079F000071203F00203EA70BDF834100B9A8908ED
:107A00006A602A7A61F3050219F4004F2A72BDF800
:107A100032102A8961F38F12A5F80A802A81EA7848
:107A20006AF30202EA70D2B2E189C1F3C01161F3D4
:107A3000C302EA7000D033B106F5945230462946AD
:107A4000526AFFF7F4FE00200EB0BDE8F08770B573
:107A5000CB8913F4007605460C4610D013F480430E
:107A600030D08B68A3F108028A608A8908328A8143
:107A7000462203F8082CFFF792FC012322E0088A33
:107A8000F8B101F0E1F9C3781B0913F001030146D5
:107A900018D02682C278C2F3031303F00A0363F3FB
:107AA000071203F00203C270B4F90E20002A00DAB4
:107AB00043B105F594522846526AFFF7B8FE0023F9
:107AC00000E00346184670BD70B58D6B06460B4648
:107AD0006A69002A33D000F5B454617A012901D1D2
:107AE000617570BD00F58A51C96B096803290DD90C
:107AF00000F58C5109680968022907D99968C98875
:107B00004A43296992B2FFF758FD10B90123637502
:107B100070BD06F5C256D6F83630D6F8322001339D
:107B2000C6F836306B699A18C6F83220D6F8262087
:107B3000D318C6F8263000236B612B61637570BDC6
:107B40002DE9F74FBDF83080BDF834900E9E044605
:107B500015469A46B76B8B46002957D03B6943B907
:107B600030460193FEF74FFF019B386100284DD04E
:107B70007B617869B368DA883969424301308B18D0
:107B8000786110205D7088549A78717F02F07F02CE
:107B900021F07F010A43A3F80C90FD219A70002286
:107BA000A3F80E801A8104F5C652C3F804B0A3F8F6
:107BB0000AA0906BB0FBF1F501FB1501D960936B46
:107BC000B16801339363338B3269126893422CBFDF
:107BD0008888C3EB0200898828BFC3EB00009A4263
:107BE00088BFCB189A1A7B780139984228BF18466B
:107BF0008A1A7B69904238BF0246934206D32046D8
:107C0000314603B0BDE8F04FFFF75EBF03B0BDE8FB
:107C1000F08F2DE9F04F00230C46A68989B094F827
:107C200054708968083E06930546ADF81E30B6B21A
:107C300001F10803A681A3601FB1A36C0493E36C58
:107C4000059394F83D301A072CD523F00803012E34
:107C500084F83D3002D10B7B069323E0092E21D915
:107C60000E31042206A87BF6F9F8069BDB0E03F022
:107C70000F030693013B012B14D8A16802220DF1DA
:107C80001E000A317BF6EAF8BDF81E305A0B12F0DE
:107C900001021BBF43F4805323F40053ADF81E20B0
:107CA000ADF81E30E389DDF8188023F48043B4F882
:107CB0003E90B4F856202846E3814146BDF81E3078
:107CC00000934B4694F813B0D4F838A0FEF77DFF2C
:107CD00028B1A8682146002202F0AEFD39E0049BDD
:107CE00013B10EB1B74203D2A8682146002220E0AA
:107CF000E38913F4007703D023F400730127E381B1
:107D000004AB0022009305F58A53284621469B6A5E
:107D1000F3189BB20193462302931346FFF768FBC7
:107D200002461FB1E38943F40073E3811AB9A868DE
:107D3000214602F081FD1FFA88F328468DE84800AD
:107D400005F5955351465A461B6802934B46FFF77B
:107D5000F7FE002009B0BDE8F08F2DE9FF4100F5E6
:107D60008C5393F831300446002B62D100F5B455A2
:107D70006B7A012B04D1FDF73FFF6B7A002B58D1B2
:107D8000AB7D012B05D104F594532046596AFFF7CA
:107D900072FC04F5B4535B7D012B05D104F59553BA
:107DA00020461968FFF790FE04F594532046596A5F
:107DB000FFF79DFC04F58E535B8A33BB39E004F575
:107DC0008E560C36304600217CF698F90546002880
:107DD00029D003AB4146009320463A462B46FEF796
:107DE000DBFB014620B930462A467CF61DFA1AE034
:107DF000039B13B120462946984704F5B453597A9A
:107E00009A7D0A435B7D13430DD104F58C531B68A7
:107E1000D3F8008004F58A53B8F1030FDB6B1F68B9
:107E200001D9042FCBD804F594532046596AFFF7A3
:107E300022FCBDE8FF810000F8B500F58C5393F8F3
:107E4000313005460E46144613B10121FDF7E2FC20
:107E5000B3681B78432B38D0832B02D00E2B52D122
:107E600026E0A368DF88384602F0A5FC044630B956
:107E700005F5C655AB691A8801321A80F8BDB1689C
:107E80003A467AF6EBFFA8683146012202F0D4FCAC
:107E900005F59453284621463A469B6AFFF78DFB29
:107EA0000546002831D1204602F094FC2846F8BD52
:107EB00028463146FFF773FA05F5B453587A01287E
:107EC00024D02846FFF749FF1DE005F58C5393F8B1
:107ED000312052B15A6B0132022A5A6305D9A8687F
:107EE0003146012202F0A8FC09E0094BB28A28467B
:107EF00031461B6853F822301BB1FEF7B3FB00205C
:107F0000F8BDFFF74CFA0120F8BD0120F8BD00BF15
:107F10002010180010B500F58C5393F831400A4634
:107F200044B193F832302BB18068012202F084FC16
:107F3000002010BD00F5945311465A6ABDE8104068
:107F4000FFF77ABF38B500F59453044604F588541A
:107F50001B6B9B689B7992FBF3F200F5C253D3F83D
:107F600022505519D2B2C3F82250FEF7A4F9A06BE3
:107F700000F0B2FF002038BD2DE9F0431C469B689D
:107F800093F8069000F5C2538846164692FBF9F125
:107F9000D3F8222085B00546BDF830708A18C3F8A2
:107FA00022204AE0638C58062DD52846FEF766FA53
:107FB000002832D0638C43F4807328466384638E38
:107FC00001330621638605F5B4535A6A01325A62B9
:107FD0000022238C00923A46FEF7F7FD70B9062185
:107FE000238C019098F80120009105F595512846C1
:107FF00009680291D8F80410FFF7A2FD638C23F4FE
:10800000807363840DE0190607D4238C284641460B
:108010004A460097FEF7C2FE03E020463946FEF7C7
:108020002AF90137A3689B8897FBF3F2C9EB060690
:1080300003FB1277B6B2C844BFB2002EB2D105F529
:108040008C54616829B1286900F07EFB2673A66014
:108050006660002005B0BDE8F08373B5446905464D
:1080600063685E6931B90289618830460091E968C8
:10807000FFF782FF6068E968FEF70EF963682989F7
:108080009A68D288B1FBF2F2D97F8A1ADA77288906
:10809000636806F5C0529968C988B0FBF1F1108A8F
:1080A000411A11825A8E2AB9DA7F1AB95A8C22F0F3
:1080B00080025A8461783046FEF7D5F861684B8CAF
:1080C00003F4A073402B05D1304602B0BDE87040E8
:1080D000FEF750BD02B070BDF8B5D0F81C380546AB
:1080E0000E46DA1C013300EBC202DBB2141DC0F8ED
:1080F0001C38A3785F060ED5472B05D114490322FF
:10810000FCF7BEFF012720E0422B1DD08068002233
:1081100002F092FB18E060689188FEF721FAE77898
:1081200017F00107606805D0A6F10801FEF7B4F862
:10813000012702E03146FEF7AFF8A3780C2B04D1FB
:108140002846FDF705FE00E000273846F8BD00BFD1
:1081500078563412F8B50446144D04F58A520021BD
:108160002F46EB6F506998470028F5D10FE029465C
:108170002046FFF7B1FF054648B104E004F58A53F5
:1081800002215869B047013DEDB2FF2DF6D104F54B
:108190008A53FE6B02215869B04705460028E6D194
:1081A0002046FFF7DAFD2846F8BD00BFB8FC0700FF
:1081B0002DE9FF4104462E4D04F58A520221A846BE
:1081C000EB6B106998470028F5D104F58A56D8F86A
:1081D0007C30002130699847054600282CD0F36890
:1081E0009842F2D002A920460DF10F02FEF776F96F
:1081F0009DF80F1011F0400F029B064606D0009329
:1082000020462A463346FFF7C3F8DEE7DF6B2946F0
:1082100032462046B84702983146FEF7F2F80298F7
:10822000836B9B6913B92946FEF736F804F5A8530A
:108230001A89013A1A81C8E72046FFF78EFDFBF73D
:10824000AFFB2046FEF75DFF04F58053DA8C9B8C74
:108250009A4209D104F5C65393F8242022B183F839
:1082600024502046FEF744F8002004B0BDE8F08119
:10827000B8FC070000F5C45370B59D6A19E0AB68FF
:1082800012E09C68A67F8E420DD1668C12B946F032
:10829000040601E026F00406668494F8366026F0B1
:1082A000010684F836601B6805F10804A342E8D192
:1082B0002D6800F5C45328339D42E0D170BD00F510
:1082C000C45370B59C6A14E0A3680DE09D6895F8EE
:1082D00031608E4207D16E8C12B946F0040601E07F
:1082E00026F004066E841B6804F10805AB42EDD14C
:1082F000246800F5C45328339C42E5D170BD00F5D5
:10830000C45370B59C6A14E0A3680DE09D6895F8AD
:1083100030608E4207D16E8C12B946F0040601E03F
:1083200026F004066E841B6804F10805AB42EDD10B
:10833000246800F5C45328339C42E5D170BD2DE973
:10834000F0479A4600F5C45304460E461546D3F846
:10835000288018E0D8F808700FE0D7F80890514648
:10836000062209F12A007AF665FD28B9002D14BF0E
:108370003346FF2389F81E303F6808F108039F4207
:10838000EBD1D8F8008004F5C45328339845E1D1E7
:10839000BDE8F0872DE9F0410E461D468CB000F592
:1083A0008C5393F8311004461746002940F08F8013
:1083B000002D00F08C80202204A87AF6D3FD04F56D
:1083C000C4539A6A25E093681EE0996891F81EC02C
:1083D000B44591F8300016D104F5C65C9CF831C064
:1083E000BCF1010F12BF8446DFF8E8C01CF800C0E2
:1083F00047FA0CFC1CF0010F05D00DF1300C0CEB12
:10840000800040F8201C1B6802F108018B42DCD17F
:10841000126804F5C45328339A42D4D10BAE062710
:1084200056F8041900294FD0CB681A684B8B9A4232
:1084300003D314BF0023012305E08A689288D01A71
:10844000434243EB000343B34B8C23F002034B84C2
:1084500091F83630DA0737D504F5C65393F8313042
:10846000012B91F830008A7F01F1240E04BF194BD3
:10847000185C91F831302A31029001911946206937
:108480000823CDF800E000F007F9736893F8362070
:1084900022F0010283F8362016E0C5B191F837309A
:1084A000EB18B1F83480204681F8373091F8363037
:1084B00043F004038D8681F83630FEF7B3FA736813
:1084C000A3F834802D1AEDB2013FBB1CA8D10CB02B
:1084D000BDE8F08194751D0010B500F5B4535B7ACA
:1084E000012B044601D0FFF738FC04F595531968B9
:1084F0008B6B5B6923B12046BDE81040FFF7E4BAFF
:1085000010BD0029C36B09DD826C002A06DD01392C
:108510009142BABF036C53F82130002318467047CC
:1085200030B50346A1B1C06B814213D09D6C0020D1
:1085300009E01C6C54F82040A14200F1010401D173
:10854000D47430BD2046A842F3DB4FF0FF3030BD7D
:10855000084630BD002030BD0021024AC8237FF606
:108560002DBF00BFD15B000070B504460E464068C9
:10857000114602F089F90146E06800F035FA054637
:10858000E0B1204631462A46FFF7CAFF002815DB36
:10859000294660687BF6B8FF094B29461B68DB68F3
:1085A00006462068984730B1E3699E196369E66121
:1085B0000133636102E0E36A0133E362002070BDCE
:1085C000C01018002DE9F74F002405468A462746BB
:1085D0000194264653E02F4BBAF816209AF81390D0
:1085E0001B6853F82280B8F1000F02D098F81330BE
:1085F0000193E868514600F083FA834600BBA4B9B2
:1086000028464946FFF77DFF064630B16868514667
:1086100002F04EF90446074635E068685146324696
:1086200002F00AF94FF0010B0AE06868514602F0C7
:108630003FF908B1038800E00346E382044622E0E4
:10864000AB6A0133AB62CFB1B8F1000F05D0BBF11B
:10865000000F02D1019B994510D000233146E382DF
:108660003A463369A86BDB68984728B1AB6A0024A7
:1086700027460133AB6201E004460746C246BAF121
:10868000000FA8D103E02B6901332B61DBE7BDE8C4
:10869000FE8F00BF2010180073B515461E46FFF769
:1086A00030FF60B10369DC6A64B1079B294600931F
:1086B00032469DF820300193069BA04703E06FF0FF
:1086C000010000E020467CBDC06800F091B80000C9
:1086D00073B50B46044600292FD0002A2DD0816B9C
:1086E00079B9C56B002D28D1C263214683635A62D4
:1086F000536200952268406800F062F8E060A8B913
:108700001BE0994219D1C36B934216D0866C0020AE
:1087100009E0236C03EB800553F82030013013B9D6
:108720002A6051620BE0B042F3DB06E004482246C7
:10873000044980F60FF9284601E04FF0FF307CBD78
:10874000CEF1080059851800FFF73CBF70B50B4605
:1087500007998C684E6824F07F45C6F3140625F40B
:108760006005AD1B172D28D9A4F118058D608D89E2
:1087700018358D81422544F8083CBDF8103004F8C6
:10878000185C002524F8103C9DF8283004F8175C8C
:1087900004F8165C012524F80A2C24F80E5CBDF8B8
:1087A000245024F80C5C1BB1CB8943F00803CB8127
:1087B000024B40681B681B69984770BDC0101800C9
:1087C0002DE9F041044638200E461546984601F042
:1087D000F2FF074640B1002138227AF6C3FBC7F802
:1087E0000C803E607D60BC603846BDE8F0810000D2
:1087F0002DE9F04FB1F80C8091B000230892CA899E
:10880000C2F3C0020D9381460E930E460F930B9256
:108810008C682278092A40F0B280B8F1270FA1892C
:10882000A568228A0991B4F812B061780A9140F3E0
:10883000AD802834A8F12808B2F5005FB460A6F82E
:108840000C800D9201D90D93A0E07368F288C246A6
:10885000C3F3140303EB521301331B1B089AB381B8
:1088600042B1B8F1000F04D01046214642467AF6D4
:10887000F5FA089C584B9D4210D1B8F1070F40F211
:108880008A80B368A8F1080A67684FF001080833C6
:108890000834B360B389083BB38102E02F464FF040
:1088A00000084E4D40F243137D199D4288BF3D465E
:1088B000B5F5837F1BD002D8022D2ED128E040F2DF
:1088C0000712954202D09D4227D169E020464449D3
:1088D00004227AF603FC0346F8B9424A0121D9F88A
:1088E0000400126800912146976952460EE0204626
:1088F0003B4904227AF6F2FB78B93A4B21460D9AAD
:108900001B680090D9F804009F690DABB84748E098
:10891000D9F800007DF66AF943E0B8F1000F14D0F1
:10892000BAF1000F08BF0024BBF1000F02D0DA45F6
:1089300028BFDA460FAB4FF0010801930EABCDF81C
:1089400000A00293CDF80C8010E00D9B002B08BF17
:108950000024BBF1000F02D05B4528BF5B460093AB
:108960000DAB01930EAB029300230393D9F80000E3
:108970003A460A9923467DF613F93D4611E01C4616
:108980006FF00100984609931D460AE01C466FF0FF
:108990001700984605E06FF017004FF0000800E060
:1089A000002008990D9B01B9B3819BB208B10E9AC2
:1089B0000D920D9A2946029200228DE81100484638
:1089C00004920B9A059343460692099A0396FFF781
:1089D000BDFE11B0BDE8F08F3EDAFEFFE0EB1B00FC
:1089E0008F751D00C01018002DE9F84FCB89D0F805
:1089F0000890180554BFC3F340184FF001080C4607
:108A000099045FFA88F805D5B4F85470003718BF98
:108A1000012700E00127B8F1000F0BD167B1A37C5B
:108A2000002B14BF0426082606F1080A03EB960360
:108A3000A37404E0002600E03E464FF0080AA26856
:108A4000616822F07F43C1F3140123F460035B1AD1
:108A5000534530DAB4F80CB048460BEB0A0101F08C
:108A6000C9FE054630B921464846012201F0E4FE20
:108A70002C4642E0C38923F00703E28902F0070293
:108A80001B04A1681B0C1343C381E289D2064CBFAF
:108A900043F0100323F010035A46C381A37C837470
:108AA000806850447AF6DAF921464846012201F0FE
:108AB000C3FE2C4606E0CAEB0202A3899A44A260D8
:108AC000A4F80CA0A568B8F1000F02D00E232B70FB
:108AD00013E043232B7087B105F10800414632466D
:108AE0007AF640FAE38903F007036B72E3891B0609
:108AF00003D5AB7A43F00103AB722046BDE8F88F93
:108B000000207047704710B558F006FFFAF72EF8AE
:108B100057F074FD58F012FF044657F02DFD204623
:108B20005EF0D0F9FAF7C2FB2046BDE810407FF6B0
:108B300079BBD0F8D020034670B5102A28BF102288
:108B4000914224D200EB8102D2F8145101F1A60225
:108B500050F8224001F1220200EB8200466806B97B
:108B6000456003EB8202506801F19602C3F8880069
:108B700053F8225015B90CB143F8224053F8222083
:108B8000C3F85422C3F88800C3F8CC1070BD00208D
:108B900070BDD0F8CC3010B500EB8303D3F8D440CF
:108BA00040F627039C420DD0D0F8543201B932B1BF
:108BB000D3F8080420EA01010A43C3F80824D3F8D3
:108BC000080410BD002010BDD0F8CC3010B500EB6B
:108BD0008303D3F8D44040F627039C420DD0D0F84D
:108BE000543201B932B1D3F8000520EA01010A4339
:108BF000C3F80025D3F8000510BD002010BD00000B
:108C00002DE9F3410746054600243EE0D5F874837C
:108C1000D8F8086916F0030335D00322C8F80429F0
:108C2000D8F808299007FBD1022B03D0032B13D0CF
:108C3000194812E0D8F80038184843F00103C8F882
:108C40000038D8F80038D8F8003823F00103C8F805
:108C50000038D8F8003800E011487AF6A9F9214622
:108C600010487AF6A5F9D8F80C19D8F81029D8F8D0
:108C70001439D8F81C0900900B487AF699F90B487A
:108C800031467AF695F901340435D7F870339C42B1
:108C9000BCD3BDE8FC8100BFBE751D00CE751D00B4
:108CA000DA751D003ABA0800EB751D00DABB080042
:108CB0000048704758F31D000048704728E51D0024
:108CC000014B43F820107047CCF31D00034B53F8C1
:108CD0002000431A584240EB03007047CCF31D00BC
:108CE0000346008938B1586842695A6000224261DF
:108CF0001A89013A1A81704743684B61038901332D
:108D0000416003817047012370B504460374054632
:108D1000002604E0EB6A2046296B013698470835A7
:108D2000E37C9E42F6DB0020207470BD70B585693F
:108D300004461DB12B686968984719E0867C013E9E
:108D40000FE0238963B1637C13B93246013E00E032
:108D50002A460C32204604EBC202536891689847B9
:108D60000135A37C9D42ECDB637C83F001036374DB
:108D7000002070BD194B10B51B684BB35A684AB33D
:108D8000DC6844B3A168013AD9605A6031B92AB1AC
:108D9000218809051248090D7AF60AF921686FF34E
:108DA00017310B0E6FF307132160E3700023A360EC
:108DB0000B051B0D1BB90B4819467AF6F9F8E37839
:108DC000C3F3031242F0010262F30713E37002E0FF
:108DD0001C4600E01446204610BD00BFA8F31D004D
:108DE000A2761D00DE761D0038B5144D04462B68B2
:108DF000002B21D05A6801881B689A4206D10905C8
:108E00000F48090DBDE838407AF6D2B80B051B0DA6
:108E10001BB90C4819467AF6CBF82B68DA68A260C1
:108E20005A68DC6001325A6023686FF3173323609D
:108E30001B0E6FF30713E37038BD00BFA8F31D00CE
:108E400001771D0033771D0050B1064B1B681A686F
:108E5000904204D89B680C2202FB0030704700202F
:108E6000704700BFA8F31D0038B50D46012404E08B
:108E7000C2F30B30FFF7E8FF01340268024B1340E6
:108E8000002BF5D12C6038BD00F0FF00002213B597
:108E9000019203460E4A0C461268BAB110B109B1EC
:108EA000884205D1194622460A487AF681F80DE033
:108EB000126890420AD8914208D8FFF7C5FF01A96D
:108EC000FFF7D2FF036864F3173303601CBD00BFD4
:108ED000A8F31D0053771D0008B5C36D0BB1016EDB
:108EE000984708BDC16502660020704710B5837CB5
:108EF000042B09D003F10C04013300EBC4046160BE
:108F0000A2608374002010BD4FF0FF3010BDF8B593
:108F10000446466DFFF7E4FE054648B9E37C13B10D
:108F20002046FFF7F0FE2046FFF7DAFE0546F8B1CF
:108F3000331C667818BF0123022E0BD1E66C204645
:108F4000216D2A46B04798B129462046FFF7D4FE46
:108F500000250DE066B95BB1676D2046A16D2A461C
:108F60000123B84720B129462046FFF7C5FE354604
:108F70002846F8BD10B50446FFF7BEFE237D13B1A9
:108F80000223237510BDA37C33B1237C23B9204673
:108F9000BDE81040FFF7CABE10BD2DE9F8438F8928
:108FA00006460C4602B1BF10B4F80A80002514E052
:108FB0003046E189627801F011FC814698B1204683
:108FC00049467AF64BFF013538B130464946002212
:108FD00001F032FC4FF0FF3507E005EB0803BB4220
:108FE000E6DB002501E06FF01A05A37C23B1237CAA
:108FF00013B92046FFF79AFE2846BDE8F883B1F57D
:10900000C87F28BF4FF4C8714289034691422CBFE4
:10901000084610469881704738B504460D4641B958
:10902000837C33B1037C23B9037D022B01D1FFF78D
:109030007DFE003518BF0125257538BD007D003047
:1090400018BF012070470000084B00201B680AE091
:10905000CA89013012F4085F1CBF91F83C208018C7
:109060008A8A53F822100029F2D170472010180084
:109070001FB5037842780C46009282780192C2783C
:10908000084602921021034A79F6D2FF204604B026
:1090900010BD00BF81771D00044B1B78012B02D14E
:1090A0000020007070477AF6A9BD00BF84F21D0051
:1090B000044B1B78012B02D10020007070477AF618
:1090C00061BD00BF84F21D00044B1B78012B02D14F
:1090D0000020007070477AF661BD00BF84F21D0069
:1090E000044B1B78012B02D10020007070477AF6E8
:1090F0006DBD00BF84F21D00212928D98389082B6A
:109100000BD1837B1909042901D1C37B19E00629FE
:1091100019D11B01C17BDBB211E0812B17D12529AD
:1091200015D9038A082B14D1837C1909042901D18C
:10913000C37C06E0062906D11B01C17CDBB243EAF1
:1091400011139B0800E000231370012070470020DA
:10915000704700207047000000F13402342A08B53F
:10916000034606D905482021054A79F661FF0348E0
:1091700008BD4342034A52F8230008BDACF31D006A
:109180008D771D0020781D0030B560B910E044785F
:10919000A31C99420BD30578954209D0C0186FF0F3
:1091A00001031B1BC9180129F1D8002030BD002084
:1091B00030BD00002DE9F0438946A1B0904601463C
:1091C00020B1037813B1184879F6F2FE0026802505
:1091D0006C461EE016F00F0707D120462946134AB9
:1091E000334679F625FF24182D1A002D08DD204678
:1091F00019F8063029460E4A79F61AFF24182D1A56
:109200000F2F05D10B48694679F6D2FE80256C46B2
:1092100001364645DED169468C4202D0054879F6D2
:10922000C7FE21B0BDE8F08354C30800A0771D003D
:1092300062C30800F1E808002DE9F843044615462A
:109240001F46D608CB088D422CD3F21A012A1FD90B
:109250004FEAC30909F107094FEAC60801E0FF22F6
:10926000E2540133B342FAD30F4604E039462046B4
:109270007BF6A8F901374F45F8D9464604E0314658
:1092800020467BF69FF90136AE42F8D9BDE8F88357
:109290000E463146204601367BF694F9AE42F8D9A7
:1092A000BDE8F88320463A463B46FFF7C5FF00215C
:1092B000C8E710B5028942B10368013A59681C68D1
:1092C0000C601C686160028100E01346184610BD06
:1092D00003680B6001600B684860596003890133C3
:1092E0000381704708B501227CF61EF928B1437846
:1092F000063BDBB2202B88BF002008BD0138C0B27E
:109300000A289ABF024B33F810000020704700BFB4
:10931000F4781D002DE9F041044600252046002187
:109320007DF64CFD064600285AD0A368826813F0EB
:10933000800F08D0D4F8A0305B08023332F8133025
:109340000433138000E01388D4F8A010B4F89420FC
:109350005818904238BF024694F8320048B1B58997
:10936000AA4202D8B281002200E0521BA6F8502087
:1093700000E0B281B4F89470CF1BFF18002F2FDDEE
:10938000A3685B0617D5A06A3146002222E0038855
:10939000A8F81430B4F8943094F832109F42B4BF57
:1093A0003A461A4611B1AA4228BF2A46FF1A002F90
:1093B000828102DC08E0B04600E0804620460021C1
:1093C0007DF6FCFC0028E2D1A26812F0040207D16D
:1093D000A06A314601F030FAE3680133E3609DE7AB
:1093E0003046BDE8F08100002DE9F04FB0F84A604A
:1093F0008BB0002304468B4605920D4609930793D4
:10940000089395E06049AA8AB5F80E8018F40078B0
:1094100018BF95F83C800B6853F822A0AB89AA6866
:10942000002B3ED0B4F84600B4F84AC0411EB4F850
:1094300048E0CEEB0C0E01EA0E0ECEEB000008F178
:1094400001070138874200F2908000205D450990B5
:1094500004BF4FF0004009908E4203D1099941F0BA
:109460008051099194F8D61019B1099941F48021DD
:109470000991B8F1000F06D1BAF1000F03D1099993
:1094800041F0C041099109A920468DE80A00334600
:10949000E16B01367EF610F8B4F84630013B1E4011
:1094A000B6B24FF001094F463FE00023022F099367
:1094B00008D93549AA8A01270B6853F82250AA8A8D
:1094C00053F822A007F1280335F81320FB1DC145EE
:1094D00055F8331005EBC30307915B68089305D17A
:1094E000BAF1000F02D14FF0C0430993B4F84630EF
:1094F000013B9E4203D1099B43F08053099309AB82
:1095000000962046019307AB02920136E16B0137CA
:109510000CCB09F101097EF603F8B4F84630013BA3
:109520001E40FFB2B6B25FFA89F9C145BDD95546B2
:10953000002D7FF467AFB4F84630701E5A1E1040FD
:10954000E16C41F820B00599A4F84A6021B1A06E01
:10955000616B00EB06104860B4F84810761A324090
:109560009B1A013B002063600BE0A06A5946012270
:1095700001F062F900234FF0FF306360636901334B
:1095800063610BB0BDE8F08F201018002DE9F043A7
:10959000002385B004460393CB899B050E46904675
:1095A00002D5FFF721FF83E0B0F84A500B4649E0AF
:1095B00041489F8A05F10109B4F848C09A68998921
:1095C000006850F82770B4F84600013809EA00092D
:1095D000E14561D0002934D0B3424FF0000E08BFFE
:1095E0004FF00043CDF80CE008BF039357B9039B3D
:1095F00043F0804ECDF80CE0B8F1000F02D043F0FC
:10960000C0430393854203D1039B43F080530393EC
:1096100094F8D6301BB1039B43F48023039303AB30
:109620000191204600932B46E16B01357DF644FF06
:10963000B4F84630013B1D40B4F84830ADB2AB42FF
:109640002AD03B46002BB3D1039B590009D4691E95
:10965000B4F84620013A0A4043F0C0431201E16BDE
:109660008B50B4F84630681E5A1E1040E16C41F829
:109670002060A4F84A50B8F1000F04D0A06E616BCE
:1096800000EB05104860B4F848106D1A2A409B1A88
:10969000013B002063600BE0A06A3146012201F02B
:1096A000CBF800234FF0FF306360636901336361DF
:1096B00005B0BDE8F08300BF2010180010B5B0F869
:1096C0006C300446002B42D0D0F8BC205AB112783E
:1096D0004AB1013BB0F87010B0F86E208A1A1342FC
:1096E00001D07DF637FE0023B4F86C2094F83210D8
:1096F000A4F8D030A4F87030A4F86E30531EC4F82B
:10970000D83041B15B08D4F89C10994294BFC4F89A
:109710009C10C4F89C30206C0021120179F622FCC8
:1097200094F8B4302BB920460221D4F880207DF67D
:10973000DFFA20467DF6D0FC94F8B4303BB12046E9
:109740000221D4F88020BDE810407DF6D1BA10BDCA
:1097500080F8DC100020704770B588B00446B4F87B
:10976000705004A8B4F86E60AE1B80E80600B4F830
:109770006C00411E0E40801B0022012807922BDD49
:109780008D4208BF4FF08052029304AB08BF07928E
:1097900007AA009520460192216C0CCB7DF6C0FEF5
:1097A000636F049AB4F86E1043F82520B4F86C3057
:1097B00001355A1E15400020ADB2691A0A409B1AA5
:1097C000D4F89020013BA4F8705002EB0515C4F8C2
:1097D000D830A36B5D6003E04FF0FF30C4F8D820B1
:1097E00008B070BDF0B589B00446B4F84A5004A87A
:1097F0001E46002380E80600691C0793B4F8463033
:10980000013BB4F84820194091420E983ED0002800
:1098100043D09DF83C2012B14FF0004207929DF8D2
:1098200040201AB1079A42F0C04207929D4203D1EC
:10983000079B43F08053079307AB009501350193D5
:1098400004AB02902046E16B0CCB7DF669FEB4F8C8
:109850004620531EB4F848101D40ADB28D4215D0BD
:109860006F1E1F40E06CDDF810C040F827C0A4F860
:109870004A5026B1A66E606B06EB051646606D1A5F
:109880002B40D21A013A0020626006E000234FF01C
:10989000FF30636063690133636109B0F0BD0000AC
:1098A0000048704760E51D00004870479C911D000E
:1098B0000048704744921D0000487047B8B10E0040
:1098C00008B5FFF7EDFF01234178027813FA01F1A3
:1098D00013FA02F20A4381788B4042EA030008BD82
:1098E00010B51446FFF7E8FF0223C4F86036D4F839
:1098F0006436DBB2B0FBF3F34FF47A70584310BD1B
:109900002DE9F7434FF0000804460F4616469946E6
:109910004546012303FA08F313EA090F2BD06369C4
:109920002046222B0ADDE3695A0607D540F62701B7
:10993000002284F6EBF90146204600E000214FF4B6
:10994000C46284F6EDF8C0F8008020466369222BDB
:109950000ADDE3695B0607D540F62701002284F69D
:10996000D5F90146204600E0002140F2246284F649
:10997000D7F803681D4308F10108B8F11F0FC8D1DB
:109980009DF828304BB145B101232046009339465C
:109990002B463246FFF7B4FF05432846BDE8FE8359
:1099A000816838B540F63C039942044626D1C36825
:1099B0000B2B23D84FF0A87199401FD549F21823DB
:1099C0009A4205D049F640439A4217D10C4D00E027
:1099D0000C4D63692046222B0ADDE369590607D541
:1099E00040F62701002284F691F90146204600E066
:1099F000002140F2DC6284F693F8056038BD00BFB8
:109A000099010100B601010038B543690446222BD3
:109A10000ADDC3695D0607D540F62701002284F6FA
:109A200075F90146204601E0204600214FF4CC6242
:109A300084F676F863692046222B0ADDE36959062D
:109A400007D540F62701002284F660F9014620463A
:109A500000E0002140F2646284F662F86369204607
:109A6000222B0ADDE3695A0607D540F627010022BA
:109A700084F64CF90146204600E000214FF4C06214
:109A800084F64EF86369222B056820460ADDE369F7
:109A90005B0607D540F62701002284F637F9014618
:109AA000204600E000214FF4C06284F639F80560DA
:109AB00038BD38B543690446222B0ADDC3695B060D
:109AC00007D540F62701002284F620F901462046FA
:109AD00001E0204600214FF4C06284F621F80568B9
:109AE000204605F07C05AD08FFF7DEFE03E0837835
:109AF000AB4207D00C3010B10388002BF7D12046C1
:109B0000FFF7D6FE03884FF47A70584338BD000043
:109B1000836CF7B503F4E003B3F5401F04460E462B
:109B2000154609D184F6B0FA1C4B00F0010000285C
:109B30000CBF1F4607271AE04369222B0EDDC369BD
:109B40005A060BD540F62701002284F6DFF80023E1
:109B50004FF4C36200930146204605E000212046F1
:109B60004FF4C3620B46009184F6DAFA07462046AA
:109B700081F684FA94F86033002818BF0127012B7E
:109B800094F8683308BFD4F85C73012B14BF6FF0EE
:109B90000043D4F8643337602B60FEBD772FC20FCB
:109BA0002DE9FF471D46436990460022222B0446BB
:109BB00089460292039209DDC3695E0606D540F626
:109BC000270184F6A3F80146204601E02046002143
:109BD0004FF4C46283F6A4FF05602046236A0C2B71
:109BE000636916DD222B0ADDE369590607D540F6C5
:109BF0002701002284F68AF80146204600E0002171
:109C00004FF4C56283F68CFF0668360CB605B60DB8
:109C100014E0222B0ADDE3695A0607D540F6270136
:109C2000002284F673F80146204600E000214FF43C
:109C3000C56283F675FF0668360AF6B2012300276F
:109C4000AB402046494642460097FFF759FE05467D
:109C5000012212FA07F32B4207D000922046494610
:109C60004246FFF74DFE25EA000501371F2FEFD1D1
:109C7000204602A903AAFFF74BFF029B25EA030A2D
:109C800000252F460123BB4013EA0A0F08D02046C7
:109C900049464246FBB2FFF783FF854238BF05467F
:109CA00001371F2FEED1236A152B1ADDA36C03F4A5
:109CB000E0031A0DABB963692046222B09DDE36985
:109CC0005B0606D540F6270184F620F801462046BB
:109CD00000E000214FF4DB6283F622FF0368D9071E
:109CE00000D40236701904B0BDE8F0872DE9F041C8
:109CF000069E044615461F46FFF7E2FD002870D079
:109D000010EA060800EA07072CD063692046222BD8
:109D10000ADDE3695A0607D540F62701002283F6DB
:109D2000F5FF0146204600E0002140F21C6283F668
:109D3000F7FE6369222B064620460ADDE3695B06CF
:109D400007D540F62701002283F6E0FF01462046B2
:109D500000E0002140F21C6283F6E2FE036843EA61
:109D600008033360002F2BD063692046222B0ADDC5
:109D7000E3695E0607D540F62701002283F6C6FF99
:109D80000146204600E000214FF4C36283F6C8FE7E
:109D90006369222B064620460ADDE369590607D58A
:109DA00040F62701002283F6B1FF0146204600E07D
:109DB00000214FF4C36283F6B3FE03681F4337608C
:109DC000079B9A0305D4BDE8F0810A207EF6A0FC2B
:109DD00001E040F2DD54D5F8E0319B0301D4013CB1
:109DE000F3D1BDE8F081F7B51E46436904460F463E
:109DF000222B15460BDDC3695B0608D540F627010B
:109E0000002283F683FF00970146204602E02046A9
:109E1000002100974FF0FF334FF4CA6284F680F9B7
:109E20006369222B0CDDE369590609D540F6270149
:109E30002046002283F66AFF00960146204602E093
:109E400020460021009640F254622B4684F668F9C1
:109E5000FEBDF7B51E46436904460F46222B154644
:109E60000BDDC3695B0608D540F62701002283F6A7
:109E70004DFF00970146204602E020460021009752
:109E80004FF0FF334FF4CB6284F64AF96369222B1B
:109E90000CDDE369590609D540F62701204600226A
:109EA00083F634FF00960146204602E0204600215A
:109EB000009640F25C622B4684F632F9FEBDF7B59F
:109EC0001E46436904460F46222B15460BDDC36927
:109ED000590608D540F62701002283F617FF0097A0
:109EE0000146204602E02046002100974FF0FF3354
:109EF0004FF4CC6284F614F96369222B0CDDE3691C
:109F00005A0609D540F627012046002283F6FEFEB8
:109F100000960146204602E020460021009640F2CD
:109F200064622B4684F6FCF8FEBD436913B5222B10
:109F300004460DDDC3695B060AD540F62701002201
:109F400083F6E4FE4FF4806300930146204604E06C
:109F50004FF480632046002100934FF4C06284F6E2
:109F6000DFF81CBD704700002DE9F8430446894620
:109F700083F6D0FD00210646204684F6A9FA8046E5
:109F80002046FFF78DFC0746204683F6B3FF3B785B
:109F90004946424605462046FFF702FE0C4BEB18A9
:109FA000B3FBF5F5A36C0230454313F4E00F02D187
:109FB00005F5E17504E00A220B235D43B5FBF2F5DC
:109FC0002046314684F684FAA8B2BDE8F88300BF83
:109FD0003F420F0038B543690446222B0ADDC369AE
:109FE0005D0607D540F62701002283F68FFE014665
:109FF000204601E02046002140F2146283F690FDE5
:10A000006369222B056820460ADDE369590607D5F6
:10A0100040F62701002283F679FE0146204600E043
:10A02000002140F2146283F67BFD03689D4214D048
:10A0300063692046222B0ADDE3695A0607D540F6FC
:10A040002701002283F662FE0146204600E000213F
:10A0500040F2146283F664FD0568284638BD38B5C1
:10A060001C461D68FFF7B6FF0346401B236038BD42
:10A070002DE9F7439DF82890002504460F46164623
:10A0800098460195FFF7A6FF019063692046222BB1
:10A090000ADDE3695B0607D540F62701002283F657
:10A0A00035FE0146204600E000214FF4C26283F6EF
:10A0B00037FDB9F1010F006801D108B90EE050B9C0
:10A0C000B8EB451F09D920463946324601ABFFF7A8
:10A0D000C6FF2D18D9E7002000E001206D010B9B81
:10A0E0001D60BDE8FE832DE9F04F002685B0804657
:10A0F000894692460396012503AF4046494652469B
:10A1000043F6982300950197FFF7B2FF044688B9FC
:10A110008DE881004023404649465246DDF80CB0A8
:10A12000FFF7A6FF039B38B99B445E4443F6972391
:10A130009E42E0D9284600E0204605B0BDE8F08FF9
:10A140002DE9F8439946436904460E46222B1546ED
:10A15000DDF82080099F0ADDC3695A0607D540F65D
:10A160002701002283F6D2FD0146204601E0204669
:10A1700000214FF4C36283F6D3FC03682046C9F87C
:10A1800000306369222B0ADDE3695B0607D540F6E0
:10A190002701002283F6BAFD0146204600E0002197
:10A1A00040F21C6283F6BCFC03682046C8F800300D
:10A1B000D5F8E0313B60FFF783FB0746002872D0FB
:10A1C000D5F8E031990304D4204631462A46FFF7FA
:10A1D0008AFF63692046222B0ADDE3695A0607D508
:10A1E00040F62701002283F691FD0146204600E05B
:10A1F00000214FF4C36283F693FC6369222B064669
:10A2000020460ADDE3695B0607D540F627010022F8
:10A2100083F67CFD0146204600E000214FF4C36236
:10A2200083F67EFCFF43036820463B40336063694E
:10A23000222B0ADDE3695E0607D540F627010022DE
:10A2400083F664FD0146204600E0002140F21C62D6
:10A2500083F666FC6369222B064620460ADDE36925
:10A26000590607D540F62701002283F64FFD014627
:10A27000204600E0002140F21C6283F651FC40F2CF
:10A28000DD5403681F40376002E00A207EF640FA82
:10A29000D5F8E0319A0301D5013CF6D16420BDE840
:10A2A000F8437EF635BABDE8F88370B504460E462D
:10A2B00083F630FC00210546204684F609F9314634
:10A2C00002462046FFF7F5FB29460646204684F65F
:10A2D000FFF8304670BD70B504460E4683F61AFC92
:10A2E00000210546204684F6F3F831460246204612
:10A2F000FFF7F6FA29460646204684F6E9F8304686
:10A3000070BDFFF7E8BF0000014B1860704700BF49
:10A3100010F41D00F8B5484F04463A68002A40F092
:10A3200089804369222B09DDC3695B0606D540F6A7
:10A33000270183F6EBFC0146204601E02046002180
:10A3400040F2146283F6ECFB6369222B0568204619
:10A350000ADDE3695E0607D540F62701002283F691
:10A36000D5FC0146204600E0002140F2146283F64D
:10A37000D7FB03689D4214D063692046222B0ADD77
:10A38000E369590607D540F62701002283F6BEFC93
:10A390000146204600E0002140F2146283F6C0FB33
:10A3A000056842F210707EF6B3F963692046222BED
:10A3B0000ADDE3695A0607D540F62701002283F635
:10A3C000A5FC0146204600E0002140F2146283F61D
:10A3D000A7FB6369222B066820460ADDE3695B065A
:10A3E00007D540F62701002283F690FC014620465F
:10A3F00000E0002140F2146283F692FB03689E4263
:10A4000014D063692046222B0ADDE369590607D57B
:10A4100040F62701002283F679FC0146204600E041
:10A42000002140F2146283F67BFB0668751B6426EC
:10A4300075433D603868F8BD10F41D002DE9F74FF5
:10A440000446884691461F4683F664FD83460028ED
:10A4500040F0DA80204683F65DFB5946824620466E
:10A4600084F636F863692D2B05460CD1D0F8F4300C
:10A47000B9F1000F02D023F0007301E043F0007344
:10A48000C5F8F430B9E02046FFF70AFA0126C37890
:10A490009E4000F0B280B9F1000F5FD063692046A2
:10A4A000222B0ADDE369590607D540F627015A46F3
:10A4B00083F62CFC0146204600E000214FF4C362E5
:10A4C00083F62EFB41462A46036820463B6043EA5A
:10A4D0000607012300933B46FFF712FA6369222B1C
:10A4E00047EA000720460ADDE3695A0607D540F629
:10A4F0002701002283F60AFC0146204600E00021E5
:10A500004FF4C36283F60CFB41462A46076020469F
:10A51000FFF7E9FD4FF47A707EF6FAF840F2DD5766
:10A5200002E00A207EF6F4F863692046222B0ADD59
:10A53000E3695B0607D540F62701002283F6E6FBB8
:10A540000146204600E0002140F20C6283F6E8FA62
:10A550000368334242D1013FE3D13FE03A689AB900
:10A5600063692046222B09DDE369590606D540F6CA
:10A57000270183F6CBFB0146204600E000214FF483
:10A58000C36283F6CDFA0268012322EA060700932C
:10A5900020463B4641462A46FFF7B2F96369074326
:10A5A00037420CBF00260126222B20460ADDE36934
:10A5B0005B0607D540F62701002283F6A7FB01467C
:10A5C000204600E000214FF4C36283F6A9FA414619
:10A5D0002A4607602046FFF786FD00E0012640F28C
:10A5E0002D1702E00A207EF693F82B6903F48053BE
:10A5F000B3EB063F01D0013FF4D12046514603B0F2
:10A60000BDE8F04F83F664BF03B0BDE8F08F73B5CB
:10A610000E46154601AB6A464FF40061044683F6C8
:10A6200065FF32462B4601462046FFF7EDF92046EE
:10A630009DE8060083F69AFD7CBD70B504460E4683
:10A6400083F668FA00210546204683F641FF31462D
:10A6500002462046FFF747FD2046FFF721F96369D0
:10A66000222B064620460ADDE3695B0607D540F645
:10A670002701002283F64AFB0146204600E0002124
:10A6800040F20C6283F64CFA0121F37811FA03F3DD
:10A690002946026820461A420CBF0026012683F68E
:10A6A00017FF304670BD70472DE9FF470022836ECB
:10A6B00004460D460292039263B1D0F8CC1000EB31
:10A6C0008101D1F8D400216E884205D1606E98478F
:10A6D000814602E0994600E09146204683F61AFA48
:10A6E000002100268246204683F6F2FE02A903AA34
:10A6F00080462046FFF70CFA029F0396FFB13B46C7
:10A700002046294642460096FFF7FAF86369222B55
:10A7100040EA0700029020460ADDE3695A0607D5A1
:10A7200040F62701324683F6F1FA0146204600E062
:10A7300000214FF4C36283F6F3F9029B0360039E8A
:10A7400006B3002733462046294642460097FFF7C6
:10A75000D7F86369222B40EA0600039020460ADD01
:10A76000E3695B0607D540F627013A4683F6CEFA41
:10A770000146204600E0002140F21C6283F6D0F939
:10A78000039B0360294642462046FFF7ACFC204667
:10A79000514683F69DFEE36E5BB1D4F8CC2004EB0A
:10A7A0008202D2F8D410226E914202D1606E4946E4
:10A7B0009847BDE8FF870021F8F76EBC38B505461D
:10A7C000FFF7F9FF044618B100212A4678F6CAFBC4
:10A7D000204638BDF8F7EABC0020704710B50446A3
:10A7E00008461146F9F788F910B123680133236050
:10A7F00010BD000010B500220C46FFF7EFFFA0B916
:10A800000A4B1B688BB11A787AB1DA8994420CD85A
:10A810001846FEF77CFB20B1054B1A6801321A601E
:10A8200010BD044B1A6801321A6010BD7010180078
:10A8300014F41D0018F41D0038B504460D4622B16D
:10A84000836813B1C06800229847094B1A682B46E9
:10A8500007E0D97811B92168013921609B8A52F843
:10A860002330002BF5D12846BDE83840F9F700BA6F
:10A870002010180010B504460846F9F78DF910B1FC
:10A8800023680133236010BD084A034610B51068E1
:10A890000A4607E0D47814B91C6801341C60928A17
:10A8A00050F82220002AF5D1084610BD20101800CB
:10A8B000084A034610B510680A4607E0D47814B970
:10A8C0001C68013C1C60928A50F82220002AF5D1B5
:10A8D000084610BD20101800CB8913F4005330B582
:10A8E00018BFB1F850008D8912BF04461C461846A7
:10A8F0009442C2EB000002DBA1F8500030BD2818E2
:10A9000088812BB1B1F8503013B10023A1F8503039
:10A9100030BD0000044B1B78012B02D100200070D9
:10A9200070477FF627B900BF84F21D0010B50C46B2
:10A93000134604212246BDE81040FFF78ABA00F111
:10A94000C05000687047D0F884330BB198B270479C
:10A95000808F704707B5002914BF102100212422E1
:10A9600000911023002183F6D9F80EBDF7B51546E6
:10A970001C4600914FF4446200214FF0FF3306461D
:10A98000089F83F6CBF80897304600212A462346D5
:10A9900003B0BDE8F04083F6C1B82DE9F7430022CB
:10A9A0004FF445611346064683F6DEF94FF44E65D3
:10A9B000002481460123A34013EA090F30D004F09C
:10A9C0000303013B012B2BD90022134629463046B5
:10A9D00083F6CAF900221346A5F1800107463046E6
:10A9E00083F6C2F93B4629464FF0FF328046304697
:10A9F00083F6BAF9D6F8883310E01A79A2420CD15E
:10AA00009A6848EA0701114207D0D3F80CC03846CB
:10AA10001A6841460193E047019B1B69002BECD16A
:10AA200001340435202CC5D1BDE8FE8310B50446A1
:10AA300083F6D2F94FF44060FFF781FFC0B20028DF
:10AA40003FD040F60C414FF0FF321E4B204683F6BC
:10AA50008BF940F654410C220023204683F684F9FA
:10AA60004FF45E614FF0FF32F423204683F67CF909
:10AA700040F6E4514FF0FF320023204683F674F98C
:10AA800040F6EC514FF0FF328923204683F66CF9F3
:10AA900040F6E8514FF0FF322823204683F664F950
:10AAA0004FF45D614FF0FF32DB23204683F65CF903
:10AAB000204640F6F8514FF0FF32222383F654F936
:10AAC000012010BD2400001937B500210B4640F6C7
:10AAD00014420091044683F621F88101054602D50F
:10AAE000204683F69DFDAA0206D52046294603B0DE
:10AAF000BDE83040FFF751BF03B030BD2DE9FF4145
:10AB00000026044615460F4603AA084602A99846A1
:10AB10000296039683F646FD20463946012283F6C7
:10AB20007BF9029B0093314620464FF444624FF07C
:10AB3000FF3382F6F3FF294632460223204683F68E
:10AB400083F929462A460223204683F6B9F920468E
:10AB500029464246022383F699F9BDE8FF8110B5E4
:10AB600001248C40002A14BF234600232246BDE85E
:10AB70001040FFF7C3BF000013B50C4602B949B13E
:10AB8000084913B10B681C4003E00B681C4324EA1E
:10AB900003042240009200217022234682F6BEFF69
:10ABA0001CBD00BFD010180037B5144642690D46D1
:10ABB000132A09DD002100938D420CBF58225C222C
:10ABC000234682F6ABFF01E04FF0FF303EBD13B5E8
:10ABD000144642690A2A0FDD29B1012905D002294C
:10ABE0000AD1842202E0782200E07C220093002136
:10ABF000234682F693FF01E04FF0FF301CBD2DE9A4
:10AC0000F041044683F63AF900210A460B4607460E
:10AC10002046FFF7B1FF00210A460B4606462046B4
:10AC2000FFF7D5FF00220221134605462046FFF715
:10AC3000CEFFD4F8788015E0D8F8083083B198F8C2
:10AC40000420002AD8F80C200CBF2846384600EA19
:10AC5000020012D03240904202D0D8F8001098473B
:10AC6000D8F81080B8F1000FE6D1204641462A46B8
:10AC70002B46BDE8F041FFF7AABF0028EDD1EFE772
:10AC8000C36970B50D46590704460ED5C022134658
:10AC900040F6745183F668F8204640F66451C022AD
:10ACA0002B46BDE8704083F65FB870BD2DE9F843D0
:10ACB000044688461746994682F62CFFA56E06463E
:10ACC0006DB1D4F8CC3004EB8303D3F8D420236ED9
:10ACD0009A4203D1606EA847054600E00025414630
:10ACE000204683F6F5FB3946089B4A46204683F604
:10ACF00057FC31460746204683F6EAFBE36E5BB11C
:10AD0000D4F8CC2004EB8202D2F8D410226E914207
:10AD100002D1606E294698473846BDE8F88310B5E1
:10AD2000816D0446FFF7C0FC102201211346204626
:10AD3000FFF759F80121802200232046FFF753F83E
:10AD4000204601214FF470224FF48033BDE81040BB
:10AD5000FFF749B803801B0C2DE9F041438054787C
:10AD6000137843EA04238380D478937843EA042356
:10AD7000C3805479137943EA04230024038104F047
:10AD80000102078911F812507D405600013611F872
:10AD900006C085EA0C2C424BEDB24FEA1C2C33F86E
:10ADA00015500CF5807C33F81CC08CEA0505B0F812
:10ADB00000C0654402F10208ADB23F19058011F8E8
:10ADC00018C001EB480898F801804CEA082888EA86
:10ADD000050885EA0C05B0F802C04FEA182808F506
:10ADE000807833F81880EDB233F8155088EA0505FD
:10ADF000654402F10408ADB20134458011F818C071
:10AE000001EB480898F801804CEA082888EA050810
:10AE100085EA0C05B0F804C04FEA182808F58078D8
:10AE200033F81880EDB233F8155088EA050565440B
:10AE300002F10608ADB2858011F818C001EB480890
:10AE400098F801804CEA082888EA050885EA0C058C
:10AE5000B0F806C04FEA182808F5807833F8188053
:10AE6000EDB233F8155088EA05056544ADB2C580EA
:10AE700011F812208E5D42EA06266E406A40360ABC
:10AE800006F5807633F81660D2B233F8123073408C
:10AE9000FF18082C07817FF472AFBDE8F08100BF76
:10AEA0009E921D002DE9FF47002401AD165B2E5335
:10AEB00002340A2CF9D1B2F808A09A440C784D78E3
:10AEC0001FFA8AFA91F80B8044EA052585EA0A05FB
:10AED0008AEA04042D0A664A05F58075E4B232F860
:10AEE000159032F8144089EA0409BDF80440A144E1
:10AEF000CD788C781FFA89F944EA052585EA090599
:10AF000089EA04042D0A05F5807532F815C0E4B20B
:10AF100032F814408CEA040CBDF80640A4444D7984
:10AF20000C7944EA05251FFA8CFC85EA0C058CEAAD
:10AF300004042D0A05F5807532F81570E4B232F874
:10AF400014406740BDF808403F19CD798C7944EA38
:10AF50000525BFB27D407C402D0A05F5807532F88D
:10AF60001560E4B232F814406640BDF80A40361964
:10AF70004D7A0C7A44EA0525B6B2754074402D0A24
:10AF800005F5807532F81550E4B232F814406C4083
:10AF9000BDF80C5064198D7A45EA0828A4B288EAF5
:10AFA000040865404FEA1828EDB208F5807832F8B9
:10AFB000188032F8152088EA0208D0444D7B0A7BBD
:10AFC00042EA05221FFA88F882EA0802D50345EA18
:10AFD00052028D7B91441FFA89F291F80F9045EA55
:10AFE000092989EA0209ADF804204FEAC93545EA82
:10AFF00059056544ADB26A08ADF8065042EAC53558
:10B000007D198370ADB26A08ADF8085042EAC535C3
:10B010007519ADB26A0842EAC532A218ADF80A50F5
:10B0200092B25408ADF80C2044EAC23290441A0A95
:10B030001FFA88F8027002F05F0242F02002ADF8B9
:10B040000E8042704A780B7843EA022383EA0808AC
:10B0500000234FEA680880F8038001AA9A5A027117
:10B06000120A0233427102300C2BF6D1BDE8FF8781
:10B070009E921D002DE9F8438F8999462C4B0D2F88
:10B0800015468A8A0C461B688E6853F8228046DD76
:10B09000327B737B43EA0223B3F5C06F03DB06F117
:10B0A0000C0300210CE0152F39DD224806F10E01BA
:10B0B000062277F6BFFE002831D106F114030121E4
:10B0C00018785A7842EA0022B2F5014F08D1981D4B
:10B0D000F219904223D818795A79043342EA0022AF
:10B0E00040F6060082421AD1A089B8F1000F0AD0BA
:10B0F0000E28B8F80C2002D1D8F8083006E00F3836
:10B100001A280CD9BF180233F61ABA191C2A00DC07
:10B1100009D12B601C2089F80010BDE8F8834FF09E
:10B12000FF30BDE8F8836FF00100BDE8F88300BF91
:10B13000201018008C29080003682DE9F74F012A18
:10B1400014BF4FF02A084FF0320805460E465868E3
:10B1500041469146FFF74EFB074640B92B68052054
:10B160001B68D3F888301A6D01321A656AE006F15F
:10B170000E0B59468468042201A877F66FFE019AE7
:10B180004AF6FE1312BA2046B3EB124F18BF06F16F
:10B19000080105F1280A08BF2B49062277F65EFE52
:10B1A000A01D5146062277F659FEB9F1000F0ED0C8
:10B1B000002384F80D8004F10E0023730622234936
:10B1C00077F64CFE082323750623637503E00823F6
:10B1D000237306236373A8F11C08444431460622F6
:10B1E000204677F63BFE00235146A3710223062238
:10B1F000E37104F1080077F631FE06F1180104222C
:10B2000004F10E0077F62AFE06F10801062204F189
:10B21000120077F623FE5946042204F1180077F64F
:10B220001DFED5F85C31286839460133C5F85C311C
:10B23000D0F8A438DA6A0132DA62D5F868210FF062
:10B2400003FF0120BDE8FE8FD0F307008C29080022
:10B25000F8B50B9B1646089D33B19A6822B1036876
:10B260000121986801F0FBFC0D2E04461FD002D886
:10B27000092E3CD104E0172E24D0192E37D12EE010
:10B28000079B2E79042B35D900F12807384678F62C
:10B2900021FD30B12368384606221968043177F65B
:10B2A000DDFD072E29D8B01C04EB800019E02868CA
:10B2B000072822D80230002104EB8000042277F610
:10B2C00051FE12E0284678F605FD0646C0B904F5A1
:10B2D000B8702946062277F6C1FD3046F8BD00F564
:10B2E000B6702946042277F6B9FD0020F8BD6FF04C
:10B2F0001600F8BD6FF00D00F8BD6FF01C00F8BD32
:10B300000020F8BD0B4B07B51B6813F001020CD0F1
:10B3100013F006030BD00DF107036A46FFF7AAFEF0
:10B32000831C14BF0020012002E0104600E01846F4
:10B330000EBD00BFD41018002DE9F041854D86B038
:10B3400004462B68DA0740F1FC800368002B00F00C
:10B35000F8806A460DF11703FFF78CFE0028C0F253
:10B36000F08094F86431012B00F0EE80009903A87E
:10B3700004220E3177F672FD039F6FB1009902AA85
:10B3800020460E3185F6C8F800990E3180462046D9
:10B3900085F6E2F8074600E0B846009904A80422C2
:10B3A000183177F65BFD049E66B10099204618318E
:10B3B00085F6D2F8009901AA18310646204685F68E
:10B3C000ABF800E03046B8F1000F14BF4FF00808AA
:10B3D0004FF00008002814BF04200020002F14BFE5
:10B3E000022700274044C719002E0CBF3E467E1C92
:10B3F0000099CB88B3F5807F45D1D4F84C3104F166
:10B4000028000133C4F84C3178F664FC002840F081
:10B410009680039B23B9286810F0080000F09780FD
:10B420000C2E00F29180DFE806F01E078F7F218F3F
:10B430008F8F0F278F8F0F00009A204602F10E0189
:10B44000083285F6C7F86FE02046009985F698F82F
:10B45000012879D00099042201F10E00183177F605
:10B46000E9FC002873D02B689B076DD4D4F85031C9
:10B470000133C4F8503169E02046009985F680F820
:10B48000012851D160E0B3F5007F5AD1D4F854318E
:10B490000133C4F854310C2E56D8DFE806F00712F9
:10B4A000553D55555755252555553200039A4AF6B1
:10B4B000FE1312BAB3EB124F46D12B68980743D450
:10B4C00024E001F11200062204F1280177F6B2FC13
:10B4D0000546002838D1009A204602F10E010832B4
:10B4E00085F678F8284632E0204685F649F80128A6
:10B4F0002AD0009A204602F10E01083285F66AF839
:10B5000022E0204685F63CF801281DD0D4F85831B9
:10B510000133C4F8583119E001F10800062204F1A2
:10B52000280177F687FC88B1286810F008000ED053
:10B5300020469DF817200099FFF7FEFD07E0052043
:10B5400005E04FF0FF3002E0002000E0042006B0EC
:10B55000BDE8F081D4101800F8B5076805464FF42F
:10B56000BC700E46FFF727F90446B0B100214FF436
:10B57000BC7277F6F7FC2760C4F8686104F1280014
:10B5800031690622DE3177F669FCD5F86031C4F8FE
:10B59000603195F8643184F864312046F8BD70B5A7
:10B5A000031D044601E005F13C031D68002DFAD19E
:10B5B0001960A36821690133A3602368986887F63E
:10B5C0004FFA236821692A4698682B46BDE87040E7
:10B5D00087F622BA2DE9F34746680446002E39D093
:10B5E000D6F80480D6F83890D6F814A0456915E04E
:10B5F0006F6897B12A46E96800230CE00432D068EE
:10B60000404507D1CDF800A04146A86832464B46D8
:10B61000B84702E001338B42F0D12D68002DE7D10D
:10B62000F36B20466360314685F672F9A368013BEF
:10B63000A360636873B123682169986887F610FA7C
:10B64000236821692A4698682B4602B0BDE8F04776
:10B6500087F6E2B902B0BDE8F08770B50C4661B17B
:10B6600058B106688D5945B1A86A08B1FFF7B2F81C
:10B670002846FFF7AFF80023A35170BD30B14368EF
:10B6800000221B6883F86A21FFF7A4B87047000006
:10B6900070B5054686B02820FFF78DF804460028CF
:10B6A0002FD00021282277F65DFC2B68A3600026AE
:10B6B000AB680421E36028466B68324623610823A7
:10B6C0006560A382104B0096019460F00FFEB042BB
:10B6D000206012DB0D4B8DE84800234628680C499A
:10B6E0000C4A02960396049605969BF6C3FF20B972
:10B6F00001222B6883F86A2103E02046FFF7BEFF92
:10B700000024204606B070BD5BB61800CDB7180007
:10B7100018971D003C971D002DE9F8438F790446CA
:10B720000E46D0F80480D0F80090002F35D1342098
:10B73000FFF741F80546002833D020463146FFF791
:10B740008CFF46F8095039463422284677F60AFC21
:10B75000A38A05EB0309D8F8E426D42045F8038032
:10B760002369C9F80C30E368C9F80830A368C9F840
:10B7700004300223C9F81420C9F810602B6001239B
:10B780002B71FFF718F8C9F8200070B13946D422A0
:10B7900077F6E8FB3846BDE8F8836FF00600BDE8B1
:10B7A000F8834FF0FF30BDE8F88320463146FFF7BD
:10B7B00054FF4FF0FF30BDE8F8830368CB581BB14E
:10B7C00002221A6001221A7100207047F0B58DB074
:10B7D000002304461799174640680B93149EBCF645
:10B7E0005DFA05468379002B56D1139B032B04D9B0
:10B7F0000BA81299042277F631FB012F236803D09E
:10B800002CD3022F4BD142E020462946FFF784FF7C
:10B810000746002845D12268A38A314601A8AC58C2
:10B820002822E41877F61AFB01A91022206A8C302E
:10B8300077F614FB206A05A910229C3077F60EFBE0
:10B84000206A09A908225C3077F608FB206A09A95A
:10B850006430082277F602FB384624E0EB5803B345
:10B86000A78ADF190021282201A877F67BFB396A15
:10B870000822643109A877F6F1FA01A93046282296
:10B8800077F6ECFA20462946FFF7E7FE07E0204668
:10B890002946FFF792FF06E06FF0060003E0002064
:10B8A00001E04FF0FF300DB0F0BD00002DE9F34195
:10B8B000B2F81CC00E6905460F461446002E00F073
:10B8C000E980D0F8E426002A00F0D5800168D1F89C
:10B8D000203113F00C0800F0D48010683058002894
:10B8E00000F0CB8094F82C80B8F1000F40F0D180AC
:10B8F0001CF4804C2AD1228C12F0040840F0BF8046
:10B9000023F0040213F00803C1F8202100F0BD80E9
:10B9100062480822616877F68DFA002840F0B1800D
:10B9200063685A7A032A93F80E8040F0B28018F0C8
:10B93000080800F0A680A26828463146083A083375
:10B94000009207F1140293F64BFA74E06668F378FC
:10B9500013F0200FA36803D00836A3F1080C02E00F
:10B960000436A3F1040C3378AA2B40F0928073784C
:10B97000AA2B40F08E80B378032B40F08A80F778B2
:10B98000002F40F08680317900297CD173795BB932
:10B99000F1880F0A47EA0121414F09B2B94274D038
:10B9A0004437B9420DD170E0F82B70D1F3881F0AEB
:10B9B00047EA03233A4F1BB2BB4202D04437BB4293
:10B9C00065D1F388190A41EA032336491BB28B4239
:10B9D0005FD17389190A41EA0323ACF10C0C9BB2C5
:10B9E000634528D8978AC719337A87F82830737A3D
:10B9F000032B4ED1337BFE2B01D0022B49D13B6A66
:10BA000007F118003969B1F85A20A3F8CE204FF693
:10BA1000FE72D8315A8206221A6077F61FFA012286
:10BA2000384687F82920B11F47F0E7FED5F8A4383B
:10BA30005A6B01325A632B685A6BAAB1D3F88C3017
:10BA40006169CA89184802F00702825C1748865C5F
:10BA50000C36686803EBC6067368B7680133736019
:10BA600078F652FDC019B06068680022616901264D
:10BA7000FEF7E2FE0EE016460CE006460AE06646D9
:10BA800008E0464606E03E4604E01E4602E00E465A
:10BA900000E000263046BDE8FC8100BFB090080001
:10BAA000F380FFFF8E88FFFF7A2B08006C3A0800B6
:10BAB000F7B503890268074645691668002B23D14C
:10BAC00085F6CAF8002842D0D5F82031DA8B7AB949
:10BAD0001A78022A0CD1596C51B91B7A43B1284605
:10BAE0000BF0DBF9284603B0BDE8F040D3F6DEBF2B
:10BAF0004FF0FF32002301923046294605F1D8026B
:10BB0000009309F0A0FC22E0918970685918FEF7B3
:10BB100071FE3B68044618B99A6801329A6016E0D3
:10BB200080689B89A289F968C018D31A3A89A060F5
:10BB3000A38177F693F9E37F43F004033046E3777C
:10BB40002146EA6803B0BDE8F0400FF07DBA03B0CB
:10BB5000F0BD2DE9F043074687B0D0F808900C46B9
:10BB6000C56A19B12E464FF0000807E0D9F89C02CB
:10BB70004B2123F00BF90028F4D131E0716C39B37B
:10BB80003CB1BB6800225868FEF756FE0023736480
:10BB90001BE008F10201490169188B6800940194C7
:10BBA0000A330294C868039048460A691431049223
:10BBB0004B220591214605F093FF48B9BB68224608
:10BBC000716C5868FEF738FE7464EB6B013BEB63F5
:10BBD00008F101082036B8F1080FCFD1002001E0AC
:10BBE0006FF0180007B0BDE8F08370B5C46A002597
:10BBF0008E68D4F8483106F10A01D4F844014FF0B8
:10BC000008029D424FEAC503184408D177F626F989
:10BC1000D4F8483100200133C4F8483170BD77F6BC
:10BC200009F920B9636B01200133636370BD0135ED
:10BC3000B5F5FE7FDDD1002070BD10B583680446E8
:10BC40009868216886F60CFF0023237110BD38B573
:10BC50000446836800252168986886F601FF2571EF
:10BC6000A06811F07DFC0146A068D0F86C220BF0B2
:10BC7000DBFAE560E36A93F85011012907D1A36864
:10BC80002A461869B9F684FCE36A83F8505100200B
:10BC900038BD002311F0F00F10B582F82830D46AB7
:10BCA00002D0E36A0133E3622368226A9A420CD32A
:10BCB000E26852B1A2689A4207D2002100690A469E
:10BCC000B9F666FC012384F8503110BDD0F85C3819
:10BCD00073B5DE6A044603680D461B7E002B37D021
:10BCE00059B30422D0F86C12002599F663FF236A39
:10BCF000012118693DF01CFD236A2A4694F8681456
:10BD00000095186901233DF04FFD2046A0F678F913
:10BD1000382120469DF674F9382140F0040220466F
:10BD200092B2A1F691F820466FF0020106F11802D6
:10BD300048F2020311F03FFF06E0A0F661F9204649
:10BD40006FF00201A2F6C4F9204699F68FFD01E0DA
:10BD50006FF0030528467CBD38B540F224700D46CF
:10BD6000FEF72CFD0446B0B10B490622103077F6E1
:10BD700075F804F11D000949032277F66FF87F2357
:10BD800001202377DD2384F82030002384F821303C
:10BD90000723E3826C6138BDD0F3070098631D0070
:10BDA0000146037933B90120087188680968806801
:10BDB00086F632BE70470000F7B587680546C46A4C
:10BDC0003B681B7E1BB9C3606FF0030796E00369F5
:10BDD000042B57D1E2682368D318226A9A420ED303
:10BDE00094F850313BB1386901210022B9F6D0FBFB
:10BDF000002384F85031002323620223EB60636840
:10BE0000226A9A42EB6812D3A1688A420FD2032BAE
:10BE10001CD00323384680210122EB6007F0D4FBBD
:10BE200038460021D7F86C220BF0FEF90EE0032B08
:10BE30000CD138468021002207F0C6FB384601218C
:10BE4000D7F86C220BF0F0F90223EB602368226A2A
:10BE50009A4217D3E268AAB1A2689A4212D100218D
:10BE60000A463869B9F694FB0123216A284684F80A
:10BE70005031E368AA695A43C91821620421E96074
:10BE8000002132E095F828601EB1A36A0133A36255
:10BE900010E001231A4A384685F828306B698DE88E
:10BEA000240003F10802D7F86C1210330BF021FDC7
:10BEB0000746F0B9636AAA69013363622B69033BE1
:10BEC000012B10D8216A23680131994221620AD3DB
:10BED000A068984207D0E3682BB102FB0322CB187D
:10BEE00023620423EB6028460021FFF759FF002757
:10BEF00004E085F828602846FFF7A9FE3846FEBD15
:10BF000093BC18000369012B03D0C368023B022BCA
:10BF100001D8FFF751BF0020704700220271FFF7E0
:10BF2000F1BF70B505460B680024AB610E464B6847
:10BF3000C06A0A690360CB684360D3184FF480720B
:10BF400083608B682146C360046244628462C46279
:10BF5000046344638463C463C0F84C41443077F69F
:10BF600001F806F1140140F2247285F8284068694E
:10BF700076F674FF02232846EB60FFF7CEFF2046DB
:10BF800070BD38B5D0F85C480D46032204F124009A
:10BF9000013176F64FFF58B92B79032B0BD92218B4
:10BFA000127FFF2A04D0934204D001300828F6D132
:10BFB000002038BD012038BDD0F85C38186902383F
:10BFC00002288CBF00200120704710B58468002231
:10BFD00001611346B4F8661420691DF0C7F82046C5
:10BFE000FFF7EAFF01462046BDE81040FFF76EBEAE
:10BFF000F8B5C46A0646876800252346226C1AE015
:10C000002033586AB0B9AB1C0A6868015B01E318B9
:10C010005A604A689A6023188A6803F15400DA6407
:10C02000CA6810311A65102276F618FFE36B0133E7
:10C03000E36302E001359542E2D1236C013B9D426E
:10C040000CD33046FFF703FE00213046FFF7BDFF5B
:10C0500001213846C4F84C114AF07DF90020F8BDA2
:10C060002DE9F041069E0446089D099B222A00F214
:10C070001481DFE812F029002B00120112013000B8
:10C0800037003E0045004C005600120176000F01BB
:10C0900061007A007E008A00120112018D00920078
:10C0A00012011201A200A7001201120126001201C2
:10C0B00023001201F300010112010C013746002593
:10C0C000AEE0374600258CE0036950E02968BDE802
:10C0D000F041FFF77ABF072B40F3E380284604F1D5
:10C0E0001C0104E0072B40F3DC801C3029460822A9
:10C0F00092E0022B40F3D580284604F1240104E0AD
:10C10000022B40F3CE8024302946032284E0C16A0A
:10C110000B7C2B704B7C6B70E81C4B691831AB703F
:10C1200008E0C06A3378F11C037473784374B37801
:10C130004361183006226FE082681268127E002A7E
:10C1400000F0B380B3F5E76FC0F0B380FFF77FFD79
:10C15000002840F0B48020463146BDE8F041FFF7AA
:10C16000E0BEBDE8F041FFF772BDC36A1B6C2B60F7
:10C1700090E0C36A3068082800F29F8018B908224E
:10C180001A64BDE8F081186484E0C36ADB6BEEE7F3
:10C190003168BDE8F041FFF7DCBCC36A5A6A2A6027
:10C1A0009A6A6A60DA6AAA605A6B2A619A6B6A6153
:10C1B0001A6BDB6BEA60AB616CE0002180684AF0CF
:10C1C000CAF867E000214FF47E62284676F6CAFE80
:10C1D000E36A2846D3F84821D3F84411D2001BE083
:10C1E00001353846374908224FEAC50876F622FE5F
:10C1F00018B10837B5F5FE7FF2D1E36A00214FF49C
:10C200007E62D3F8440176F6ADFEE36A31464246DB
:10C21000D3F84401C3F8485176F620FE3AE00135E0
:10C220003846284908224FEAC50876F603FE18B1B9
:10C230000837B5F5FE7FF2D1E36A42463146D3F8BE
:10C240004801D3F8443103EBC00076F607FEE36AF9
:10C25000D3F848215519C3F848511BE0C36A00219F
:10C260004FF47E62D3F8440176F67CFE0020E36A48
:10C27000C3F84801BDE8F081C36A3068D3F84C21A7
:10C280002A60E0B10020C3F84C01BDE8F0817CF6E3
:10C29000F7F828600020BDE8F0816FF01600BDE8D7
:10C2A000F0816FF00100BDE8F0816FF00300BDE8A0
:10C2B000F0816FF00D00BDE8F0816FF01C00BDE86B
:10C2C000F08100BF38981D0008B5D0F85C381B69B4
:10C2D000042B09D1012901D8C82A07D9D0F8300187
:10C2E00015F047F9012008BD002008BD002008BD59
:10C2F0002DE9F04FD0F85C489A468FB00746236985
:10C300000D469046033B012B199EDDF868B0D4F82A
:10C310002C9077D8032204F12400711C76F68AFD54
:10C32000024600286ED13379072B6CD1B17999F888
:10C33000103099420AD804D1F17999F81130994214
:10C3400004D8D9F81430327A1A4003D1A3682946A8
:10C35000586853E0D9F83030384651460133189ABE
:10C36000C9F830300AAB0695CDF81C800896CDF898
:10C3700024B003F03FFC2369042B1FD1A36893F87A
:10C38000C86726B1E26A916B0131916333E02046C0
:10C3900006A9FFF72AFC20B1A3682946324658684F
:10C3A0002CE07CF66DF806A900BA0C902046FFF749
:10C3B0001FFED0F1010038BF002024E0032B04D180
:10C3C000204606A9FFF711FCA0B9D7F89C024B2123
:10C3D00022F0DCFC70B10AAB0021059338464B22F9
:10C3E00008F10A030091019102910396CDF810B073
:10C3F00005F076FBA368586829460022FEF71CFA70
:10C40000012000E000200FB0BDE8F08FD0F8E0354B
:10C41000D869003018BF01207047000000487047FD
:10C4200090E51D0070B5846894F8215215B18979A2
:10C43000002958D094F82212002956D1406890F86B
:10C440004550002D53D1D48914F4007091688A8925
:10C450000BD0100A40EA022212B2B2F5006F19D0D6
:10C460002448824216D0284670BD150A45EA0222A9
:10C4700012B2B2F5006F05D1CA7D062A0AD0112A80
:10C4800008D070BD1B4DAA4232D10A7D062A01D0C8
:10C49000112A2DD1488863B90A8810438A8810432D
:10C4A00080B220B10B7803F0010383F00103D8B20E
:10C4B00070BD9A685588168868400D887540284375
:10C4C00095888A886A40104380B248B9D88904F0B8
:10C4D000070400F00700231A584240EB030000E075
:10C4E0000020C0B270BD084670BD002070BD084677
:10C4F00070BD00BFDD86FFFF0020704770B5144699
:10C500001E4685689A6829B10B79022B02D1096908
:10C5100014310AD1A17909B1002107E0237C13B1BC
:10C5200004F1D80202E0194600E00A46D4F81031BE
:10C53000588E00F44040A0F5404CDCF1000343EB82
:10C540000C0349B9217C39B11178C90704D42846B4
:10C550002146DFF689FB15E01178C9070ED5D4F81E
:10C56000E8305B0534D4A0F5404CDCF1000040EB32
:10C570000C000E3004EB8000406803E028462146A2
:10C58000DFF674FC20B3C36833B9A36E581C1FD008
:10C5900004EB8303DB6EDBB11A7A022A18D095F81C
:10C5A000B412A9B9216D090712D40B2A06D12A6841
:10C5B00092F8B12062B19A79072A09D89A792B6842
:10C5C000D3F8BC309A4205D2B069C0F3407070BD58
:10C5D000012070BD012070BD2DE9F84304461420F0
:10C5E0000D4616469946FEF7E6F80746D0B11420E8
:10C5F000FEF7E1F8804600281DD00423124A80E8A7
:10C60000580200230761F8603846FB80BB803D601C
:10C61000BA603B61F7F718FA68B9BDE8F88340469D
:10C62000FEF7D8F875B16368294601225869BDE85C
:10C63000F843FEF701B93846FEF7CCF8B8F1000F21
:10C64000EDD1EFE7BDE8F88309C918002DE9F843FB
:10C6500091F8128000234FEA88088B834FF0006323
:10C660005FFA88F807460C464B63B8F1000F47D0D5
:10C670008E680025735D052B06EB050921D1AA1CE8
:10C68000B31898780004597840EA0120B15C40EA78
:10C690000102DB7842EA0363626B1343636397F83A
:10C6A0008C3003F00803DBB2A3B1AA1DB31859788C
:10C6B000B35C43EA012303F4805292B252B1A383E4
:10C6C00008E00C2B06D1B86899F8021099F80320FD
:10C6D000DFF680F999F80030FF2B01D1013504E035
:10C6E000AA1C75196B7853FA82F5EDB24545C1D392
:10C6F000A3684344A360A389C8EB0308A4F80C8093
:10C70000D7F8883023B1D3F894200132C3F89420AD
:10C71000A38943B97B68214601225869FEF78CF84A
:10C720000120BDE8F8830020BDE8F88310B50C4671
:10C7300041B18B6823B9C06F0968FEF70DFFA06097
:10C74000A06810BDC06F10BD70B506461D460C46F2
:10C7500001B10968106D40F23713034023B1304630
:10C760002B46FFF7CBFEC0B9736893F82F3043B167
:10C7700030462146FFF7DAFF18B12946FEF7C2FD21
:10C7800068B9AB68187B5B7B43EA002048F68E03F0
:10C79000C31A584240EB030070BD012070BD012058
:10C7A00070BD00002DE9F04F8C6987B08B46059075
:10C7B00015462369994204D0CF6A1FB1D7F800A06B
:10C7C00001E00027BA46A0685146BBF667FAEB893C
:10C7D00013F40073029004D0B5F85030003318BF42
:10C7E000012300260493B0460196B14674E0454B00
:10C7F000EA8A1B6853F8223003930023EB82049BE0
:10C800006BB120463946029A2B46FFF79DFF30B1A7
:10C8100020462946059A5B46FFF7DEFE5BE063682B
:10C8200029465869FEF730F8054629462046FFF7A5
:10C830000DFF00284FD1636893F82F3083B1204655
:10C840003946FFF773FF58B1294683F627FB0228C4
:10C8500006D16368294601225869FDF7EDFF3AE0E9
:10C860002046294686F6EAF9636893F93E303BB3E1
:10C87000204602992A464346FFF7D4FD019050B165
:10C88000EB8943F48053EB811EB12B88F3822E4653
:10C8900001E02E46A846B8F1000F11D0039B0BB162
:10C8A000019BC3B94146A06852460EF0CDFB00285B
:10C8B0000CBF80464FF00008464618BF4FF00109F4
:10C8C000019B43B9A068294652460EF0BDFB0028E3
:10C8D00018BF4FF00109039D002D88D1636893F9BB
:10C8E0003E305BB1B8F1000F08D0A0684146524617
:10C8F0000EF0AAFB002818BF4FF00109484607B008
:10C90000BDE8F08F20101800F8B50C461546976862
:10C91000D668136900B100880022A0821846A4F8E6
:10C920005020A4F8522084F83C20FDF753FF2846FD
:10C93000FDF750FF384631462246BDE8F840FFF784
:10C9400031BF436830B5D3F8983085B0044623B181
:10C950001A780AB15B8900E01346D4F8882092F86F
:10C96000B010002940D0002B3ED08B423CD092F832
:10C970007A00584390FBF1F182F87A10D4F88820BD
:10C9800092F8B00092F87C10594391FBF0F182F8D4
:10C990007C10D4F8882092F8B00092F87D105943AA
:10C9A00091FBF0F182F87D10D4F8882092F8B00065
:10C9B00092F87E10594391FBF0F1DBB282F87E10C1
:10C9C000D4F8882092F87A10591A92F87C00091A43
:10C9D00092F87D00091A92F87E00091A82F87B10FD
:10C9E000D4F8882082F8B030D4F8883093F8B810A2
:10C9F00093F8B02091421CD07A330025029306238D
:10CA0000A0684A2103932A462B46009501959AF681
:10CA100089FC2A462B46A0687F2100950195029546
:10CA200003959AF67FFCD4F8883093F8B02083F809
:10CA3000B82005B030BD73B5846900220221009290
:10CA40001346A0689AF66CF8054660B92946A068B6
:10CA5000BBF624F906462046FFF773FFA0680121C4
:10CA6000F26804F0D5FF28467CBD00002DE9F347AD
:10CA70001F46036905468A469146D3F82480B8F1DB
:10CA8000000F2FD04420FDF796FE044600282AD040
:10CA900004F114064422002176F664FA66602760E9
:10CAA000FFF7BCFCBAF1020F6B684FF01001E562B2
:10CAB0000CBF114A114A60623046CDF80090DB6825
:10CAC00076F6B6FA0E4B2464404631461B685B6826
:10CAD000984700280ADD78713946E86FFEF73CFD7B
:10CAE000A06000E044462046BDE8FC872046FDF7F4
:10CAF00071FE0024F7E700BF8C991D000AD10800E1
:10CB0000C0101800806810F075BC000038B50546EC
:10CB10000C4609482246094976F64AFAA868214691
:10CB200010F046FC3CB1D5F8B00000210122BDE870
:10CB3000384000F011BC38BD95991D00079A1D00C2
:10CB400030B5144682690D4685B01169884203D01C
:10CB5000C16A11B1096800E000210093089B0193AC
:10CB60009DF824300293234690682A4610F018FB63
:10CB700080B205B030BD10B5044680680AF0B1FD42
:10CB800004F14000F6F70CFCE36893F8AC3013B105
:10CB9000A068C8F615FA002010BD000038B504469C
:10CBA000806863681B7E7BBB07F07FFB054620B96E
:10CBB000D4F8800084F66AF90546F6F777FB6368D7
:10CBC000D3F8981049B10B783BB1114B002218688B
:10CBD000FCF7E3F92046FFF7B4FE6368D3F80011D1
:10CBE00031B10B7823B10A4B00221868FCF7D5F954
:10CBF0006368D3F8081141B10B7833B1044B0022BC
:10CC00001868FCF7CAF900E00025284638BD00BFC7
:10CC10001CF21D001FB5084A034600920846074A49
:10CC20000192074A0749126802921A68064B76F683
:10CC300011FC05B000BD00BFE3991D00086E1D008A
:10CC40007CF21D00B4991D00D7991D00D0F8B000EA
:10CC5000704708B1D0F8880070470020704701295C
:10CC600001D19068704702290CBFD068002070473E
:10CC70002DE9F84F04460D461646FFF7E7FF8246BA
:10CC800015B9D4F8108001E0D5F80480B6F80E90FC
:10CC9000C9F3C029D8F82470D6F808B0B9F1000F4C
:10CCA0004BD12046314685F6BFFF9BF80C209BF800
:10CCB0000D3043EA0223B3F5014F05D19BF8042060
:10CCC0009BF8053043EA0223626892F82F20002A7D
:10CCD0002DD0B3F5C06F03D340F6060293422CD19A
:10CCE00020462946FFF722FD83463DB1296821B140
:10CCF000A068BAF6D3FF054600E00D46BBF1000F71
:10CD000017D058463146FEF717FB042804D00528F3
:10CD100011D0012811D105E025B1AB7913B195F8F7
:10CD20003B3053B9636831460022586953E01546D9
:10CD300004E05D4602E0012500E00025BAF1000FA5
:10CD40000FD05046314600F0D3FD0128034607D0EE
:10CD5000022844D028B96268314650691A463AE040
:10CD60000546002F33D0B9F1000F1ED1FB69DB0758
:10CD70000BD5637D4BB12046314686F61BF920B9B1
:10CD8000636831464A46586925E075B9636893F887
:10CD9000923053B1D4F8840031463FF076FC20B98C
:10CDA000636831462A46586915E063683146586918
:10CDB000FDF77EFD3B693946DB6804462246404666
:10CDC000984760B12046BDE8F84FF6F751BF636859
:10CDD00031463A465869BDE8F84FFDF72DBDBDE82C
:10CDE000F88F43682DE9F0419789063F064639469A
:10CDF00058691546FDF7FEFC0446B8B1A9683A46E5
:10CE00008068063176F62AF895F8203084F82030CC
:10CE100095F8233084F823303046EB6A0021E36232
:10CE200022460123BDE8F041FFF722BFBDE8F081B3
:10CE300070B509B9066900E04E6843681146756A25
:10CE4000586975B1FDF734FD2B692946DB68044646
:10CE500022463046984748B12046BDE87040F6F774
:10CE600007BF2A46BDE87040FDF7E6BC70BD00690B
:10CE700030B5406A85B050B1046964693CB1089D21
:10CE80000095099D01950A9D0295A04701E04FF08C
:10CE9000FF3005B030BD016910B5486A28B101699D
:10CEA0008C6914B111461A46A04710BD08B5036934
:10CEB0002BB1586A18B103699B6A03B1984708BD42
:10CEC00008B5034B00691B68406A9B6A984708BD18
:10CED000C01018007FB50D7806460C466846002144
:10CEE0000E2276F63FF86B1E142B35D8DFE803F0E0
:10CEF0000B0B3434340F0F341C1C343424343434CE
:10CF0000343434202000A3788DF802301DE00DF178
:10CF10000700A378211D06228DF80230E3788DF8F2
:10CF2000043075F69BFF10E0A3788DF804300CE018
:10CF3000A3788DF8033008E0E3788DF80230237988
:10CF40008DF80330A3788DF80630304629466A46BE
:10CF5000FFF7B6FF002001E04FF0FF3004B070BDD6
:10CF6000FFF7B8BF38B51D4691F83D30012D43F0AD
:10CF700008030C4681F83D30886803D113780371AB
:10CF80008D8138BD114604302A4675F667FF2B1D8A
:10CF90000735A381AD08A57438BD10B504460088D7
:10CFA0006168F6F752FC002363606380238010BD44
:10CFB00038B5436804460D4613B9418001800AE044
:10CFC0002AB108462188FBF761FF258003E04088ED
:10CFD000FBF75CFF6580636800200133636038BD48
:10CFE000F8B5088A0D4E17468A8A336853F82240EE
:10CFF00010E0258A85B12946FBF748FF2FB1E38968
:10D000006FEA43436FEA5343E3813368A28A2846B9
:10D0100053F82240002CECD1F8BD00BF20101800BE
:10D020000020F6F7C7BB10B5436804461B7E7BB1F2
:10D03000D0F8800083F616FFA06807F0F5FC002109
:10D040006368204683F82010BDE81040FFF7E8BF72
:10D0500010BDF8B5836805460F465E6B036836362B
:10D06000B6B258683146FDF7C5FB044658B139469B
:10D070003246806875F6F2FE2868214600220DF0DF
:10D08000E3FF0020F8BD4FF0FF30F8BDC36C0BB9D3
:10D09000C164026562B1022A02D9042A08D102E001
:10D0A0004FF4801101E04FF40031006849F038B9C5
:10D0B000002070472DE9F041A4B0002306462393D9
:10D0C00014462B9B2A9F032B2C9D04D923A8394659
:10D0D000042275F6C3FE082C00F22F81DFE814F05D
:10D0E00009002D0174002D012D01C400FB002D014C
:10D0F0000701742201A8394675F6B0FE0B9B402B40
:10D1000000F21E817368032B00F31D81B4680127B0
:10D1100057E0B4F83280B8F1000F50D1BDF80830B4
:10D12000BDF80A20238503A96285A01D062275F695
:10D1300095FE3368062220461968043175F68EFE86
:10D140000DF11201042204F10C0075F687FE042291
:10D1500004F110000DF1160175F680FEBDF81A30CD
:10D1600023839DF82030002B08BF2023BDF81C200E
:10D17000A282A376BDF81E30E382BDF83220099B5F
:10D18000E3610A9BA2840B9A2362BDF83030A4F8B5
:10D190002E80E384A4F82C8067862F60626322B11E
:10D1A00004F138000DA975F659FE1D9BC4F88830AE
:10D1B0000523C4F88C30736801337360ABE0A46F4F
:10D1C0000137002CA5D1BEE01EA83946142275F601
:10D1D00045FE1E9B002B00F0B980B4680CE0628E07
:10D1E0009A4208D11F9B002284F83030012BA2857F
:10D1F000E28519D103E0A46F002CF0D1A6E0726C97
:10D2000022B932687364126882F86B313368B16C8A
:10D21000986885F625FC3368B16C4FF47A7298688B
:10D22000002385F6F9FB14E0B268002302E092F8CF
:10D230003030926F12B1002BF9D00AE04BB932684E
:10D240007364126882F86B313368B16C986885F644
:10D2500007FC638E2B601F9B6B60238B2B81E36924
:10D26000EB60236A2B6156E0BDF88C30002B6DD04B
:10D270007268002A6ADDB4681FE0628E9A421BD190
:10D280000025D4F8801084F83050658631B13368B9
:10D290002A465868FDF7D0FAC4F880503368D4F8AD
:10D2A00084104FF00004986885F6DAFB7368013B40
:10D2B000002B73604CDC03E0A46F002CDDD145E053
:10D2C000336874641B6883F86B413368B16C986889
:10D2D00085F6C6FB3CE04C3631460822284675F6FA
:10D2E000BDFD30460021082275F63CFE13E0B4680F
:10D2F00020E03B68628E9A421BD1D4F88020AAB10C
:10D3000001232B6079689942316806D1486811463B
:10D310000022FDF791FA00241AE088682F998968A5
:10D32000FFF786FD0022C4F8802000E02A60144642
:10D330000EE0A46F002CDCD108E06FF0160407E0CB
:10D340006FF0170404E04FF0FF3401E06FF01D04AC
:10D35000204624B0BDE8F0812DE9F04100270446C5
:10D360000D4690468668476415E015B1738EAB4252
:10D370000DD10023B385F38586F83030B8F1000F66
:10D3800005D02368D6F88410986885F669FB96F86E
:10D390003030B66F1F43002EE7D123681B6883F837
:10D3A0006B71BDE8F08110B50446FFF76FFE28B140
:10D3B000204600210122FFF7CFFF012010BD70B5EC
:10D3C000C56F04460222618E2846FFF7ECFF034634
:10D3D00058B1AC6806E02B68D4F88410986885F6DC
:10D3E0003FFBA46F002CF6D170BDD4F88C20511EE9
:10D3F000002AC4F88C1009DB2A68D4F884109068DD
:10D400004FF47A72BDE8704085F606BB70BD70B50A
:10D410000024490823460AE030F8025B0AB15B1990
:10D4200004E02E0A46EA052513FA85F301348C42FE
:10D43000F2D1184670BDF0B5841C0D460BE034F8EF
:10D44000026C2AB1370A47EA062613FA86F300E08F
:10D450009B19023D0234012DF1D84A08C90744BF87
:10D4600010F812209B189AB202EB134303EB1343FC
:10D47000D84380B2F0BD2DE9FF470D4692461C46C9
:10D48000002B00F0A48018460631062275F6E6FC53
:10D4900029460622A01D4FF0000875F6DFFC082380
:10D4A00004F11E07237305F1100184F80D80042296
:10D4B000384604F11A0675F6D1FC05F10C01042278
:10D4C000304675F6CBFC452384F80F8004F10E0935
:10D4D000A37348466B6B142128339BB21A0A42EAA5
:10D4E000032323822B8B1A0A42EA032384F8158034
:10D4F0004246638240232375AB7EA375062384F8DE
:10D500001880E375434684F8198004F12208FFF778
:10D5100092FF2083AB8A1A0A42EA03236384EB8AD0
:10D520001A0A42EA0323A384EB69BAF1000F04D07C
:10D530006A6B0AB19B1A00E0013B1BBAC4F82630A3
:10D540002B6A1BBAC4F82A30AB8C1A0A42EA0323AE
:10D550002386002384F8323084F8333084F8343062
:10D5600084F83530EB8C43F4A0439BB21A0A42EAAC
:10D570000323E3856A6B2AB104F1360005F1380113
:10D5800075F66CFC3946042202A875F667FC314634
:10D59000042201A875F662FCE37D8DF80D300026AB
:10D5A0006B6B0C2101A814338DF80C609BB21A0A26
:10D5B00042EA03230122ADF80E30FFF728FF696B22
:10D5C0003246143103464046FFF735FF6086BDE81A
:10D5D000FF8770B50546846800201CE094F8306031
:10D5E000012E17D1228DAAB1A38D93420FD1EB6BDF
:10D5F000284621463246FFF73EFF2846E96BFFF7F3
:10D6000028FD0023A385238B0133238301E001330D
:10D61000A3853046A46F002CE0D170BD436C70B57B
:10D6200005468468002B1AD170BD94F83060012E35
:10D6300014D1628D92B1E38D93420DD1618E284653
:10D640000422FFF723FD0146002818D12846324660
:10D65000BDE87040FFF780BE0133E385A46F002C66
:10D66000E3D12846FFF7B5FF48B12B684FF47A7233
:10D67000A96C98682346BDE8704085F6CDB970BDA9
:10D680008B890D2B2DE9F04F044689B08B468D68B0
:10D6900040F32681297B6A7B42EA0122B2F5C06F02
:10D6A00001DB0C350CE0152B40F31A818F4805F196
:10D6B0000E01062275F6BEFB002840F011811435DC
:10D6C0002A786B7843EA0223B3F5006F40F00881B3
:10D6D000EB7A062B40F004812B894FEA132848EAA5
:10D6E00003284FEA88484FEA9848B8F1000F40F005
:10D6F000F780AE7806F00F06AF89A81CB60085F853
:10D700000C8042461FFA86F985F80D80494643464B
:10D71000FFF791FEB84240F0E38005F11202A881C4
:10D720001146019205A8042275F698FB05F10E0337
:10D7300019460422023604A8AE19029375F68EFB30
:10D74000EB7A8DF818808DF81930AB881D0A45EA00
:10D750000325C9EB05050C21ADB201222B0A43EAD2
:10D76000052304A8ADF81A30FFF751FE378A294681
:10D7700086F81080424686F8118003463046FFF74F
:10D780005AFEB84240F0AC803082A768A5E097F816
:10D7900030A0BAF1010FBB6F039340F09D8007F1F9
:10D7A0001000B7F8328002990422D7F8889075F6F5
:10D7B00041FB002840F0908007F10C000199042201
:10D7C00075F638FB002840F0878073881A0A42EA11
:10D7D0000323BA8A9BB29A427ED133881A0A42EA5C
:10D7E0000323FA8A9BB29A4276D1022207A806F155
:10D7F0000C0175F633FB9DF81D3058079DF81C2071
:10D8000026D5E36C1BB90223C4F84C80236519F1BB
:10D81000020F03D12046414602224DE00022B9F119
:10D82000FF3FC7F880B02046414602D1FFF794FD84
:10D830000CE0FFF791FD23684FF47A72D7F884105B
:10D840009868002302FB09F285F6E6F8022049E019
:10D8500003F03F03102B06D0204641465246FFF707
:10D86000A2FD50463EE073681209396A1BBA0139BD
:10D8700092008B421BD1954202D00132954218D1C1
:10D88000B368002220461BBA3946FB61E36BFFF701
:10D89000F2FD2046E16BFFF7DCFB3B8B01333B8362
:10D8A0002368D3F8A4381A6B01321A6312E0954248
:10D8B00006D0204641460122FFF775FD012011E008
:10D8C0003A8D4AB1A28AE2820022FA85B2683B62AE
:10D8D00012BAFA61002005E0039F002F7FF457AFD2
:10D8E0004FF0FF3009B0BDE8F08F00BFD49A1D00A3
:10D8F000436C0BB1FFF7C4BE4FF0FF30704790F997
:10D900002100704710B5044600688DF663F8A079D1
:10D91000002814BF02204FF47A7010BD026830B5A1
:10D92000D2F86C32D468984228D192F892322BBB4C
:10D93000D0F82011497B19BBD0F81011007CCD8D97
:10D940006B0060B191F86000434392F82D0208B17A
:10D95000434304E092F82C220AB153006B43D4F8FD
:10D960008001098ED4F88C2109B982420AD39B0226
:10D970001818824294BF0020012030BD002030BD25
:10D98000184630BD012030BD10B50C7804F06000A1
:10D990004011023002EB800302F820404A78002058
:10D9A0005A704A885A8010BD38B50C4611461A463E
:10D9B0001D46FFF7E9FF48B9A3793BB1AB795A1C83
:10D9C00002F00F0223F00F031343AB7138BDD0F800
:10D9D0003C38890010B55B185C68E379E4180133C2
:10D9E0002272D0F83C2851184A68917993FBF1F0E3
:10D9F00001FB1033D37110BD642910DC632921DAD7
:10DA00004A291FD005DC07291FDB08291ADD3C291C
:10DA100012E0502916D018DB5C39032911E0C32924
:10DA200004DCC2290EDAA83902290AE0B1F5847FA4
:10DA300008D003DCB1F5807F07D103E0A1F589713F
:10DA4000012902D86FF016007047002070470020AF
:10DA50007047C88810F0080018BF6FF016007047B4
:10DA6000D0F8CC355889704748F2F303994206D074
:10DA700048F23710091A484240EB01007047012074
:10DA800070478B69D88800F44040A0F5404CDCF129
:10DA9000000040EB0C0070478B69988CC0F380004D
:10DAA000704770470120704730B5056895F85140C0
:10DAB000DCB1006A0468012C04D1B5F8D64014F436
:10DAC000807405E0022C0FD1B5F8D64014F4007430
:10DAD0000BD0D1F8E800400106D4D1F81001B0F81D
:10DAE000BE40C4F3400400E00024D1F81001458E8C
:10DAF000554015F4605015D0087C98B102F460527E
:10DB0000B2F5805F0BD0B2F5C05F01D1181C03E005
:10DB1000B2F5005F05D1201C18BF012030BD0120E7
:10DB200030BD002030BD0B6913B193F84113D1B95A
:10DB3000D0F80812B9B9997919B9006890F82C0091
:10DB400078B902F44070B0F5407F0CD070B1D3F8D2
:10DB50002031187848B1A0F10201484240EB0100A1
:10DB6000704708467047002070470120704710B585
:10DB70000C46FFF7C4FE021B504240EB020010BDF2
:10DB80000022C3B20A6010F040720BD0B2F1807F65
:10DB900002D143F0807305E0B2F1007F2DD1C3B212
:10DBA00043F0007300F440721343C20248BF43F4D1
:10DBB0008013420248BF43F48003020200F4E020D5
:10DBC00048BF43F40003B0F5803F02D143F48033F3
:10DBD00010E0B0F5003F02D143F400330AE0B0F5A5
:10DBE000403F02D143F4403304E0B0F5802F08BF3A
:10DBF00043F480230B60002070476FF001007047F2
:10DC0000C368C3F88011C3F88421704770B50568F4
:10DC1000D0F82805D5F88840666801366660A668A1
:10DC2000B618A66010B1846901348461D1F8F80097
:10DC300010B90C69E46800E0044666690136666163
:10DC400008B90969C868816989188161696B69B116
:10DC5000D5F88C100648C35C0648C35C01EBC303CF
:10DC6000596801315960996852189A6070BD00BFB7
:10DC70007A2B08006C3A08000368586B70B1D3F82F
:10DC80008C00074B9B5C074AD35C043300EBC30357
:10DC90005A6801325A609A6889189960704700BFC3
:10DCA0007A2B08006C3A0800F8B50546D0F83C0815
:10DCB0000F461646F8B18478D5F83C3803EB840358
:10DCC000596851B13846062275F6B4F828B934704F
:10DCD0000120D5F83C389C70F8BDD5F83C28537825
:10DCE0002BB1013494FBF3F103FB1144E4B29378BC
:10DCF000A342E1D10020F8BD4A6810B54C88934298
:10DD000033DBE30603D503681B7E002B30D12107EC
:10DD100003D503681B7E002B2DD0620607D5036850
:10DD20005B6A012B03D990F8D231002B26D0A306D1
:10DD300002D5437E002B24D0610725D414F00303C1
:10DD400025D00299B9F6AAFF002822D0E20702D511
:10DD50008379002B20D114F0020420D08379002B8A
:10DD60000CBF6FF00500002010BD6FF0010010BD6A
:10DD70006FF0040010BD6FF0030010BD6FF00900DC
:10DD800010BD6FF00A0010BD6FF0160010BD1846F0
:10DD900010BD6FF01D0010BD6FF0060010BD2046D5
:10DDA00010BD2DE9F04F89B00C4680469146002108
:10DDB000062206A875F6D6F806A90622484675F684
:10DDC00039F800214FF4197200270190204675F6AA
:10DDD000C9F80123D8F8240103A963600022DDF605
:10DDE0009BFA38E04FF41676019B06FB074608368F
:10DDF00006F1040ABBB105F1140B48465946062248
:10DE000075F618F838BB012305F51A71A36006F101
:10DE10000C004FF4147275F621F85046594606224C
:10DE200075F61CF81FE0A7687B1C062BA36004D9BD
:10DE30000623A360019B636015E005F51A714FF49A
:10DE4000147206F10C0075F609F8504605F114013C
:10DE5000062275F603F8D8F8240103A9DDF672FA54
:10DE600005460028BED1002009B0BDE8F08F38B5C6
:10DE7000D0F83C388D0004465B19586868B1FCF74F
:10DE8000A9FCD4F83C385A78013A5D1903EB8201B9
:10DE90005A70486868600020486038BD2DE9F84332
:10DEA00006460D4617469846D1F8CC90D0F8C8459E
:10DEB00010E0D5F8CC3099450ED1E368AB4208D1DB
:10DEC000A3799B0705D5B0683A46A1684346FEF79B
:10DED000E2FF2468002CECD1BDE8F883F8B5406877
:10DEE00015460C461E4676F60FFBA268471B6A2FA6
:10DEF0007ED9B4F80CC0C5EB0C0CBCF1070F77D978
:10DF00005319525DAA2A73D15A78AA2A70D19A78E5
:10DF1000032A6DD1D87800286AD1197900296AD1ED
:10DF20005A79002A60D1D988080A40EA012132488A
:10DF300009B281425AD1ACF1080CBCF1030F01D9EE
:10DF400008330AE02D4BA28A1B6853F822209368FD
:10DF50009289032A4CD9BA424AD81A78013AD2B2E5
:10DF6000012A45D85A78032A42D15A88110A41EA2F
:10DF7000022292B25E2A3DD91A79022A01D0FE2AE3
:10DF800029D159799A7942EA0122C2F3C005C2F334
:10DF9000C011C2F30020C2F38027C2F3C0246EB1C7
:10DFA000032E18D1ADB1B4B9B8B1C1B9CFB9B3F876
:10DFB0006160D6F1010638BF002613E0930511D445
:10DFC00080B979B152060DD465B15FB984F001060C
:10DFD00008E02E4606E0002604E0064602E026465B
:10DFE00000E00E463046F8BD0846F8BD1046F8BDC4
:10DFF0000020F8BD0020F8BD8E88FFFF201018001B
:10E000002DE9F84300EB4202B2F86C9405460C4649
:10E010009846089FA3F10E06BAF646FC013801287F
:10E0200007D828462146BAF625FC10B1814528BFFD
:10E030008146A9F12A039E4203D23E600120BDE839
:10E04000F883D4F8A4316268D9070E4B54BFA9F104
:10E050001C09A9F1220913400BB1A9F102094E458F
:10E060000CD9237DDA0709D429F00103A8F10F00A8
:10E07000C0183B60B0FBF3F0BDE8F8833E600120C0
:10E08000BDE8F883400001002DE9F04F89B00D464E
:10E09000059317468B69049013F0100FD2F8A43142
:10E0A000DDF848B016BF03F0040A03F0010A5FFA76
:10E0B0008AFAD2F810808E68BAF1000F04D002F10B
:10E0C00014034FF0100902E053464FF00A09796833
:10E0D000844A0A401AB109F102091FFA89F9BBF111
:10E0E000000F04D09BF90E2091441FFA89F9C9EB67
:10E0F0000604AA894A44AC602046AA8100214A4607
:10E1000009F10E09039374F62DFF149A201DA2F84D
:10E110000090039BBAF1000F32D01946062274F624
:10E120009DFE04F10A0008F1DE01062274F696FE57
:10E13000BBF1000F03D17A686A4B134053B13146EB
:10E14000062206A874F68AFE04F1100006A906222B
:10E1500074F684FEB11D062206A874F67FFE06A999
:10E16000062204F1180074F679FEAB69590661D5F0
:10E1700004F1100008F1D801062274F66FFE59E090
:10E1800098F80630F3B13146062274F667FE04F1C2
:10E190000A0008F1D801062274F660FEBBF1000FF8
:10E1A00004D17A684F4B1340002B46D0B11D062294
:10E1B00006A874F653FE04F1100006A9062274F6B0
:10E1C0004DFE3AE098F8103003B33378DA0703D500
:10E1D000D8F80834DB0719D408F1D8010622201D2D
:10E1E00074F63CFE3146062206A874F637FEB11DD1
:10E1F000062204F10A0074F631FE04F1100006A9AB
:10E20000062274F62BFE4FF4807618E03146062283
:10E21000201D74F623FEB11D062204F10A0074F6D7
:10E220001DFE04F1100008F1D801062274F616FE56
:10E23000002604E04FF4407601E04FF400767A685F
:10E24000284B13401BB3A9699DF84C30D8F86023C4
:10E2500003F0070348050DD492F82820012A05D1C0
:10E2600041F4802143F02003A96103E0520102F050
:10E2700060021343AA6946F08006520648BF43F085
:10E280008003BAF1000F0CBF18221E22A352BBF16B
:10E29000000F15D0BAF1000F02D104F1180301E00C
:10E2A00004F11E0379680F4A0A4002B102330120CB
:10E2B000002241468DE805005A460498C8F65EF8EB
:10E2C000059B46F0080613B146F48066B6B2BBF172
:10E2D000000F01D046F480462680204609B0BDE8F4
:10E2E000F08F00BF4000010038B50D4699B1002401
:10E2F0002346EA5C520748BF013401330E2BF8D1A4
:10E3000004B10334C1F6E2FC012805D1AB7B590707
:10E3100002D5043400E00C46204638BDF8B5054669
:10E320000C4616461F46002B36D0002A34D0C1F6C4
:10E33000CDFC012817D1BB7B580714D5492341F2E6
:10E340000E01237002236370D5F85C01C1F604F955
:10E350000E236278E3706FF001039B1AF618023205
:10E36000F6B2A070A4184923023E237041F20101C5
:10E370006670D5F85C01C1F6EFF8E31C6278012AFB
:10E38000A0701C4608D90023F95C490748BF04F86F
:10E39000013B01330F2BF7D12046F8BD70B54E1C61
:10E3A0000546B60030460C46FCF705FAC5F83C08B1
:10E3B00040B10021324674F6D5FDD5F83C381C70CA
:10E3C000002070BD6FF01A0070BD2DE9F84FD0F835
:10E3D0003C38174605465C7888461A782EE0A60039
:10E3E00003EB060BDBF804A0BAF1000F24D107F110
:10E3F00008094846FCF7DFF9CBF80400D5F83C38AB
:10E400009A19506808B91C781AE051464A4674F6C1
:10E41000A9FDD5F83C3806229B194146586874F688
:10E420001DFDD5F83C389E1973689F71D5F83C38AE
:10E430005A7801325A7003E00134E4B29442CED3E8
:10E440002046BDE8F88F00002DE9F0410C469046CB
:10E450001F4676F659F82A4B06461868FAF757FD14
:10E460000546002849D08068C8EB0606BE4228BF92
:10E470003E4600F1E003A8F10E07AB600023AB813C
:10E48000A3691B070DD557B9D8300823A860082207
:10E49000A168083EAB810E3174F6E0FC01E0A8F102
:10E4A0001607636C6B64236CA5F85260FF18012398
:10E4B0002F6485F83C30A5F85060E37CEB749DF840
:10E4C0001830A3B1A36BAB63E38FEB87B4F856307E
:10E4D000A5F85630E36CEB64A36CAB64EB8943F4B2
:10E4E0008043B4F85440A5F85440EB8105E0EB8933
:10E4F00023F48043EB81034BAB632846BDE8F081F6
:10E5000088F21D00AFBEADDEF8B5CDB26B1E0E2D8C
:10E510008CBF4FF440470027DE2B064612D80E2D45
:10E5200007D81E48294675F613FC041C18BF0124A1
:10E5300009E01B48294675F60BFC002814BF05248A
:10E54000002400E00024E10725D545F480553D4333
:10E55000D6F85C012946C1F6F9FE08B144F0020480
:10E56000A20718D52946D6F85C01C1F6BFFC29469A
:10E570000128D6F85C0108BF44F008041EF00EFA2A
:10E5800008B144F04004D6F85C012946C1F654FCB9
:10E5900008B144F020042046F8BD00BF8C420800BA
:10E5A000A842080038B504468068D4F8541384F6AD
:10E5B00057FAD4F86415D0F10105A06838BF0025DA
:10E5C00084F64EFA00B90135D4F894372BB1A0681F
:10E5D000596884F645FA00B90135284638BD032349
:10E5E0004FF4007213B504460093002113460069EE
:10E5F000B6F620FD94F82E323BB1A068D4F8EC11A9
:10E6000084F62EFA002384F82E321CBD38B50D4650
:10E6100080B379B30468837963BBD4F86C321A7A17
:10E6200042B3D3F820311B7823B3236893F87830B2
:10E6300003B394F8D037EBB994F80438D3B194F815
:10E64000EC3723B1A068D4F8E81784F609FAAA8B4E
:10E6500012F4005218BF0D22A0680023D4F8E81766
:10E6600084F6DAF90123002284F8EC3784F80428D0
:10E6700084F8D03738BD032313B500210093044636
:10E680000B4600694FF40072B6F6D4FC94F82E32B3
:10E6900053B90123A0684FF47A72D4F8EC1184F6D0
:10E6A000BBF9012384F82E321CBD2DE9F0478EB052
:10E6B0000021082205460CA874F654FC05A8002188
:10E6C000102274F64FFC0024A046D5F868321E597B
:10E6D000002E4BD03379002B48D00DF12E020027AD
:10E6E00032F8021FD6F8103141B90EA95B8E01EB4A
:10E6F000470208F1010822F8083C06E05B8E8B42D5
:10E7000003D00137042FEBD130E0D5F8240109A95B
:10E710003246DCF601FE21E09AF82430980702D553
:10E720004FF0000908E0337CC3B90AF1140075F614
:10E73000C5FA0028F4D011E049465046DCF650FEF8
:10E7400005AA02EB870313F909208242C8BF03F828
:10E75000090009F10109B9F1040FEDD1D5F824013F
:10E7600009A9DCF6EFFD82460028D5D10434202C1F
:10E77000ABD11420FCF71FF8044600282DD00CAEB6
:10E7800005AF4FF0000923E02B6A31883A4618693B
:10E790003AF0CFFF36F8020B75F6FEFF1423012284
:10E7A00000932346014628461DF01BF868B9E2682D
:10E7B00036F8021C2B6A00922269019222680292AA
:10E7C00018696268A3683AF0B6FF09F101090437D5
:10E7D000C145D9DB2046FBF7FDFF0EB0BDE8F08751
:10E7E0001BF022BF2DE9F043A5B01646B6F80C90F9
:10E7F0000C462C9A054608960392118801F4804E27
:10E800002E9FB7F800C0CDF840E002EB0C0ECCEB29
:10E81000090C2D9811F4807FCDF814C0B0F80CC00D
:10E820000993B4F844308DF86CC04FF0000CADF88B
:10E8300074303EF8023CC3F3C013D5F804808DF861
:10E84000393002F11003ADF82810CDF810E0CDF802
:10E8500018908DF838C003D104321F93209202E043
:10E860000A3220931F920023414611932246037BD4
:10E870002846009303AB43F009F9109B70B923B10C
:10E88000D4F874310133C4F87431B369990226D5D0
:10E8900063F400136FF03200B36122E023B1D4F8C7
:10E8A00070310133C4F87031089B11989B681E9336
:10E8B000B8B1037A042B10D1284603A9DEF6DAFC9E
:10E8C00028464146224603ABDEF6EEF938B13A88D7
:10E8D000119B93F90E30D3183B80002001E04FF0DC
:10E8E000FF3025B0BDE8F083F7B5064615460C4667
:10E8F000A9B191F86C3393B1099B9B891A0A42EA3A
:10E900000323134A1BB2934209D12946062200234E
:10E91000FFF7E4FA18B130462146B9F6B7FEA779F9
:10E920009FB920460A99D1F651F8D4F8203193F8CE
:10E93000483053B12946706875F6E6FD01213A4624
:10E94000009703462046D1F6E1F80020FEBD00BF47
:10E950008E88FFFF2DE9F7439F8B1C460023C7F3EA
:10E960008037064688461546A363B7B1D268636808
:10E9700032B1127A0B2A03D11B7803F0010301E0B4
:10E98000DB789B09E363304694F82C3029460093EA
:10E990004246E36BC7F6CEFDA063A26B61680AB185
:10E9A00092F90E206369D88910F400504BD0B3F867
:10E9B0005000002847D048F688608B18B3F806C08E
:10E9C000844517D18A5CAA2A14D15A78AA2A11D16F
:10E9D0009A78032A0ED193F80390B9F1000F09D168
:10E9E0001A794AB993F80590D9F1010938BF4FF067
:10E9F000000901E04FF000095FFA89F937B13046AC
:10EA000041462A46234643F0D7F868B9E86870B112
:10EA1000037A022B0AD1A369588A00F00800D0F1CA
:10EA2000010038BF002002E0012000E0002040EAA1
:10EA30000909336893F86B015FFA89F993F8573144
:10EA4000184340EA090063699A6942F48031996188
:10EA500010B142F440329A61BDE8FE8313B50468F8
:10EA600094F8584164B100240094D0F8400846F06E
:10EA7000A9F8C4EB000EDEF1000040EB0E0000E050
:10EA800020461CBD38B50446A0F868140D46D0F8E1
:10EA90005C011DF02CFD2046E0F698F8D4F89414A3
:10EAA0004B7B23B120460E312A46E0F6F5FD216A64
:10EAB0002046E0F65FFE20468EF6E6FDD4F83807E5
:10EAC000BDE8384046F0ACB938B5B0F82632054656
:10EAD000002B60D1D0F8683113B19B79002B5AD14B
:10EAE000D5F8F4343BB15B68DB68012B03D9032B09
:10EAF00001D0022B4FD12846D9F68CFE00284AD1EE
:10EB0000D5F8C834002B46D1B5F82432002B42D1B9
:10EB100095F82332002B3ED195F80235002B3AD1DF
:10EB2000AB6B002B37D195F86035002B33D1D5F87E
:10EB3000FC35002B36D02EE0D5F828325BBBD5F85B
:10EB40006812CA581AB1907908B112791ABB043305
:10EB5000202BF6D10023CA583AB1907928B9107AFF
:10EB600018B1D5F86C02824215D10433202BF2D1B2
:10EB700000228B5853B1987940B9187A30B1187C7B
:10EB800020B1D3F814310BB19B6823B90432202A89
:10EB9000EFD1002400E00124284621463EF063F92D
:10EBA000204638BDD5F80832002BC5D0F3E770B544
:10EBB000D0F82051044606686B68D90721D4304646
:10EBC000FDF7FAF908B12B7ADBB9207AE0B1287A9F
:10EBD000D0B16B78BBB9237C0BB1607CA0B1B4F829
:10EBE0005A303BB1226D40F23713134013B194F801
:10EBF0005C0048B1D6F86C02221A504240EB020089
:10EC000070BD012070BD002070BD38B50446056898
:10EC1000FEF778FE214602462846B7F611FE80B27E
:10EC200038BD21B18B7913B1FF2381F834310368EA
:10EC300093F83030002B0CBF4FF0FF330023C0F8A7
:10EC4000543211B1002381F88633704738B5D0F8BB
:10EC50003C3804468BB1002505E029462046FFF7E5
:10EC600006F90135EDB2D4F83C080378AB42F4D88C
:10EC7000FBF7B0FD0023C4F83C3838BDF7B50546B6
:10EC800014460E4611B15368012B03D0D5F83C3819
:10EC9000002B78D06368012B18D12EB9D5F83C38F9
:10ECA0001A78A2605B786CE0A368FE2B6BD82846CC
:10ECB000FFF7CCFFA668002E6FD0F1B22846FFF711
:10ECC0006DFB061E18BF6FF01A0666E0022B35D1E9
:10ECD00096B9284604F110010DF10702FEF7E4FF92
:10ECE000002858D0D5F83C389DF8072003EB820364
:10ECF0005B689B79A36050E0A368FE2B43D804F1C6
:10ED00001007284639460DF10702FEF7CDFF20B166
:10ED100028469DF80710FFF7AAF8A668002E3CD0F9
:10ED2000F2B228463946FFF750FBD5F83C381B783D
:10ED3000834294BF6FF0150600262EE0032B25D1E9
:10ED400036BB284604F110010DF10702FEF7ACFFB7
:10ED500008B3D5F83C389DF8072003EB82035A68C6
:10ED60003346907905E09119097A21B143FA81F38C
:10ED700001368642F7DBA6601EB193FBF6F6E6602D
:10ED800004E0E36009E06FF0010606E0002604E01D
:10ED90006FF0160601E06FF01D063046FEBD000064
:10EDA0002DE9F04F8FB099460023D0F8A0510446CA
:10EDB0000B950F46DDF864A09B460C931D469446C8
:10EDC000984636E0D4F82C27EE0052F83500B0B162
:10EDD0003946CDF81CC08AF64FFBDDF81CC003464F
:10EDE00020B34FF6FF72C18891421DD0D4F82C3762
:10EDF0003246E0469A1806465268099224E0D4F852
:10EE0000C8225A44106A88B13946CDF81CC08AF627
:10EE100033FBDDF81CC0034640B1D4F8C8320646C7
:10EE2000E0465B449B6A0EE04FF0010801350BF1B0
:10EE3000380B226892F8B8209542C3DB1E46434641
:10EE4000E046002B2ED10993236893F8B8309D42F9
:10EE50001ADA2AE0D4F8C8325B441B6A83B1D4F8CA
:10EE60002C2752F835205AB1184639468AF604FB49
:10EE700030B1D4F8C83206465B449B6A09930CE073
:10EE800001350BF1380B02E00025AB463046236814
:10EE900093F8B8309D42DDDB0646236893F8B8301E
:10EEA0009D4202DB6FF0160320E0B8F1000F02D1A3
:10EEB000DDF86080D14633891BB1082B0CBF534667
:10EEC00004230A939DF86820B3885B0002B10133E4
:10EED000434839460722089374F600F9844600280F
:10EEE00046D1B9F1030F03DC6FF00D030C936BE017
:10EEF000042241460DA8CDF81CC073F6AFFF204692
:10EF00000D990CAAB8F6DEFD0C9BDDF81CC01E3373
:10EF100083461AD1089AD00717D5012320460093BB
:10EF200062460D9963461BF0C3F8834618B96FF02B
:10EF30001A030C9309E0204659461BF01BF80C906D
:10EF400018B120465946B8F6C5FE0C9B002B3BD1A4
:10EF5000089B073708F10408D907A9F1040904D56B
:10EF6000189AAAF1040A04321892DBF80C301B93A9
:10EF7000089A20461B9B314602F0010B0193534631
:10EF8000189ACDF800B097F6EBFD0C90E0B9D4F8E4
:10EF9000CC323146189A02920A9A04921B9A059230
:10EFA0008DE80003CDF80CA0089A53F825003B46E5
:10EFB000099DA8470C90BBF1000F05D00B9D2B7845
:10EFC00013B12846EAF602FE0C9828B100F134038A
:10EFD000342B9CBF236898660FB0BDE8F08F00BF4C
:10EFE00020D90800C369F0B59E6AA3B0036804463F
:10EFF000D3F888501B7E0435002B00F08280437EBE
:10F00000002B7ED04FF4803302AA0093E0218023AE
:10F010000069B5F6F3FC0DF10602002332F8021F79
:10F0200036F8027BCF1BBFB247B13748185C55F8A2
:10F0300020C0674445F8207026F8021C0133402B9D
:10F04000ECD123680025D3F88830D3F83021D3F8E9
:10F050009C10D3F81001511AC3F8C011D3F8A010B6
:10F06000411AC3F8D411D3F8C8108A1AD3F8A410DF
:10F07000521AC3F8C421636953F8250090B123687C
:10F080004269D3F88830196A8A18196D1A620269C0
:10F090008A18996E1A65C2688A189A661B4BD3F84B
:10F0A000903098470135062DE5D12368D3F8883094
:10F0B000596A1A6A8A18596B5218996A5218D3F801
:10F0C000A8105218D3F8AC105218D3F8B010521838
:10F0D000196D1A61D3F880208A18196E5218596E6A
:10F0E0005218996E5218D96E5218596F5218002141
:10F0F0009A64581804311829D0F884000244F8D1D1
:10F100009A6423B0F0BD00BFDA9A1D00B8FC070076
:10F1100013B50024009498F62FFD1CBD91F8210032
:10F1200082F82100886A91F820309062C86A82F8DB
:10F1300020300023D062888B9083486A5062486BED
:10F14000506381F8203088694B638B8B9383094B24
:10F150000340887F00F04F0093619077C87F20F0D4
:10F160003100D077886900F00040034393610B6B56
:10F1700013637047F246805FF0B50D69064614468A
:10F180006F79002F2BD0AF79A7B191F8E770002FDE
:10F190001ED00F7DFB071BD491F82470BB0717D539
:10F1A0008B685B0614D593699B0718D4BDE8F040C3
:10F1B000ABF6A8BD9369916813F0800318BF702364
:10F1C000CB18DB8803F0FC03A42B08D0294602E00F
:10F1D000304629462246BDE8F040B9F67BB801200A
:10F1E000F0BD00002DE9F04F89B0446808AB074638
:10F1F00000200594154643F8040D8846906804895C
:10F20000B0F806C0B0F80090B0F802A0B0F804B0B2
:10F21000039444890E300E69906090890E380494EE
:10F220009081D7F8A001CDF808C0EAF62DFC327C19
:10F23000DDF808C0044643881AB3D8F8A421D207E1
:10F240000ED5039AA0F89620049AA0F88C90A0F806
:10F250008EA0A0F890B0A0F894C0A0F8982010E07C
:10F26000B27932B9A0F88C90A0F88EA0A0F890B036
:10F2700007E0039AA0F88E20049AA0F88CC0A0F8AA
:10F280009020A28902F00709B9F1040F06D138468F
:10F290003146029384F60EFD029B0EE0B7F85E1332
:10F2A000481C22F4FE42A7F85E03480247F6E071CC
:10F2B00022F0E002014042EA0100A081AA8BD004C2
:10F2C00002D4A969490503D51201A4F892200FE0E0
:10F2D00003F400639BB25BB9EA8902F00702603273
:10F2E00008EB4202D388591C1B01D180A4F892304C
:10F2F000AB8B23F47E6323F01F03B4F8922043EA20
:10F300001213B868AB8384F6F7F8000703D5AB8B0C
:10F3100043F40053AB83AB69990506D56B6A1B0AAE
:10F320002382638843F480536380B4F89230E3818E
:10F330002946059875F6E8F841468246D7F8A001B7
:10F34000EAF6BEFB8244AAF1860AA4F80AA03B684A
:10F3500093F8453063B1B9F1030F09D8284B4FF04A
:10F36000FF3213F80910D7F864014346BBF6F6FCE8
:10F37000AA69079B1343AB61B3792BB9D6F8643301
:10F38000FBB19B7BDA071CD598F8E730CBB1B9F11C
:10F39000040F16D098F8DA10194A12F8092051FA19
:10F3A00002F212F0010F4FF0010204F17C0300920F
:10F3B000384641462A4602D0AAF63CFF01E0ABF6A9
:10F3C00041FAD6F8383143B9D6F83423C6F83C218F
:10F3D000D6F83823C6F8402109E006EBC302D2F87C
:10F3E0003411C2F83C11D2F83811C2F8401101337F
:10F3F00003F03F03C6F8383109B0BDE8F08F00BF15
:10F400006C3A080070B59D6804469089060A46EA81
:10F410000026A5F10800B6B2986098890830988156
:10F42000108825F8080C508825F8060C908825F8D7
:10F43000040CD08825F8020C1089288008465289CF
:10F4400019466A8075F660F831460E3880B2030AB4
:10F4500043EA0020AA23A8802046AB71EB71032366
:10F460002B7200236B72AB72FEF7FEFA330A43EA8B
:10F470000626AE81002814BFF8200020E87270BD77
:10F480008B682DE9F0430C461746CA89496823F07A
:10F490007F4323F46003C1F314015B1AC92B85B0C9
:10F4A0000646D0F8049002F0070804D9500602D4AA
:10F4B000A378012B40D94846CA21FBF79BF90546A2
:10F4C000B0B93368D3F888301A6A01321A6247B18A
:10F4D000D7F8F83013B93B691BB1DB681A6A0132FF
:10F4E0001A62D7F85C3100240133C7F85C317AE046
:10F4F000836821462A46CA3383608389CA3B838155
:10F500003068FFF70BFEEB8923F00703A16848EA98
:10F5100003030E22EB8101F10E03A360A389A86807
:10F520000E3B0E38A381AB890E33A860AB8173F616
:10F5300095FC2488AC822C46A168B8F1000F2CD031
:10F540007A682B4B134043BBD6F85432DBB18B891E
:10F550001A0A42EA03231BB213F5FE4F13D00C2202
:10F56000684673F67BFCA568A3890433281FA38132
:10F570006946A0600C2273F671FC4FEA481881239B
:10F58000A5F80A802B8133685B6B33B196F838326B
:10F590001BB9E38923F00703E381A2689389190A61
:10F5A00041EA032340F2DC519BB28B421BD948F65F
:10F5B0008E018B42A16902D141F0100105E048F6AD
:10F5C000B400834206D141F00041A37F63F07F0382
:10F5D000A161A377A3693046494643F00803A361BC
:10F5E0002346FFF70FFF204605B0BDE8F08300BFBC
:10F5F0004000010038B59389072B154618D9946847
:10F6000004F10E0186F694FE90B1AB6803F1080296
:10F61000AA60AA89083AAA81E288DA8122891A8234
:10F6200062895A8222881A8162885A81A4889C81C0
:10F6300038BD000038B50C4605460846554973F6F6
:10F6400009FF5549204673F605FF5449204673F6D5
:10F6500001FF5349204673F6FDFE5249204673F6DA
:10F66000F9FE5149204673F6F5FE5049204673F6DF
:10F67000F1FE20464E4973F6EDFE2B685B6A012BC6
:10F6800003D920464B4973F6E5FED5F83401A3F6BD
:10F6900075F820B9D5F83801A5F676FB18B12046E3
:10F6A000454973F6D7FED5F83401A3F667F818B1CB
:10F6B0002046424973F6CEFED5F83801A5F664FB24
:10F6C00018B120463E4973F6C5FED5F83001A5F6BF
:10F6D000EBFF18B120463B4973F6BCFED5F830016C
:10F6E00011F045FF18B12046374973F6B3FE37498C
:10F6F000204673F6AFFE3649204673F6ABFE354919
:10F70000204673F6A7FE3449204673F6A3FE33491C
:10F71000204673F69FFE3249204673F69BFE314920
:10F72000204673F697FE2B6A18693AF0BDF98106F8
:10F7300003D520462C4973F68DFE2C49204673F6DE
:10F7400089FE2B49204673F685FE2B6A18693AF02C
:10F75000ABF9820707D52749204673F67BFE204682
:10F76000254973F677FE2046244973F673FE20463A
:10F77000234973F66FFE2046224973F66BFE20463E
:10F78000214973F667FE20462049BDE8384073F6EC
:10F7900061BE00BF709F1D00749F1D00799F1D00FA
:10F7A0007E9F1D00879F1D00909F1D00949F1D0040
:10F7B000999F1D009E9F1D00A89F1D00AF9F1D00CB
:10F7C000B99F1D00C39F1D00CC9F1D00D59F1D002C
:10F7D000E49F1D00F29F1D00F79F1D0005A01D0066
:10F7E00017A01D001DA01D0024A01D0034A01D0099
:10F7F0003BA01D0041A01D004AA01D0057A01D00F8
:10F8000062A01D0067A01D0071A01D0076A01D0054
:10F8100030B585B0054668460C4673F605FE2846A9
:10F820006946FFF707FF204605B030BD002070474E
:10F830002DE9F04700238AB0074608930D469369E7
:10F84000144603F040085FFA88F8B8F1000F0BD0B7
:10F85000806883F651FE10F0080606D0A68BB2042D
:10F8600003D546F4804600E0464605F00F0A4FF007
:10F8700001094FEACA6A636B00221B0108926CD52A
:10F88000A369D80071D443F08053A361002D4AD0FE
:10F89000B8F1000F01D0334600E0A38BB868ADF893
:10F8A000263083F629FE10F008033AD06B1EDBB237
:10F8B000012B0ED8BDF8263003F4805292B21AB153
:10F8C00043F40053ADF82630BDF8263023F48053BE
:10F8D00000E00023ADF82630BDF826308BB1089B40
:10F8E00004220DF1060023F0F0434AEA030308A9BD
:10F8F0008DF804204FF000098DF80520089373F669
:10F90000ADFABDF8263063B10DF10A000DF1260104
:10F91000022273F6A3FA9DF805300233DBB28DF8AC
:10F920000530023300E02B46B9F1000F02D001236D
:10F930008DF80450B868214601AAFDF713FB012D8C
:10F9400002D1B868FDF789F9B868FDF782F9D0F8F7
:10F9500098300133C0F8983007E0B868FDF779F9BE
:10F96000D0F89C300133C0F89C30B8F1000F07D0BC
:10F97000054BA28A1B6853F82240002C7FF47BAF12
:10F980000AB0BDE8F08700BF2010180007B500934B
:10F990000023FFF74DFF0EBDC888C0F380107047ED
:10F9A0000B6A997801F0FD01997012B141F00201E2
:10F9B000997070474B8903F00303032BCB6AD87807
:10F9C0000CBF00F00100C00970478B7A03F00303FD
:10F9D000032BCB6A03D11878C0F3C0007047DB78E3
:10F9E00013F0300F0CBF0020012070478B69DA80C4
:10F9F00070472DE9F041044615468846002952D04B
:10FA0000002A50D08E68002E4DD08B69DB0044BF99
:10FA10008B7C06EB830690F8703623B93046E9F606
:10FA20007FFF074610B900273B4600E03346F61932
:10FA30006F6241462B62338A1B0260682B60727BC7
:10FA4000337B43EA0223AB80F278B37843EA0223A4
:10FA5000EB807279337943EA0223AE612B817C23F8
:10FA60006B61F318EB6174F64FFD6B69C31ADF1B12
:10FA7000EB696F820433AB6206F11A03EB62727DAD
:10FA8000337D43EA02236B81F27DB37D43EA022397
:10FA9000AB81337E727E43EA0223EB81338C2B826F
:10FAA000F3891B092B86BDE8F08179B193699188B0
:10FAB00099811168090A1982D18859801189998020
:10FAC000518999829189D982D2891A8370478B7A18
:10FAD00003F00303022BC86A03D1007800F07F0013
:10FAE0007047D4F6F5B810B50C4689699CF620FE2F
:10FAF000A3695B88E38010BD7047012A07D1486B7A
:10FB000000F00060D0F1010038BF002070470020F5
:10FB10007047036890F9442041B9017A31B101215D
:10FB200011FA02F2D3F890170A4306E0012111FA04
:10FB300002F2D3F8901721EA0202C3F89027D3F813
:10FB4000902712B193F8902212B993F8921211B142
:10FB50009868022100E09868FDF762BA10B5044683
:10FB6000D0F894040121033073F664FC012806D90F
:10FB7000204642F05DFD003018BF012010BD00207E
:10FB800010BDD0F8681200228B5853B1987940B953
:10FB9000187A30B1187C20B9D3F8183193F889302D
:10FBA00023B10432202AEFD1002070470120704792
:10FBB00090F893220AB1FFF7E4BF90F891027047E2
:10FBC00010B501F06004094B01F00F01641133F826
:10FBD0001440074B5B5CA0F8D64080F8D8301AB1CF
:10FBE00080F8D93080F8DA3010BD00BF1A9B1D00B4
:10FBF000229B1D002DE9F0414FF000081F4683F8BD
:10FC00000080012316467B700C4605468CF66AF888
:10FC1000214640F480530E288CBF4FF440404046AC
:10FC20009BB21843030A43EA002078802846C7F6AF
:10FC3000B9FF87F8088087F80980314687F80A807D
:10FC400087F80B8000F47F42030643EA106300F458
:10FC50007F0043EA022343EA102078602046D3F66F
:10FC6000F9FF00BAF860BDE8F0812DE9F04F0C68AB
:10FC7000ABB0064607920F46D4F80890B9F810A02A
:10FC80001AF0040AB9F8123018BF4FF0020A13F044
:10FC90000103029325D090F81302002800F036816A
:10FCA000D6F8F0354946D6F83001534409EB030243
:10FCB000A260A289D31A2246A381012311F06BFC12
:10FCC00004463860002800F01C81D6F8F0358268C0
:10FCD0005344C3EB020982899B18C0F808908381C2
:10FCE00003E0D0F8300111F044FCD6F8F035A268FA
:10FCF0009F1D5744D7193A881FFA82F8ADF8102093
:10FD0000FA8A039208F00C02082A40F0FE80A289C9
:10FD10000AF1240AD31A534540F2F78008F4807B95
:10FD200018234FEA2B2BD6F888A603FB0BFB0AEB14
:10FD30000B0306935D68002D00F0E580D5F8A40163
:10FD400010F4005000F0E280EB69102B40F2DD80EF
:10FD5000304629464246FDF7E6FE002800F0D680F0
:10FD6000029A002A32D15AF80B309B790BB93B1D0D
:10FD700001E007F11003B3F800C0598841EA0C0014
:10FD80009A881043029200F0C180D6F88826106B42
:10FD900000B913631B78D80715D4136B5A885140E8
:10FDA0001A888CEA020C41EA0C01B3F804C0029BE9
:10FDB00083EA0C0C41EA0C0C1FFA8CF2D2F101021E
:10FDC00038BF002200E00022D2B200E0012207F199
:10FDD000180308F440710293B9F8040000F003001E
:10FDE000C8F3C01302285FFA83FC04D1BDF91000E8
:10FDF00003EAE07300E00023DBB2B1F5407F0CBF03
:10FE000006210021BCF1000F00D002310BB10431FA
:10FE100089B2029B0E945918BDF81030CDF83C9071
:10FE20000A91ADF840303B7903F0010309978DF852
:10FE300050301AB35AF80B30F988B3F8E020B8887C
:10FE40004A40B3F8DE104140B3F8E2300A43398942
:10FE500059400A4392B282B9EB8A7989BA895A40E9
:10FE6000AB8A4B401343F9892A8B4A401A4392B21A
:10FE7000D2F1010238BF002200E00022D0B220B34C
:10FE800018F0800021D03F7E07F00707069A93897B
:10FE9000BB421CD118F0400019D1039A12F00F0395
:10FEA0001AD118F4806F14D118F4006F13D0079A88
:10FEB00005EB4703B3F8B43002EB1313039AB3EB2B
:10FEC000121F0CBF0020012006E0074604E00020BE
:10FED00002E0184600E00120C0B130465AF80B108D
:10FEE0002A4609ABFEF736FD78B9D6F83801214627
:10FEF0002A46039B009710F07DFD003018BF0120BB
:10FF000004E0012002E0284600E000202BB0BDE81C
:10FF1000F08F00002DE9F04FBBB0176916461E9315
:10FF2000FF23099704461E9F0D468DF8E6308DF895
:10FF3000E73007F00107D0F88C342097099F1B6841
:10FF4000D1F808B0DDF82481FB581B781993D0F85C
:10FF5000903440681B68FB581B78D7F860731A937D
:10FF60001797BBF8007007F00C030F979B08022B44
:10FF70000C9308BFC7F3C0130F9F18BF002307F4EB
:10FF8000407AAAF54072DBB2D2F1000A4AEB020ACB
:10FF90001B9374F6B9FA489F04300D907FB13B7AF9
:10FFA0000B2B06D1236893F8B13043B1BB79072BF3
:10FFB00005D8489F97F90F300D9FFF180D97D4F87B
:10FFC000B431002B26DA489F07B33B7A022B21D1AC
:10FFD00094F8B432F3B90998076D17F0080717D1F0
:10FFE000226848998B79D2F8BC20934213D2032B14
:10FFF00011D90B2B0FD8AB699B000CD4459F012F57
:020000021000EC
:1000000008D10D9F08370D97012704E0489F02E0B3
:100010001F4600E00027A868AB897C33A0F17C0173
:1000200008907C2213910846A9600021AB8172F6EA
:1000300099FF96F8E73053B90F9A02F0FC09B9F12D
:10004000800F0CBF4FF400794FF0000901E04FF42E
:1000500000790FB149F40059449F0FB949F4804920
:10006000089FB4F8683427F8763C0C9F022F0AD119
:10007000BAF1000F14BF1E27182715971B9F47B111
:10008000159F023704E00C9F012F0CBF1027182783
:1000900015971598089F0D9907F8740C27F8721C8E
:1000A000AA6912F4806215D0336993F8AB338BB12F
:1000B00096F8E930DF060DD4337DD8070AD4099FBE
:1000C0003B7C3BB109F40073002B0CBF0A230223D5
:1000D000069301E002270697AB8BD90400D412B136
:1000E0001B051B0D22E072689B4B1340BBB10F9F99
:1000F00007F0FC03882B12D19BF80430DB070ED4E9
:10010000459FEA8902F00702791E449F60328F42C0
:1001100006EB4202D38809D1591CD18006E00C9F1E
:10012000012F0ED049F40069002302E00C9F012F3B
:1001300007D0449F1B0107F00F029BB21343ABF89B
:100140001630AB8B23F47E6323F01F03BBF816201D
:1001500043EA1213A068AB8383F6CEF9070703D5F1
:10016000AB8B43F40053AB83469F042F09D1089F08
:100170002046099937F8702C83F69CFDADF8E20013
:1001800019E0449FB4F85E3307F00F02459F42EA3E
:100190000312791E449F92B28F4202D10133A4F818
:1001A0005E33469F520147F6E073134007F00702A3
:1001B0001343ADF8E230089FBBF8163027F86E3CC9
:1001C000AB69980505D56A6A49F48059120A27F87F
:1001D0006C2C0022089F07F86A2C07F8692C012272
:1001E0008DF8D8205D4A08EA020222B908F0407270
:1001F000B2F1807F07D1CDF8C4809BF8047017F06E
:1002000001070CD12CE00C9F012F03D9D90601D492
:10021000002B08DA96F8503003F07F033193002763
:1002200005970E979DE0216A4C4A8B6C1A4022B9C3
:1002300003F04072B2F1807F03D19BF80420D20713
:10024000ECD44B6C454A1A4022B903F04072B2F12B
:10025000807F14D19BF8047017F001070FD1319300
:100260000DF1E603D4F85801394601930DF1E70387
:100270003A4602933B460097A5F694FCD0E79BF8DC
:100280000430DB07C6D4B36813F00803C2D16A6B2D
:10029000970007D596F8502002F07F02059331921F
:1002A0000E935EE00423D4F8600131468DF8D83017
:1002B00039AB0DF1E202009331AB40F036FC0F9FF9
:1002C00007F0FC03482B01D0C82B0FD1022309985B
:1002D0000022319900278DF8D83099F6CFF896F89A
:1002E000503003F07F033293319008E0449FAB69B4
:1002F000D7F1010743F0006338BF0027AB610E97C9
:10030000BDF8E430069F27F002073F043F0CD807F2
:10031000069703D5AB6943F40053AB619DF8D52034
:1003200000920DF1E6029DF8D430D4F85801002176
:1003300001920DF1E70202920122A5F633FC236837
:1003400093F8E93063B1D4F80C073146BDF8E220E8
:10035000DBF68EFD059004E040000100FF0000C0C8
:100360000593469FA846A54BDB5D199F1693002F6A
:100370000CBF3023162343F4803330AF2393BAF1FC
:10038000000F0CBF18231E235B441C9700272193EA
:10039000CA460A971897079714970B9712978BE3FB
:1003A0001C9F13987D680A9F03FB0703103303F11A
:1003B00004091F930A332293002389F8103089F827
:1003C0001130236893F84F30990700F0128105F03F
:1003D0004077B4F8682415F4E023119702F46052D2
:1003E0000BD0B2F5805F27D0B2F5C05F26D1B3F550
:1003F000403F08BF4FF4003320E0B2F5005F04D166
:10040000119AB2F1007F03D113E0B2F5C05F13D1AE
:10041000119BB3F1807F02D0B3F1007F0CD17368E0
:1004200003F40023002B14BF4FF400334FF4803348
:1004300004E04FF4403301E04FF48033226A25F4A6
:10044000E0251D436E4B516C0B40002B40F0A28009
:1004500001F04071B1F1807F00F09C8094F820326F
:1004600013B925F40005CEE3012B40F0CC8305F051
:100470004073B3F1807F03D0B3F1007F40F0C383BA
:1004800045F40005BFE392F94D30A3F10102574254
:1004900047EB020701331D970CD1736813F08043BB
:1004A0000AD00E30022173F653FC003018BF012031
:1004B000109002E00022AEE31093D4F894349B78BD
:1004C000012B1AD9236A93F94D30013315D1B7683E
:1004D00017F4006712D0D4F8A8063146EAF6FEFEFB
:1004E00010F010070AD0D4F8940402210E3073F6ED
:1004F0002FFC071C18BF012700E00027119B25F4E3
:10050000A005D3F1010338BF00231193D4F894342C
:1005100093F91330012B1FD005F04073B3F1007F26
:100520000AD1B3681B051BD5D4F8A8063146EAF6F4
:10053000D5FE10F0010F08E0B3F1807F10D1736891
:10054000D8030DD5B36813F0800F09D0D4F89434D4
:1005500093F91330013303D1119A0AB945F4800598
:100560002846D3F64FFB012814D11D9B002B40F0E9
:10057000548305F04073B3F1807F01D1109F02E0F6
:10058000B3F1007F06D117F0FF0F40F0468301E082
:1005900045F4801505F04073B3F1807F23D13146D7
:1005A00020468AF6DDFA07462846D3F62BFB1A9931
:1005B000022907D10B9A05F4E023B3F5003F08BFE9
:1005C00001220B92012808DD96F80E312BB196F826
:1005D0000F3113B1012318931293290212D5012868
:1005E00008BF04270EE0079FB3F1007F08BF042770
:1005F00008E025F4E02545F4803504E06C3A080075
:10060000FF0000C00797032389F80C30002389F806
:100610000D300C9F022F00D08FB90D9FB4F87834A5
:100620009F4203DCD8F818305A0108D5129F9BF876
:10063000043003F00103002B08BF01271297236A3F
:1006400005F040725B7D43B1199F37B12AB9EAB218
:100650007A498A56002A28DA07E0B2F1807F02D070
:10066000B2F1007F21D11A9FFFB1459F012F07D919
:10067000D8F81830239D23F00063C8F8183014E030
:100680009BB1199F8FB115F0407F0CD105F07F030E
:10069000022B0AD0042B08D00B2B06D00B9F162B55
:1006A00018BF012700E001270B9715F0407718D1FC
:1006B00005F07F03162B14D8614A9A4011D5209873
:1006C00058B1EBB2022B0BD0336993F9343113F1EB
:1006D000FF3318BF0123079303E02099079100E03F
:1006E0000797294637AA2046DEF69AFA229B0093FE
:1006F00020460F9B29460D9A8FF6F2F82846D3F62E
:10070000B9F84FF4FA73B0FBF3F31090A9F80E3078
:100710007368DB0334D594F81132002B30D094F891
:100720001532002B2CD01A98032829D04FB905F088
:100730007F03022B24D0042B22D00B2B20D0162B8E
:100740001ED09BF80430D8071AD40F9901F0FC038F
:10075000882B15D1469A032A12D8D8F818300121CF
:1007600021984AF4044A43F480531491C8F818308D
:10077000038823F060031B041B0C43F02003038059
:100780000A9AB2B9D8F81830590512D58FB14898DD
:1007900020B1027A042A01D00B2A0AD143F4006363
:1007A0001299C8F8183094F8DE32002B18BF0121D6
:1007B00012910F9AA42A0CD09BF80430DA0708D4BF
:1007C000149B43B920462946079A479B8FF662F847
:1007D0000AE0149850B120462946079A40F62A1399
:1007E0008EF61AFE80B20230ABF802009BF804309D
:1007F000DB0712D4D8F81830D8040ED494F8142299
:100800000AB1590609D45A0505D41B9919B1179A8A
:1008100092F828300BB94AF0800A23682046D3F8B2
:10082000641179B101214FF400721AF002FE9BF8B5
:100830000430DB070AD54AF0800A07E0A08D0800E3
:10084000000210284FF400721AF0F3FD0C9B022BEB
:100850001BD14698032818D894F81132ABB11099DF
:10086000042912D9D4F83401A1F6B0FD68B916985C
:10087000179A02EB40039B8B1BB1D8F81830580530
:1008800003D5189909B94AF4806AB7F1007F03D1FA
:10089000069F47F0040706971E9FB90703D5069FDA
:1008A00047F080070697129F1FB90B9F002F42D079
:1008B00001E000270B9700220998294698F6DEFDF3
:1008C00010F04077C3B206D100F07F02162A02D89A
:1008D0006649914001D4012100E0394689B2644A59
:1008E000A9F810101FB9C0B2105600280ADB022B5D
:1008F00008D0306990F9340101281CBF41F0100183
:10090000A9F810100B9FB9F8101027B141F0080199
:10091000A9F8101005E041F004014AF4807AA9F822
:100920001010D25C02F00F02B9F8103043EA022333
:10093000A9F8103004E00B9F89F8107089F8117045
:1009400020462946079A85F6FFFF1F9F05F4E023FE
:10095000B8803AA80A9F00EBD33313F80E3CBFB916
:10096000D8F81820120113D5226892F8E9207AB13C
:10097000059F294620467AB286F62AF83146BDF808
:10098000E22007463B46D4F80C07DBF6ABFA05E05D
:1009900020462946002286F61BF80746A9F8027071
:1009A0002046294686F638F8A9F804000A9F002F49
:1009B0007BD173685B0678D51B9F002F75D0169886
:1009C000179F07EB40039B8B002B53D09BF8043001
:1009D000DF074FD4D8F81830580566D4449F002F4D
:1009E00063D120462946079A0D9B8EF615FD0746D2
:1009F000149840B920462946079A149B8EF64AFF60
:100A000000EB070900E0B946169A179901EB42037B
:100A10009B8BFB18C9EB03039BB219041AD4204625
:100A20002946079A86F694FCFF2805D9B4F86A246B
:100A3000904238BF024601E04FF48072469F92B266
:100A400004EB4703B3F86C34934203D02046394695
:100A500087F6F6FD236893F8453033B3469F032F9E
:100A600023D8D4F864014A4616991BE000021028E6
:100A7000A08D0800236893F84530B3B1469F032F3B
:100A800013D82946079A20460D9B8EF6C5FC2946A9
:100A9000079A0023074620468EF6FCFE1699C219D7
:100AA000D4F864013346BAF659F91C9F47F8045F3D
:100AB0001C970A9F01370A970A9F9DF8D8204FF08C
:100AC00014039742FFF66CAC089F013A454603FBBE
:100AD000027333F8582C42F0200223F8582C27F8E0
:100AE0007AAC069827F8780CBDF8E23027F8703C0D
:100AF0000C990E9A0229319F08BFC6F868712AB373
:100B0000226892F84F20920707D0180405D4D4F831
:100B100058019DF8E610A5F69BF80998D0F83831F1
:100B200000EBC3020133C2F83C7103F03F03459F61
:100B3000C0F838313AA8F9B2C2F840119DF8D8305F
:100B400000EB830353F8283CC6F83032489F002F4F
:100B500031D094F8B432002B2DD1099F3B6D190789
:100B600029D4489F3B7A0B2B06D1236893F8B130E8
:100B70000BB3BB79072B1ED82368489FBA79D3F8EB
:100B8000BC309A4217D2AB6913F0005313D13A7BB1
:100B90001201089F204607F8182C489FBA79089F31
:100BA00007F8172C159F139907F17C0200938A18F8
:100BB000489B9BF6A1FDAB695A0508D5EA89D4F894
:100BC0003401314602F00702139BA1F6BBFB1E9FC6
:100BD000BB070FD52046294624AAFEF70AFFBDF819
:100BE000A03043F480532046294624AAADF8A03013
:100BF000FEF75BFFAB69BDF8E20043F08403AB6135
:100C00003BB0BDE8F08FD4F894048378012B3FF615
:100C10003AAC00221D9210924FE4119B002B3FF43E
:100C2000B7ACB7E42DE9F04387B004460F46DDF8D2
:100C300038E01646CDF800E0DDF840E0CDF808E0F9
:100C4000DDF844E00F9DDDF84880CDF80CE0DDF8DC
:100C50004CE00195CDF81080CDF814E0FFF75AF97B
:100C600094F8713681465BB194F8703643B9149BA1
:100C7000204601933946324643460095E8F632FE57
:100C8000484607B0BDE8F0832DE9F04F93B09DF8DA
:100C9000787006460020DDF874C00C46DDF88080D0
:100CA0009A460D979DF884700B9777680A92DDF845
:100CB0007090ADF84400ADF84600DCF810500C9789
:100CC0008A68B8F1000F31D098F80830022B2DD186
:100CD000D6F8B431002B13DA96F8B43283B92B6D01
:100CE0001F070DD4316898F80630D1F8BC108B423C
:100CF00006D2032B04D90B2B02D8BAF1010F15D061
:100D00000C9F2146229B009703920B9F069353460C
:100D100030680A9ACDF808C0CDF824C00195CDF806
:100D200010800597DBF686F9DDF824C015B195F83B
:100D30004133CBB90B9F0DF1460201970AF1FF3306
:100D40001F9F3046039721460A9F02926246FB1A74
:100D500018BF0123CDF824C0CDF80080FDF794F929
:100D6000DDF824C0834601E04FF0000BB9F1000F1D
:100D700017D0DCF8A431DCF80420D807804B54BF2E
:100D800009F11C0909F1220913400BB109F102090B
:100D9000B8F1000F05D098F90E2098F90F30D3184C
:100DA0009944D6F888341B68EB5C1BB1DCF804303E
:100DB000C3F3800300220A9F2146059211AA8DE801
:100DC000800430461F9F069262460297CDF824C0E9
:100DD000CDF80C90CDF81080FFF724FFBDF844103B
:100DE000BDF846700F91AB79DDF824C0A3B995F832
:100DF000B0308BB1B9F1000F0ED10D9A62B14FF640
:100E0000FF73984205D0A37F23F00F0343F005033F
:100E1000A377002385F8B030B8F1000F3CD096F8E6
:100E2000B432C3B92B6D190715D498F808300B2BC1
:100E300007D1336893F8B1306BB198F80630072BBF
:100E400009D8336898F80620D3F8BC309A4202D209
:100E5000A3699A0020D5A368BDF8449009F17C09E4
:100E60004B443046A360A389C9EB03030C99224687
:100E7000A3812B46CDF800C0CDF824C0CDF8048066
:100E8000DCF610FAA368DDF824C0C9EB0303A36005
:100E9000A3899944A4F80C90AB7933B9D5F864339D
:100EA000002B42D09B7BDB073FD51F9B042B23D01D
:100EB0009CF8E730002B38D00A980AF1FF339CF8F1
:100EC000DA10304AC01A434243EB00031F98125C09
:100ED00051FA02F212F0010F0093304661462246A9
:100EE0005B46CDF824C002D0A9F6A4F901E0A9F62A
:100EF000A9FCDDF824C018E0B5F85A00CDF824C0EC
:100F000073F6B2FEDDF824C048B1AB6E591C06D0B2
:100F100005EB8303DB6E13B11B7A042B05D0BBF802
:100F2000003043F40053ABF800300D9929B1DCF8E0
:100F3000A43103F00503012B1FD0D6F8A0010378DC
:100F4000DBB1BAF1010F18D194F91E30002B14DB7C
:100F500095F841338BB90F9A6146BB18BDF8442010
:100F60007C331F9F00979BB20B9F0292BDF84620D7
:100F7000039222460197E8F61FFD13B0BDE8F08FFB
:100F8000400001006C3A08002DE9F04F12F0407A61
:100F900085B00446164605D112F1000B18BF4FF07C
:100FA000010B01E04FF0000B02295FFA8BFBC6F347
:100FB00000590CBFA56AE56ABBF1000F07D016F413
:100FC000400F40F0CD80B9F1000F40F0C980AAF188
:100FD0008070AAF10077424242EB00027B4243EB71
:100FE000070306F4407701925FFA86F83F0A0293FE
:100FF0000397236893F851202AB3012904D1B3F849
:10100000D62012F4807F05E002291CD1B3F8D62047
:1010100012F4007F17D0029AAAB108F00F03092B2F
:1010200000F29E804FEA18177B1E072B00F2988073
:10103000B9F1000F4ED0236A186938F035FD8307E7
:1010400000F1988091E093F84F30980726D0019BEB
:1010500023B3B8F1200F00F2888003D04FEAD807FD
:10106000013700E00127B9F1000F06D0236A1869A3
:1010700038F01AFD81077FD477E0B8F1200F29D12D
:10108000B4F8663403F46053B3F5805F6DD0B9F102
:10109000000F1FD0039A012A1CD966E0BBF1000F94
:1010A00015D008F07F03162B06D8344A9A4003D592
:1010B0002B68022B0DD058E02A68022A02D16A7DE3
:1010C000002A52D02E4AD356002B02DB4DE0002ED0
:1010D0004BD1012706F4E023B3F5802F45D0B3F5BB
:1010E000403F0BD1236A186938F0DEFC02073CD57B
:1010F000029B0BBBBBF1000F1ED131E0B3F5003FEB
:1011000012D1236A186938F0CFFCC3072DD5BAF184
:10111000000F12D106F07F03022B21D0042B1FD029
:101120000B2B1DD0162B06E0B3F5803F04D1019A9E
:1011300012B1B8F1200F13D0AEB1039BFF18D4F851
:1011400094349B789F4210D80123204631462A6868
:101150009BF632FD00280CBF6FF01C00002006E05B
:101160006FF0010003E0304601E06FF01C0005B0B5
:10117000BDE8F08F7F00ADE77F007EE7000210281A
:10118000A08D08002DE9F04393B00D4616461F468A
:10119000044697F64BFF002148228046684671F6C8
:1011A000E1FE07B1BF68AB88C3F340132946204670
:1011B0000D970493CDF81880C6F6F4FCEB8AADF8D1
:1011C000083003F44043A3F540477B4243EB070359
:1011D0000A3354F823300890186939F06EF8D6F8BD
:1011E0000890494609902846D2F634FDB9F80630F1
:1011F00003F0F0031B09082B074601D00C2B47D145
:10120000AB8803F00303022B1AD199F803301807B7
:1012100006D50C9BC4F85C7643F001030C9337E0D1
:1012200099F8003099F801201A4399F802301343D5
:101230002ED10C9BD4F85C7643F002030C9327E08C
:10124000032B25D199F8003099F801201A4399F819
:10125000023013436B8A0BD013F4807FD4F86436CA
:1012600010D10C9AC4F85C7642F001020C9209E0AD
:1012700013F4807FD4F85C7607D10C9B43F0020313
:101280000C9302E00133C4F86436D4F86436119349
:101290006B8AD90703D50C9B43F00C030C93EB89A5
:1012A00013F0040F03F00303BDF83E2014BF42F017
:1012B000400222F04002022BADF83E2007D0032B63
:1012C00007D0012B01D0142304E0282302E050238F
:1012D00000E0A02307F04078B8F1007F8DF840309F
:1012E00040F0958007F0F00207F4E02312098DF832
:1012F000382007F00F028DF80C20BDF8082002F40A
:101300006051B1F5005F23D1B3F5803F12D102F4F3
:10131000E062B2F5007F09D0B2F5407F08D0B2F5A7
:10132000807F01D0072328E0082326E0092324E05A
:101330000A2322E0B3F5003F08D102F4E062B2F5DF
:10134000807F01D0052318E0062316E0042314E073
:10135000B1F5C05F10D1B3F5803F08D102F4E0626F
:10136000B2F5807F01D0022307E0032305E0B3F547
:10137000003F04D1012300E000238DF83D30FA0244
:1013800005D5BDF83E3043F00103ADF83E30484688
:101390008CF630FB28B1BDF83E3043F00203ADF8C7
:1013A0003E303B020FD5BDF83E3043F004034846C3
:1013B000ADF83E308CF61AFB28B1BDF83E3043F054
:1013C0000803ADF83E3078020CD5012348468DF86D
:1013D00039308CF607FB28B1BDF83E3043F01003DE
:1013E000ADF83E3048468CF6F1FA28B1BDF83E30F3
:1013F00043F02003ADF83E3048468CF6EBFA8DF80A
:101400003C0048468CF6D6FAADF83A0042E0B8F116
:10141000807F3FD1BDF8082002F46053B3F5C05F70
:101420008DF80C7002D0B3F5005F11D107F4E02302
:10143000B3F5803F06D112F4E06F01D1022305E03D
:10144000042303E0B3F5003F02D101238DF80D30F2
:10145000390205D59DF80D3043F008038DF80D30A5
:101460007A0205D59DF80D3043F040038DF80D301C
:10147000FB0205D59DF80D3043F010038DF80D30BB
:1014800020469DF80D109DF80C2087F6BBFDADF8A9
:101490000A0008E03846D2F6EDF94FF4FA7390FBF3
:1014A000F3F3ADF80A302B88063BEA880593130A5C
:1014B0000793BDF8083013F4404F0CBFA36AE36AEA
:1014C0001B890193019B072B0DD84FF06841994070
:1014D0000BD44FF04071994005D44FF08061994092
:1014E00001D5022300E004230193B8F1000F19D1C4
:1014F00007F07F03162B0CD81D49994009D501230D
:101500000B93AB8803F08003002B0CBF0223012355
:1015100018E0FFB2174BDB57002B03DA02230B93C3
:1015200001230FE00323B8F1007F0B9301D10423C3
:101530000B932B89120A03F00F0352EA03220CBF0C
:10154000042303230A932B8AD80603D5009A42F07A
:1015500080020092D90703D5009B43F0010300935A
:10156000A06869463246FBF73CFC13B0BDE8F08347
:1015700000021028A08D08002F2A70B504460D46E1
:1015800016463AD9B0F8AC310B60B0F8AE314B60CA
:10159000036ADA899B8943EA02438B600368D3F8C4
:1015A000DC00026CCA601A690A61826A4A61026BD5
:1015B0008A61B3F87A20D3F8A830CA61D4F8B02190
:1015C0000B6243684A628B62F9F7BDF93B2EE86211
:1015D00016D900203F2E236A1A895B892A636B6320
:1015E000A8630ED92368432ED3F8DC305B6CEB6321
:1015F00007D9D4F894362B6470BD6FF00D0070BD20
:10160000002070BDF0B50468ADF53B7D00210546B6
:10161000D0F810614FF4377201A8B991276A71F6BA
:10162000A1FC2A7A42B1738E13F4404F0CBF002301
:1016300001230A3354F823707B6CB893002B44D0F9
:1016400003F04071B1F1807F02D0B1F1007F2CD165
:1016500013F4E02F21D10AB1708E03E0236A1869D8
:1016600037F0F0FC00F46050B0F5805FB89B02D119
:1016700043F4803310E0B0F5C05F02D143F400338F
:101680000AE0B0F5005F02D143F4403304E0B0F566
:10169000205F02D143F48023B89394F92032012BC8
:1016A00003D1B89B43F40003B893B899204621F4C2
:1016B0004071B891DEF618F9B89C05462046D2F67E
:1016C000A1FA281A44EA00200FE0284601A9B8AA86
:1016D000B9ABB6F6F5FFB89818B9284694F6F0FA03
:1016E00003E094F80D3603B1B9980DF53B7DF0BDDC
:1016F0002DE9F04190F8D2318CB004460D461BB96B
:1017000003685B6A012B06D1236A5B68C4F8603703
:10171000C4F85C370CE001F44043A3F54046734243
:1017200043EB060383F00102C0F86037C0F85C2782
:101730002746002639E0D7F85C37204602A90A334D
:1017400054F8233023628EF6DDFA236A0021204606
:1017500003F1500894F6B8FB7F2300220093414622
:101760001346019002A83BF0B9FC206A05F46051D1
:101770005030B1F5205F0BD0B1F5005F0AD0B1F564
:10178000C05F09D0B1F5805F14BF0A21142104E0C5
:10179000A02102E0502100E02821D2F6BBF820462B
:1017A00002A997F6BDFA0136043723685B6A9E42A8
:1017B000C1D32946204699F665FA204620F0F9F96A
:1017C0002046B4F86814022220F07AF9204629460F
:1017D000FDF758F90CB0BDE8F08100002DE9F04F9D
:1017E000A5B09DF8BCB0044605911546D2F810A1ED
:1017F0000021282206A8984671F6B4FB10A8002103
:10180000282271F6AFFBD4F87C3313B104F55F7076
:1018100008E0236893F8303073B9236A5B7D052BA9
:1018200004D1704806A9D2F67FF805E0042B03D155
:10183000204606A98EF666FA06AF10AE3B46204655
:1018400029460AF138020DF16809009697F6D2FA96
:1018500000212022484671F685FB0021082222A89B
:101860001B971C9671F67EFB94F85135DA07CDF87C
:101870008C9002D52A6DD70708D49E0708D52A6D0B
:1018800002F00602023A18BF012202E0002200E044
:101890000122216891F84F3013F003030AD0D5F8E4
:1018A000E830D80405D4BBF1000F0CBF1346002369
:1018B00000E000238DF8883091F85130D3B1236ACD
:1018C0001B68012B04D1B1F8D63013F4807305E006
:1018D000022B0ED1B1F8D63013F400730AD0D5F82C
:1018E000E83013F0806304D1BBF1000F08BF13464A
:1018F00000E00023059A29468DF8893022ABD4F800
:10190000A40696B20093324600231DF0DBFB2E9A0C
:10191000136800F10C099945074660D800210C2294
:10192000404671F61FFBBAF82E30A8F80830AA79A5
:10193000002A0CBF0222012240F23713A8F80A2025
:10194000296D0B4033B195F858301BB142F01002AD
:10195000A8F80A20236893F831306BB9236A1B6812
:10196000022B09D1BAF86230990605D5B8F80A30C9
:1019700043F02003A8F80A30236A5B7D43B194F852
:1019800082342BB1B8F80A3043F48063A8F80A30E7
:10199000236893F8AD305BB1D5F8E8305A0407D42A
:1019A000AB792BB1B8F80A3043F48073A8F80A3049
:1019B00022ABD4F8A4062946009308F10C03324662
:1019C0000193002302971DF0A4FB059B802B03D1FC
:1019D000D5F88C301D9A5A612E9AC2F8009025B025
:1019E000BDE8F08F448A080038B50C4605464968C2
:1019F000E26844F048FCA86804F11E01224681F622
:101A0000A1F8D5F89C022146BDE83840C0F6FABDE1
:101A10002DE9F7438846114606461746B6F63EF9C5
:101A20000546002859D0D6F89C02002855D036210A
:101A30001DF02BF9044600284FD000F1180905F1DC
:101A4000DE010622484671F609FA36230522C4F85B
:101A5000309063606261D6F89C0271681DF021F9D4
:101A6000A06338B9D6F89C02214603B0BDE8F04324
:101A70001DF024B97B790370002380F80180837006
:101A8000D5F8E8301B0501D50123837095F8443063
:101A9000C3703B79012B0BD1AA7962B9D5F8E83034
:101AA000190107D42B7C002B0CBF0823002302E074
:101AB000022300E0072303712146D6F86C3230463A
:101AC0002A46DB6800933B4682F64CFA30462146B4
:101AD00003B0BDE8F043FFF787BF03B0BDE8F08374
:101AE0002DE9F84F05468946D0F89C021146174665
:101AF0009A46DDF83480DDF838B00F9E1DF0C5F849
:101B0000044600283FD00A9B83600B9BC3600C9B5C
:101B1000476003610EB10BF1100BC4F814B0BBF1B8
:101B2000000F23D0B8F1000F20D0D5F89C025A4600
:101B300069683B461DF0B5F8A06340B9D5F89C0232
:101B400021461DF0BBF86FF01A00BDE8F88F4EB1CA
:101B50003146102271F682F9A06B6269414610305D
:101B6000103A01E06269414671F678F92846494623
:101B70002246534693F6A6FE28462146FFF734FF39
:101B80000020BDE8F88F6FF01A00BDE8F88FF0B5BF
:101B9000ADF52F7D0546ABA9D0F824010022D9F67A
:101BA000BBFBB4E094F82430980740F1B08094F87F
:101BB00065220132D2B284F865222B6893F85D3138
:101BC000B2FBF3F103FB1123DBB284F86532002B87
:101BD00040F09D801E461A4604F56471C91804330E
:101BE0001C2B4868096A06440A44F5D1D4F81C1431
:101BF0008E4201D3761A01E0CB43F618D4F8203494
:101C00009A4201D3D21A01E0D84312187118D3189E
:101C1000C4F81C14C4F82034002E78D0D4F8D4337F
:101C2000B2FBF6F61BB90723C4F818346DE00121A6
:101C300000222046D9F604FC2046D9F6BFFB2B68CB
:101C400093F85E31074623B104F11400A6A971F69A
:101C500075FCD4F81814D4F8D43319B10139C4F888
:101C600018144DE09E422A68B2F85A0143D9F21A7C
:101C700043436420B3FBF0F39A423CD994F86432B6
:101C80000133DBB284F864322A6892F85C219A420C
:101C900034D884F864124FF41F7207A871F662F901
:101CA00004F51A714FF4147212A871F6D7F8B5F84A
:101CB0006614D5F8E4071FF075FE014620B109A8A7
:101CC0000431242271F6CAF807AB08970027039362
:101CD0004FF41F730097284604935F22019704F185
:101CE0001403029721698DF651F90723C4F8D473C0
:101CF000C4F8183402E0002384F86432D4F8D433F2
:101D0000DA00D31ADB0803EBD606C4F8D463D5F89F
:101D10002401ABA9D9F616FB044600287FF442AF94
:101D20000DF52F7DF0BD10B5044688B00846D8F6F5
:101D300059FA07AAB4F86834ADF81C3003920422AB
:101D4000002304923F22ADF81E30009301930293CA
:101D5000014620468DF61AF908B010BD00B5B0F85E
:101D6000683489B0009107A9ADF81C3001230391B4
:101D70000421ADF81E300023049111463F22019347
:101D800002938DF603F909B000BDD0F8A83802F02F
:101D9000020230B5013B89B00446C0F8A8380846B5
:101DA0000B6B002A0CBF052500250793FBF7A7FD49
:101DB00006AA01462046B5F685FE07AA002303922F
:101DC0000422009504923C2201930293014620468E
:101DD0008DF6DCF809B030BD2DE9F04FD3B0D0F866
:101DE0006861984607910446DDF870B1BBF80A3087
:101DF0005D9F06939EB1B3799BB13046D8F6F2F958
:101E0000814678B1D4F89006494608F11002C6F62A
:101E100095F8012800F07A81042803D176E1B146D3
:101E200000E09946B8F800A00AF0FC0AAAF1800E7A
:101E3000DEF1000A4AEB0E0ABAF1000F0ED0B388A9
:101E40005D070DD4079AD18AD4F85C01C9B2BDF6FA
:101E5000F3FFD0F1010538BF002502E0554600E050
:101E60000025A7F10C0100220BF10C00F7F78CF90B
:101E7000B368022B01460FD033B9069B980700F1D7
:101E8000458113F0010F05E0012B40F03F81069BD7
:101E900013F0020F00F03A8130462A46D8F6ACFB28
:101EA000002800F03381337BD90709D406F10C00F8
:101EB00008F11001062270F6BDFF002840F02681CF
:101EC00008F1100E09AD2046079972465346CDF829
:101ED00018E0CDF800B00197029597F6BFF80028FA
:101EE00040F01481D4F86801698ED8F623FA0028EE
:101EF00000F00C812B7A6A8E2046009305F10903CD
:101F0000069984F6EDFC054608B3C388BAF1000FC4
:101F100002D0DA0502D4F9E0DB0518D4BDF84E3062
:101F2000002B00F0F380EA88900704D5BDF82A1052
:101F3000890740F1EB80BDF82A104A4090070FD482
:101F40006A8D6AB112B21BB29A4209DBDEE0D4F8A4
:101F500034332BB11BB2BDF94E209A42C0F2D68069
:101F6000236893F8AF3033B1D4F8880109A95A46F1
:101F70003B469BF657FAD4F86831DB79012B47D101
:101F80000022B3889907ADF890200CD53846F8F7B1
:101F900012FC2390002800F0B98059463A4670F6AA
:101FA0005DFFADF89070BDF890008C30F8F703FC41
:101FB000BDF89030054620B30126204609A905F159
:101FC0000C02803300968CF6F3FDA8B9B4F8BC354A
:101FD0002B816D2308226B6049462B696E810C337F
:101FE0002B6000924522019002902046049308F154
:101FF0000A0303958CF6CAFF2846F8F7EBFBBDF8F9
:102000009030002B00F082802398F8F7E3FB7DE00E
:10201000C5B9D4F84033022B17D1079ABDF856A0A2
:10202000D38A0AF47F4ADBB24AEA030A9DF82C30CD
:1020300020460093524606990DF12D0384F67CFB51
:1020400020B163E04FF0000A00E0AA46B6F8048031
:1020500018F0020805D03846F8F7ADFB8046002896
:1020600054D09DB9204684F631FB0546002849D05E
:10207000D4F84033022B09D19DF82C302046009330
:10208000524606990DF12D0384F6F2FAA86E28B196
:10209000F8F7A0FB0023AB66A5F86C304FF4927202
:1020A00009A9284670F6DAFE76F6EAF9B3889A07A7
:1020B000686608D5C5F86880404659463A4670F6C5
:1020C000CDFEA5F86C70D4F86801037BDB071DD446
:1020D0000C3071F6FFFD0546C0B9D4F86801D8F69A
:1020E00085F8012812D1B9F1000F0FD0D4F868019A
:1020F000294604E04046F8F76DFB304608213DF0E4
:10210000C3FD03E0B8F1000FF4D1F6E753B0BDE82A
:10211000F08FF0B590F8903287B005460C46174620
:10212000002B4CD000294AD0D1F818611146C5F6D1
:1021300039FD002397F91D2001462046C5F68EFD86
:102140002046C5F6D1FC3946D5F8D4262846C5F632
:10215000C9FC002201462046C5F6CEFDA379A3B9ED
:10216000D4F81C7176F68CF9D4F81031D4F81C210F
:10217000118A928AF86459859A85237C2BB17379E8
:102180001BB92046012115F069FA0023B371B3632E
:10219000277CA7B996F88930012B10D12846214613
:1021A00086F889700EF04FFA284621460F223B46EA
:1021B000009701970297039704978CF6E7FE07B004
:1021C000F0BD10292DE9F04F0446ABB00D46934603
:1021D00000F0A180D0F86831DB79012B14D1B0F880
:1021E000BC35ADF824306D230C212AAA08930023B6
:1021F00042F88C1DADF826300392452204915946D1
:1022000000950193029354E0036893F81B31002B6F
:1022100048D0D0F830230C26002310680BE080361D
:102220009168B1F86C100C2903D9093921F0030128
:102230007618013304328342F1D13046F8F7BBFA05
:102240008146002867D000F10C07B2464FF0000825
:1022500011E008F1020201212046009153F82210FA
:102260003A4653468CF6A4FC50B97B6808F1010845
:10227000C3EB0A0AFF18D4F830331A689045E8D344
:102280000023C9F80880204659461A220095019378
:102290000293CDF80C9004968CF678FE4846F8F739
:1022A00099FA08E08DE80A0011461A220293039376
:1022B00004938CF66BFED4F84033022B04D1A06853
:1022C000D4F8541380F6CCFB082D0BD05DB1D4F8B4
:1022D0004033022B4FF003030CBFC4F84033C4F863
:1022E0003C3318E001252046D4F838138CF61EFE46
:1022F000D4F83003D4F838138CF630FED4F84033D9
:10230000022B02D1C4F8405305E0D4F83C33022B31
:1023100008BFC4F83C532BB0BDE8F08FCB6870B554
:1023200005460C460E690BB11EF085FD636823F46B
:1023300000025B03626003D528462146A1F612FB2A
:1023400023699B794BB1D4F8F00030B1F8F742FA29
:102350000023C4F8F030C4F8F43094F8E73023B127
:1023600028462146012211F0C3FB20690121FDF717
:10237000D0FBA36823F0804323F4C063A360D4F8A8
:10238000F8302BB9D4F8A43123F00103C4F8A431F8
:10239000D5F86C329E4208D1B37933B9337C23B17E
:1023A0002846BDE870408DF6FDBA70BD2DE9F047B6
:1023B000DDF82090074692461C46D3F810810E4661
:1023C00029B9D3F81431197484F8061404E090F88C
:1023D000EE35002B40F08880002384F8B43376B1CA
:1023E000D4F8183193F83C305BB1B9F1000F08D143
:1023F0002046514617F081FE18B1BDE8F08784F8F9
:102400009263D7F89C0210211CF03FFC054600287F
:102410006AD01023C0F80C904360331C18BF01230E
:10242000438094F86C3323B11EB93846214617F027
:10243000C0FDA379002B4BD1237A002B48D0226D0D
:1024400040F237131340002B42D0D8F86830002BED
:102450003ED0B8F86C80B8F10C0F39D9B4F85A00F6
:1024600003F10C09A8F10C0872F6FEFB28B14846EE
:10247000414672F68FFA0646D0B9B4F85A0072F6A1
:10248000DDFB30B1484641463022F6F77DFE064678
:1024900070B9B4F85A30B3F5806F02D0B3F5006F5D
:1024A00016D1484641464422F6F76EFE064678B1FC
:1024B0007278D7F89C027968023210231CF0F1FB85
:1024C000A86328B17278023231466A6170F6C6FCA0
:1024D000384621462A46534693F6F4F938462946AB
:1024E000BDE8F047FFF780BABDE8F0872DE9F0417D
:1024F00005460F4614461E46FEF746FD804688B93F
:102500000CB144F04044022F0CBFAB6AEB6A0EB131
:102510009C6403E05C64284696F604FFD5F8A001AD
:10252000E7F654FB4046BDE8F0810022D0F878334E
:1025300010B50168D0F810419A705A711A71D0F82C
:10254000782312786AB1027A5AB1027C4AB1E288E1
:10255000900606D58A6A92F8EC20920744BF9A8AC0
:10256000DA8010BD2DE9F04F99464B6891B0D1F853
:1025700008B00546C3F3C0460C460196C3F30046B7
:1025800023F08643009623F4EA132BF08306D1F858
:1025900010A017464B608E60002A00F0D08092F8A1
:1025A0000180127842EA0828A1F81081BA7881F8EF
:1025B000122143F480324A60026892F84210B1B1AD
:1025C00092F843209AB143F4A0236360D4F83431E5
:1025D00093F85D307BB91BF4007F03D094F824306E
:1025E000DA0608D5284621460DF0B4FF03E0284658
:1025F0002146A1F62DFBA26812F0006222D108F05C
:102600000C0394F80E0194F80F119B10012B06D0C7
:10261000032B09D043B9012284F80E2101E084F88C
:102620000E3184F80F3103E084F80E2184F80F2175
:1026300094F80E31834207D194F80F61761A18BFCF
:10264000012602E0002600E0012618F4407F03D0B6
:10265000636843F08043636018F0010F03D0A36800
:1026600043F08003A36018F0200F03D0A36843F069
:102670000103A36018F0400F03D0A36843F00203E6
:10268000A360A3680BF0030B03F003039B4518BF83
:10269000012618F0100F03D1636843F480136360C0
:1026A00018F4804F03D0636843F000736360C8F38D
:1026B0004008B9F1000F2AD005F53E7007304946B1
:1026C000162270F6CBFBB8F1000F03D099F8018009
:1026D000C8F3800899F801301B0703D5636843F0FD
:1026E0008073636099F8023013F008030DD0DAF8B4
:1026F000103140F608425B8E41F6100103F440436E
:10270000B3F5404F14BF0B461346A5F8E0322B68D3
:1027100093F95230EBB11A9BDBB19AF80630C3B98A
:102720001A990E220CA870F699FB28460CA90122D2
:1027300093F6F8FE50460CA986F61EFC09E0062228
:102740009AF626F828462146A1F682FA3E46B84671
:102750000BE0F91C0DF11D00102270F67FFBD5F87F
:10276000943402A89978D1F6D3F9009B8BB16368B1
:1027700013F4803310D007AA0023E11812F8010FD8
:1027800091F86110884206D10133102BF5D1002356
:1027900002E0009B00E001236268009802F48031AF
:1027A000C2F30042904200D163B104F1610029B14B
:1027B0000DF11D01102270F651FB02E0102270F69F
:1027C000D1FB0126B8F1000F03D0636843F4002366
:1027D0006360019B434500D146B1D5F8943493F82A
:1027E0007B301BB9284621463EF0E4FA11B0BDE823
:1027F000F08F2DE9F04186B004460D4687F66EFD58
:102800000646002840F08F806B1C042B00F28B8062
:10281000DFE803F055035C895C0000272368A046CD
:1028200083F84F70236883F85170D4F85803C38835
:1028300023F02003C3803830D1F662F91EE0012B6B
:102840000CBF256AD8F828500021102205F1650038
:1028500070F688FB6B6C3BB113F0407F04D0002313
:1028600020466B6496F65EFDAB6C23B113F0407F9F
:1028700001D00023AB64013708F1040823685B6AC8
:102880009F42DCD30025D4F868325A599AB1D4F863
:10289000240103A9D8F640FD05E000222046134696
:1028A0000092FFF75FFE03A9D4F82401D8F64AFD91
:1028B00001460028F1D10435202DE4D133E0D4F8CD
:1028C00094349D78032D0CBF03250125012120465A
:1028D0000A4698F69DF8032D236801D1072200E0EF
:1028E000032283F84F202746D4F85803C38843F0C7
:1028F00020030025C3803830D4F894341979D1F6F8
:10290000EFF80CE0012BD4F858130CBF206AB86A1A
:102910004D311022653070F6A1FA01350437236875
:102920005B6A9D42EED3304606B0BDE8F081000000
:10293000F8B5036806460D4693F8453014461C4F1B
:102940003BB10B68F95CD0F86401B8F60FF90028C8
:102950002BD122692968795CD2F8603393F8290079
:10296000084110F0010021D02968A1B93368D3F8DB
:102970008830196A01311962D4F8F83003B9D36884
:102980001A6A4FF0FF3001321A62D4F85C31013319
:10299000C4F85C31F8BD01392960795C93F82900ED
:1029A000084110F00100DFD1F8BD0020F8BD00BFE4
:1029B0006C3A08002DE9F0431F4685B05368044681
:1029C0006F4E894615461E40DDF8308016B1FE89EF
:1029D00006F007065A061CD504A96A4B20469B5DE3
:1029E0002A4641F8043DC8F80030FFF7A1FF013046
:1029F00000F0A380039BD8F800209A420BD0624AD3
:102A0000D65CFB8906F0070223F007031343FB8122
:102A100001E001230393039BE269C8F8003002EB55
:102A20004302B2F91C102268B2F86020914201DB27
:102A3000032B26D96068394671F666FDBA69534B97
:102A400013408046002B40F09680530609D4039B28
:102A500082B204EB4303B3F86C342A3B9A4280F20F
:102A60008A8060683946F6F7EFFA94F8723603B157
:102A70004000039BE26902EB8302526812688242C3
:102A80000CD804EB4303B3F85A22B4F8583223EAC3
:102A900002036FF00F00A4F858326EE0D4F8A001E2
:102AA0000278002A3ED097F91E20002A3ADB8DE8F2
:102AB000480029463A464346E7F60EF8002831D04A
:102AC000D9F8502040F2371313404BB1EA683AB1BD
:102AD00013692BB1D4F8A00129460023E7F688F842
:102AE000236820462946D3F88830DA6A0132DA6250
:102AF0003A464346FCF776FBD5F858312946013370
:102B00002046C5F85831F1E9602312EB080243F181
:102B10000003C1E90023294642463346FBF776F815
:102B200000202AE0BB6943F40043BB612368D3F86B
:102B300088301A6B01321A631DE03946606871F6FD
:102B4000E3FC324601462046FBF796F8236893F8EB
:102B5000422042B193F843302BB1D4F834012946D6
:102B60003A460DF0D7FC606839460122F7F764FE5B
:102B70004FF0FF3001E06FF0160005B0BDE8F083C4
:102B8000400001007A2B0800742B08001000008020
:102B90002DE9F04F0E6897B09A46002389464168A8
:102BA0000446139214930268137E0C91B56A03B322
:102BB00090F89432002B40F0D8822B7DDB07B76968
:102BC00006D52946324683F693FB002840F0A683BB
:102BD000D5F8108098F8102092B1D5F8F8307BB96C
:102BE0002B7DD9070CD495F8243013F0020307D1BC
:102BF0002268D2F88820516A013151620A936CE34D
:102C0000236A296B5B68994208D02368D3F888301F
